:020000040800F2
:1000000000080020052D0008710C0008730C000882
:1000100000000000000000000000000000000000E0
:10002000000000000000000000000000750C000847
:100030000000000000000000770C0008790C0008A8
:10004000852D000800000000852D0008852D000882
:10005000852D0008852D00087D0C0008852D0008E1
:1000600000000000852D00089D0C00089F0C000872
:10007000852D0008A10C000800000000852D000857
:100080000000000000000000000000000000000070
:10009000852D00080000000000000000A90C0008E9
:1000A00000000000AB0C0008000000000000000091
:1000B000852D0008AD0C00080000000000000000C5
:1000C00010B5064C2378002B07D1054B002B02D02E
:1000D000044800E000BF0123237010BD040000208D
:1000E00000000000E02D0008044B10B5002B03D0E9
:1000F0000349044800E000BF10BDC04600000000F6
:1001000008000020E02D00080023C25C0133002A13
:10011000FBD1581E70470000002243088B4274D365
:1001200003098B425FD3030A8B4244D3030B8B42F8
:1001300028D3030C8B420DD3FF22090212BA030C01
:100140008B4202D31212090265D0030B8B4219D3E2
:1001500000E0090AC30B8B4201D3CB03C01A524102
:10016000830B8B4201D38B03C01A5241430B8B424A
:1001700001D34B03C01A5241030B8B4201D30B0333
:10018000C01A5241C30A8B4201D3CB02C01A52415A
:10019000830A8B4201D38B02C01A5241430A8B421D
:1001A00001D34B02C01A5241030A8B4201D30B0206
:1001B000C01A5241CDD2C3098B4201D3CB01C01A20
:1001C000524183098B4201D38B01C01A524143092A
:1001D0008B4201D34B01C01A524103098B4201D318
:1001E0000B01C01A5241C3088B4201D3CB00C01A85
:1001F000524183088B4201D38B00C01A52414308FD
:100200008B4201D34B00C01A5241411A00D2014621
:10021000524110467047FFE701B5002000F0F0F8AA
:1002200002BDC0460029F7D076E7704703460B436E
:100230007FD4002243088B4274D303098B425FD3DF
:10024000030A8B4244D3030B8B4228D3030C8B420B
:100250000DD3FF22090212BA030C8B4202D31212F1
:10026000090265D0030B8B4219D300E0090AC30BC6
:100270008B4201D3CB03C01A5241830B8B4201D373
:100280008B03C01A5241430B8B4201D34B03C01A5C
:100290005241030B8B4201D30B03C01A5241C30AD4
:1002A0008B4201D3CB02C01A5241830A8B4201D345
:1002B0008B02C01A5241430A8B4201D34B02C01A2F
:1002C0005241030A8B4201D30B02C01A5241CDD2D4
:1002D000C3098B4201D3CB01C01A524183098B421F
:1002E00001D38B01C01A524143098B4201D34B0108
:1002F000C01A524103098B4201D30B01C01A52416B
:10030000C3088B4201D3CB00C01A524183088B42F1
:1003100001D38B00C01A524143088B4201D34B00DA
:10032000C01A5241411A00D201465241104670474C
:100330005DE0CA0F00D04942031000D34042534051
:1003400000229C4603098B422DD3030A8B4212D311
:10035000FC22890112BA030A8B420CD38901921143
:100360008B4208D3890192118B4204D389013AD080
:10037000921100E08909C3098B4201D3CB01C01A55
:10038000524183098B4201D38B01C01A5241430968
:100390008B4201D34B01C01A524103098B4201D356
:1003A0000B01C01A5241C3088B4201D3CB00C01AC3
:1003B000524183088B4201D38B00C01A5241D9D2DB
:1003C00043088B4201D34B00C01A5241411A00D25C
:1003D0000146634652415B10104601D34042002B58
:1003E00000D54942704763465B1000D3404201B5D7
:1003F000002000F005F802BD0029F8D016E770478C
:100400007047C046002B11D1002A0FD1002900D11E
:10041000002802D00021C943080007B4024802A105
:100420004018029003BDC046D9FFFFFF03B46846E1
:1004300001B5029800F006F8019B9E4602B00CBC84
:100440007047C046F0B557464E464546DE46E0B5D5
:1004500004000D009246994683B08B4230D82DD0CF
:100460004946504600F0BAF829000600200000F086
:10047000B5F8331A9846203B9B4633D45A46534628
:10048000934042461F00534693401E00AF423AD865
:10049000AF4200D178E05B46A41BBD41002B00DADF
:1004A00075E0002200230092019301235A469340F5
:1004B0000193012342469340009328E08242CFD922
:1004C00000220023009201930C9B002B01D01C60A2
:1004D0005D600098019903B0F0BCBB46B246A946E6
:1004E000A046F0BD424620239B1A5246DA404146C0
:1004F00013004A468A40170042461F435346934022
:100500001E00AF42C4D9002200230092019343464B
:10051000002BD9D0FB0772081A4346467B080EE031
:10052000AB4201D1A2420CD8A41A9D41012024194A
:100530006D410021013E24184D41002E06D0AB42F2
:10054000EED9013E24196D41002EF8D10098019991
:100550005B4600196941002B24DB2B005A464446B8
:10056000D3402A00E2401C005B461500002B2ADB2A
:1005700026009E40330026004746BE403200801AC7
:100580009941009001919FE7A342BCD883E742467E
:10059000202300219B1A0022009101920122DA40BF
:1005A000019286E7424620239B1A2A0046469A403B
:1005B0002300F340444613432A00E2401C005B46FC
:1005C0001500002BD4DA42462F0020232600974046
:1005D0009B1ADE403B003343CDE7C04610B50029EF
:1005E00003D100F007F8203002E0080000F002F824
:1005F00010BDC0461C2101231B04984201D3000CEE
:1006000010391B0A984201D3000A08391B09984285
:1006100001D30009043902A2105C40187047C0469B
:1006200004030202010101010000000000000000BB
:1006300010B5524A136801218B430B4313604F4B93
:100640001B68DB07FBD54E490B684E4A1A408023D6
:100650001B0113430B604C4A136801210B431360C9
:10066000494B1B685B07FBD5474B5A68474911400C
:10067000802252010A435A60414908688022520090
:1006800002430A601B6DC022920213408022520274
:10069000934209D03C4B196D802212030A431A651C
:1006A0001A6D3B490A401A65374B1A6D354911409E
:1006B000C02252010A431A65196D802252000A4372
:1006C0001A65314B1B6D9B05FBD52F4B1B6DC02253
:1006D0009202134080225202934207D02A490B6DA6
:1006E0002C4A1A4080235B0213430B65264B196D7D
:1006F0008022D2020A431A65DA682749114088220B
:10070000D2030A43DA601968802252040A431A604D
:100710001D4B1B689B01FBD51B4BDA68F0218A43FC
:10072000DA60DA681D490A40DA60DA681C490A4072
:10073000DA60DA6803218A430A43DA60124BDA6826
:100740000C2313400C2BF9D1164800F0FBFB164884
:1007500000F01CFC0C4BDA6C14491140C022120151
:100760000A43DA64DA6C12490A40DA64DA6C114935
:100770001140C02212030A43DA6410BD0020024077
:1007800000700040FFE7FFFF00100240FFE0FFFFA6
:10079000FFFFF7FFFFFFFCFFFFFF02FFFFF8FFFF78
:1007A000FFC7FFFF00093D000048E801FFF3FFFF1E
:1007B000FFCFFFFFFFFFF3FF00B583B00F4B596B77
:1007C000012211435963596B0A400192019A9A6BB5
:1007D000802149050A439A639B6B0B400093009B61
:1007E000FFF726FF01F0FEFC01F050FC02F048FA92
:1007F00002F05EFA02F056FAFAE7C0460010024034
:10080000F0B5D6464F464646C0B58CB00AAE082273
:100810000021300002F0DCFA1822002104A802F0C6
:10082000D7FA314BD96A04221143D962D96A1140EF
:1008300003910399D96A01273943D962D96A3940AA
:1008400002910299D96A022080460143D962DB6A8B
:1008500003400193019B254B9A469861A025ED0525
:1008600080239B009946AB6221498B682148034055
:100870008B60EB6830218B43EB602B688B432B60E4
:100880000A92377100247471B771300000F084FB54
:10089000082304930594089404A9280000F007FA9B
:1008A000434604930597013306930794089404A9DB
:1008B000504600F0FCF94B460493059706940794C4
:1008C000089404A9280000F0F2F90B4BC12189001B
:1008D0005A580A4802405A5040221A600CB0E0BCF4
:1008E000BA46B146A846F0BD0010024000040050D0
:1008F00000000140FFF0FFFF00E100E0FFFF00FF0C
:10090000F0B5C64600B590B01C22002109A802F03F
:100910005FFA1822002103A802F05AFA2F4CE36A6A
:1009200001263343E362E36A33400293029B1023C0
:1009300003930E3B98460493032505950696089568
:10094000A027FF0503A9380000F0B1F98023DB00E0
:10095000039343460493059506960025079508964C
:1009600003A9380000F0A3F9A26B802189030A4390
:10097000A263A36B0B400193019B194AC521890017
:1009800053581B021B0A535080231B041360154C41
:10099000626880239B0413436360E368124A134038
:1009A000E3602368114A134023602368104A134010
:1009B000236009950F4B0A930B950C950D950E9599
:1009C0000F9509A9200000F0CBF9E3680A4A13400B
:1009D000E36010B080BCB846F0BDC04600100240D5
:1009E00000E100E000540040FF7FFFFFFFFFF7FF42
:1009F000FFFFFDFFBB7C700001F8FFFF82B0184BCA
:100A0000996B802212060A439A639B6BDB0FDB070C
:100A10000193019B134BC32189005A58124802408D
:100A20005A50802292011A60104BDA6801218A43E1
:100A3000DA60DA680E490A40DA60DA680D490A407D
:100A4000DA60DA680C490A40DA60DA680B490A4071
:100A5000DA60DA680A490A40DA6002B07047C046D4
:100A60000010024000E100E0FF00FFFF007C0040BA
:100A7000FFF1FFFFFFFFDFFFFFFFBFFFFFFF7FFF74
:100A8000FFFFF9FFF0B5D6464F464646C0B58EB0DB
:100A90001822002108A802F09BF91822002102A8C0
:100AA00002F096F9494B996B8020C002014399638B
:100AB0009A6B02400192019AD96A01221143D962CC
:100AC000DB6A13400093009B0292022403940327E5
:100AD000049706260796A025ED0502A9280000F038
:100AE000E6F802940394049700240594069407966C
:100AF00002A9280000F0DBF835490B68354A1A4096
:100B0000A023DB0013430B60334B1A683348804645
:100B100002401A601A683248844602401A601A6815
:100B20001D37BA431A6018684022924690431860F5
:100B300018688025A843284318601868294E30405B
:100B400018601A68284802401A600B68274A1A4041
:100B5000A023DB0113430B60254B1968424611406B
:100B60001022114319601968624611401960196812
:100B7000B943196019685246914319601A68AA432B
:100B80002A431A601A6816401E601A6810401860DE
:100B9000184BC72189005A58174802405A508022E2
:100BA00092051A6096239B01089309940A940B946A
:100BB0000C230C930D9408A9104800F051FA0EB0C4
:100BC000E0BCBA46B146A846F0BDC046001002409F
:100BD000A8000240FFF0FFFF30000240EFBFFFFF20
:100BE000FFCFFFFFFFFCFFFFFFF3FFFFFF0FFFFF44
:100BF0004400024000E100E0FF00FFFF0048004029
:100C000070B586B00C22002103A802F0E1F801AC17
:100C100008220021200002F0DBF800250095124A8E
:100C2000116D8023DB020B4313657F230493803314
:100C300005930E4E03A9300000F084FA257165710A
:100C4000A57122000121300000F0FCFA05236A465C
:100C500013705370043B93701333D3700121300031
:100C600000F068FB06B070BD001002400028004094
:100C70007047FEE7704770477047000010B5064B9D
:100C80005B695B0700D410BD034B04225A6101204D
:100C900001F0F0FFF7E7C0460004014070477047DD
:100CA00010B501F021FA10BD704770477047F0B5DC
:100CB000002216E0C6682B006B435F00FF18FC4360
:100CC000A446BE430F695F433E43C6604C68022C96
:100CD00027D0046865462C404D686B43234303606E
:100CE00001320C682300D34037D001239340250004
:100CF0001D401C42F4D04B68013B012BDAD88368BD
:100D00002C006C4366003619B3438E68744323434A
:100D100083600C684368A343CE68744323434360F5
:100D2000C8E7FF2D0BD8066A1C006C4365432C01F5
:100D3000641BA6434C69654335430562C9E7466AAF
:100D40002D0A2C006C436C4365432C01641BA643A5
:100D50004C69654335434562BBE70020F0BD0000A8
:100D600030B502680124A24302600368174A1340A9
:100D7000CA6812028D682A43134303604B680361FB
:100D80000368234303608368114A134083608368C8
:100D9000DB0ADB020A698C692243134383600B6917
:100DA000002B04D0826880231B02134383600368F6
:100DB000084A13400A68134303604B6942680449B8
:100DC0000A4013434360002030BDC046FFE0FFFFF0
:100DD000FF7FFFFFFFFFCFFF044BDA6812090F23ED
:100DE0001340034AD35CD8407047C046001002400D
:100DF000642E0008044BDA68120A07231340034AE2
:100E0000D35CD8407047C04600100240742E0008E2
:100E100010B50E4BDB68DB0305D40C4B1B68DB06FF
:100E200012D50B4800E00B480849CA68920C0F2302
:100E30001340094AD35C5843CB689B0D03211940EA
:100E40000131FFF769F910BD0448EDE700100240D9
:100E500000093D0000127A007C2E00080024F400F6
:100E600010B5174BDA680C231340082B23D009D890
:100E7000002B0CD0042B14D1114B1B68DB061CD5A6
:100E800010480DE00C2B0CD1FFF7C2FF08E00C4B13
:100E90005A68520B07231340013380200002984008
:100EA00010BD074B5A68520B0723134001338020B3
:100EB00000029840F4E70448F2E70448F0E7C0462F
:100EC0000010024000093D0000127A000024F400E6
:100ED00010B5194BDB6C184080231B01984211D0D0
:100EE000C0231B0198421AD08023DB00984206D011
:100EF000FFF7B6FFFFF770FFFFF77CFF01E0FFF79A
:100F0000AFFF10BD0C4B1B680422100018401A42A2
:100F1000F7D0094B1B68DB060CD40848F1E7064BF9
:100F20001A6D80239B00100018401A42E9D08020DF
:100F30000002E6E70248E4E7001002400024F40063
:100F400000093D0010B5FA218900FFF7E5F80138E6
:100F5000034B586000229A6005321A6010BDC046EB
:100F600010E000E082B0084B1B680193019B431C1A
:100F700000D00130002805D0034B1B68DB03F9D5F6
:100F80000138F7E702B0704710E000E0014B18604D
:100F90007047C0460000002010B50300007900280B
:100FA00050D01A68002A57D05879012818D0022842
:100FB00020D000280BD001209A79002A4BD0022A99
:100FC0002CD0032A34D0012A1ED0012043E023492B
:100FD0004C6894434C600A681C6822430A60EBE743
:100FE0001E490868904308604A68186802434A60CE
:100FF0000020E1E71949086802430A604A68186856
:1010000002434A600020D7E7144AD1681C68A14314
:10101000D1601B6891680B4393601CE00F4A916894
:101020001C68A14391601B68D1680B43D36012E038
:101030000A4A91681C68214391601B68D1680B4380
:10104000D36008E0054A11681C68A1431160196863
:1010500053688B43536010BD0020FCE7000401403F
:10106000F8B504000D000368DB072CD40368194AA7
:1010700013404A68C9680A4329690A431343036055
:101080004368154A1340AA68134343608368134AB0
:1010900013406A6913438360C0200001FFF718FF03
:1010A000002812D02A68002A11D0070E0602500824
:1010B0000021801979410023FFF7A4F90003000BF8
:1010C000E060002000E00120F8BD0120FCE70120E5
:1010D000FAE7C046F3E9FFEFFFCFFFFFFFFCFFFF9A
:1010E00010B582B00400FA239B000193C3685B062D
:1010F00023D401235B42C360C3684022110019401E
:101100001A4218D10020019B002B17D0012915D0BD
:101110000B4B1B68DB0302D5019B013B0193E3688A
:101120004022110019401A4200D00121019B002BDE
:10113000E9D10120E7E70121E4E7002002B010BD7A
:1011400010E000E070B504000D00CA234362773B55
:101150004362FFF7C5FF012816D0A36840229343DE
:101160002A681343A3602369DB0BDB03AA681343DC
:1011700023616A68236906490B4012041343236103
:1011800081235B42E3600020FF23636270BDC046A1
:10119000FFFF80FF30B583B00100FA239B0001936D
:1011A000C26880231A40223BFF3B1343C360C368DD
:1011B000202214001C401A4218D10020019B002B51
:1011C00016D0002C14D01E4B1B68DB0302D5019BEC
:1011D000013B0193CB68202215001D401A4200D12B
:1011E0002C00019B002BE9D10120E7E70124E4E773
:1011F000012822D0FA239B000193CB6820221400FF
:101200001C401A4217D1019B002B16D0012C14D080
:101210000B4B1B68DB0302D5019B013B0193CB68A1
:10122000202214001C401A4200D00124019B002BF4
:10123000E9D10120E7E70124E5E703B030BDC0466E
:1012400010E000E0F8B5CE46474680B504000E0039
:101250001500002927D183685B0601D400231360A1
:10126000CA236362773B63622000FFF739FF0128DE
:1012700057D0002E1DD02A6828796979AB790004EF
:10128000024309020A431343226829490A401343CF
:10129000236081235B42E360A3689B0640D4200067
:1012A000FFF778FF3DE083685B06D9D40023136025
:1012B000D6E72B6898462E790A213000FEF72CFFDE
:1012C0000701FFB20A213000FEF7ACFF0F43FFB267
:1012D0006B7999460A211800FEF71EFF0601F6B247
:1012E0000A214846FEF79EFF0E43F6B2AB799946B7
:1012F0000A211800FEF710FF0501EDB20A21484649
:10130000FEF790FF0D43EDB23F0443461F43360204
:101310003E4335432168064B19400D432560B8E72D
:101320000020FF236362C0BCB946B046F8BDC0468A
:10133000808080FFF8B5CE46474680B504000E0099
:101340001500002906D15378DA0603D510229343FD
:101350000A336B70CA236362773B63622000FFF736
:10136000BFFE012853D0002E18D02B78AA786978B8
:10137000E8785B030004034309020B4313436268EC
:1013800026490A401343636081235B42E360A368FC
:101390009B063BD42000FFF7FDFE38E02B789846F3
:1013A000AF780A213800FEF7B7FE0601F6B20A212F
:1013B0003800FEF737FF0E43F6B26B7899460A21E4
:1013C0001800FEF7A9FE0701FFB20A214846FEF702
:1013D00029FF0F43FFB2EB7899460A211800FEF768
:1013E0009BFE0501EDB20A214846FEF71BFF0D43A7
:1013F000EDB2434659032D040D433F023D432E43B6
:101400006568064F3D402E436660BDE70020FF2320
:101410006362C0BCB946B046F8BDC046C00000FF1C
:10142000104B1968802252000A431A60DA680E498C
:101430000A40DA601A680D490A401A609A68012168
:101440008A439A601A680A490A401A60DA680949A8
:101450000A40DA6000221A61074B802212059A6066
:101460007047C046001002400C40FF88F6FFF6FEB1
:10147000FFFFFBFFFFFF02FF00ED00E010B5FFF7ED
:101480003FFA054B1A6801210A431A605968802205
:1014900092040A435A6010BD0054004070B5050024
:1014A0000E002C4B9B691B04FBD42A4B5A68920AF2
:1014B000920230210A435A605A6827490A405A600A
:1014C0005A6826491140802292020A435A6059689C
:1014D000802292010A435A6064241E4B9B69DB07F9
:1014E00007D4013CA4B2002C2ED00220FFF73AFD15
:1014F000F3E7184B9D626424164B9B69DB0707D406
:10150000013CA4B2002C1FD00220FFF72BFDF3E713
:10151000104B9E6264240F4B9B69DB0707D4013C90
:10152000A4B2002C10D00220FFF71CFDF3E76424C6
:10153000084B9B691B040AD5013CA4B2002C03D0C4
:101540000220FFF70FFDF3E7C046002000E0012076
:1015500070BDC04600540040FFFBFFFFFFFF00FFCF
:1015600070B506000C00394B9B691B04FBD4374B4C
:101570005A68920A920230210A435A605A683449E2
:101580000A405A605A6833491140802252020A4385
:101590005A605968802292010A435A6064252B4B95
:1015A0009B69DB0707D4013DADB2002D49D0022075
:1015B000FFF7D8FCF3E7254B9E626425234B9B691C
:1015C0001B0426D4214B5A68920A920230210A4306
:1015D0005A605A681E4911408022D2000A435A605C
:1015E0005A681C491140802252020A435A605968C5
:1015F000802292010A435A606425144B9B695B0761
:101600000FD4013DADB2002D1BD00220FFF7AAFC84
:10161000F3E7013DADB2002D13D00220FFF7A2FC8D
:10162000CCE70A4B5B6A23706424084B9B691B045C
:101630000AD5013CA4B2002C03D00220FFF792FC93
:10164000F3E7C046002000E0012070BD00540040D8
:10165000FFFBFFFFFFFF00FFF8B504000E001700BF
:101660003F4B9B691B04FBD43D4B5A68920A920284
:1016700030210A435A605A683A490A405A605A6807
:1016800039491140802252020A435A605968802227
:1016900092010A435A606425314B9B69DB0707D4EA
:1016A000013DADB2002D4FD00220FFF75BFCF3E708
:1016B0002B4B9C6264242A4B9B691B041AD4284B35
:1016C0005A68920A920230210A435A605A682549A0
:1016D00011408022D2000A435A605A6822490A40C7
:1016E00039040A435A605968802292010A435A60B9
:1016F00000250DE0013CA4B2002C2DD00220FFF704
:1017000031FCD8E7164B5B6A33700135ADB2013658
:10171000BD420CD26424124B9B695B07F2D4013C9E
:10172000A4B2002C11D00220FFF71CFCF3E76424C4
:101730000B4B9B691B0411D5013CA4B2002C04D0B7
:101740000220FFF70FFCF3E7084D2900084800F0DE
:1017500053FFC046002002E0044DF6E70120F8BD2B
:1017600000540040FFFBFFFFFFFF00FFFFFF0000F2
:10177000882E000810B5FFF7F3FE10BD10B5FFF777
:101780008DFE10BD10B5FFF7EDFB10BD00B583B0A9
:101790006B46D91D0020FFF7EDFF002805D06B46F2
:1017A00007331B78FA2B00D0002003B000BD10B522
:1017B000B6211420FFF7E2FF10BD000010B582B083
:1017C00004006B46991D1220FFF7D4FF002801D1B9
:1017D00002B010BD0120FFF7D5FF6B46D91D1120C7
:1017E000FFF7C8FF0028F3D06B46DA1DD9791F2315
:1017F0000B401370052C4AD8A400264A125997466C
:101800006B469A1D9B7940218B4313706B469979E7
:101810001220FFF7B3FF0028DAD00120FFF7B2FF54
:101820006B46D9791120FFF7A9FFD1E74022134376
:101830006A46D3716B4606329B7940218B43137005
:10184000E4E78022524213436A46D3716B46063264
:101850009B7940218B431370D8E7202213436A46BB
:10186000D371D3E740210B436A46D3716B460632EE
:101870009B790B431370C9E78022524213436A4697
:10188000D3716B4606329B7940210B4313700020C5
:101890009EE7C046902E000830B583B004006B462A
:1018A000991D1220FFF766FF002801D103B030BD5B
:1018B0000120FFF767FF6B46D91D1120FFF75AFF84
:1018C0000028F3D06B46DA1DDB791F218B431370A0
:1018D0006A46911D957940222A400A70402B17D004
:1018E00008D8002B0FD0202B02D103232370DDE773
:1018F0000020DBE7802B04D1002A13D102232370C0
:10190000D4E70020D2E7002AD0D100232370CDE70E
:10191000002A02D101232370C8E7402A07D10423FB
:101920002370C3E7402A04D105232370BEE70020BB
:10193000BCE70020BAE710B582B004006B46D91DA1
:101940001120FFF717FF002801D102B010BD6B4630
:10195000D9791E229143D9712143D9711120FFF702
:101960000DFFF2E710B582B004006B46D91D1120BF
:10197000FFF700FF002806D06B46DA1DD9791E2339
:101980000B401370237002B010BD10B582B004007C
:101990006B46D91D1220FFF7EDFE00280CD0002C5D
:1019A0000CD16B46DA1DDB7920218B4313706B461B
:1019B000D9791220FFF7E2FE02B010BD6B46DA1DA6
:1019C000DB7920210B431370F1E710B582B00400DE
:1019D0006B46D91D1220FFF7CDFE002806D06B46BE
:1019E00007331B789B0603D50123237002B010BD7B
:1019F00000232370FAE770B582B004000D001600D2
:101A00006B46991D0220FFF7B5FE002801D102B0F8
:101A100070BD6B46D91D0320FFF7ACFE0028F6D041
:101A20006B4607229A5612026B46991D0B780F20BF
:101A3000834313431B1123800B38FFF79BFE0028C1
:101A4000E5D06B46D91D0520FFF794FE0028DED0B7
:101A50006B4607229A5612026B46991D0B780F208F
:101A6000834313431B112B800938FFF783FE0028A3
:101A7000CDD06B46D91D0720FFF77CFE0028C6D0CD
:101A80006B4607229A5612026B4606331B780F21CB
:101A90008B4313431B113380B9E710B503280FD0D4
:101AA0000AD801280ED0022804D105210F20FFF703
:101AB00065FE10BD0020FCE7042805D10C21F5E7E8
:101AC0000821F3E70321F1E70020F2E710B582B027
:101AD00004006B46D91D0F20FFF74CFE002816D0DE
:101AE0006B46DA1DD9790F230B401370082B10D0E9
:101AF00006D8032B09D0052B0ED10223237006E054
:101B00000C2B09D10423237001E00123237002B0C0
:101B100010BD03232370FAE700232370F7E70000CA
:101B200010B582B06A46074B12CB12C2072802D901
:101B3000002002B010BD6B46195C1020FFF71EFE9E
:101B4000F7E7C046A82E000810B582B004006B4627
:101B5000D91D1020FFF70EFE002807D06B46DA1DB6
:101B6000D9790F230B401370083B237002B010BDCE
:101B700010B580010143C9B23E20FFF7FFFD10BD43
:101B800030B583B005000C006B46D91D00230B70E7
:101B90003E20FFF7EFFD002806D06B46DA79930967
:101BA0002B7002231340237003B030BD10B50A0020
:101BB00001003F20FFF750FD10BD10B501002028A7
:101BC00001D9002010BD3020FFF7D8FDFAE710B58D
:101BD00001003020FFF7CEFD10BD10B50F2901D94F
:101BE000002010BDC0010143C9B22120FFF7C6FD8E
:101BF000F7E710B501002120FFF7BCFD10BD00B5CF
:101C000083B06B46D91D2120FFF7B4FD002801D118
:101C100003B000BD6B46DA79802149421143C9B255
:101C2000D9712120FFF7AAFDF2E730B583B0040097
:101C30000D006B46D91D00230B702020FFF79AFD85
:101C400000280FD0012C17D8002C0DD16B46D97964
:101C500003229143D9712943D9716B46D979202048
:101C6000FFF78CFD03B030BD6B46D9790C22914350
:101C7000D9712943D971F0E70020F3E730B583B07B
:101C800005000C006B46D91D2020FFF773FD0028CE
:101C900008D06B4607331B782370002D04D1032234
:101CA0001340237003B030BD0C2213402370F9E7BA
:101CB00070B58AB005000C0001A9254B0A0043CB82
:101CC00043C243CB43C243CB43C2002C23D06B005F
:101CD00001AA9C5C6B46D91C2000FFF74BFD002835
:101CE00005D10024631E9C41E0B20AB070BD6D00B6
:101CF00001AB9C4665446B78012199400B006A4614
:101D0000D1781943C9B2D1702000FFF737FD002800
:101D1000E7D00124E6E76B0001AA9E5C6B46D91C64
:101D20003000FFF727FD0028DCD06D0001AB9C469A
:101D300065446A78012393406A46D1789943D1700B
:101D40003000FFF71BFD0028CCD00124CAE7C046B5
:101D5000F82D000870B58AB005000C0001A9254BCC
:101D600048330A0043CB43C243CB43C243CB43C2B5
:101D7000002C23D06B0001AA9C5C6B46D91C200070
:101D8000FFF7F8FC002805D10024631E9C41E0B257
:101D90000AB070BD6D0001AB9C4665446B780121B3
:101DA00099400B006A46D1781943C9B2D17020001E
:101DB000FFF7E4FC0028E7D00124E6E76B0001AA66
:101DC0009E5C6B46D91C3000FFF7D4FC0028DCD0A9
:101DD0006D0001AB9C4665446A78012393406A46D6
:101DE000D1789943D1703000FFF7C8FC0028CCD0DF
:101DF0000124CAE7F82D000870B584B00A20FFF767
:101E0000C1FCFFF7D4FC002800D18DE00A20FFF7C9
:101E1000B9FCFFF7BBFC002800D089E0974800F030
:101E2000EBFB00240020FFF7C9FC0120FFF7AAFC10
:101E30000E256D442800FFF72FFD2B78002B03D0D3
:101E40000134A4B2092CEDD9092C75D80025002441
:101E50000620FFF765FE0120FFF794FC0D266E4477
:101E60003000FFF771FE3378062B03D00134A4B2A3
:101E7000092CEDD9092C01D90135EDB2002401213D
:101E80000020FFF7D2FE0120FFF77CFC03AE3100FB
:101E90000020FFF7F3FE3378012B03D00134A4B206
:101EA000092CECD9092C01D90135EDB20024FFF73A
:101EB000A6FE002803D10134A4B2092CF7D9092CBD
:101EC00001D90135EDB200240B210120FFF785FE79
:101ED0000120FFF757FC0B266E443000FFF789FE08
:101EE00033780B2B03D00134A4B2092CECD9092C84
:101EF00001D90135EDB200240120FFF7CEFD01200C
:101F0000FFF740FC0A266E443000FFF7DFFD337810
:101F1000012B03D00134A4B2092CEDD9092C01D92D
:101F20000135EDB200240DE0554800F065FB6DE78A
:101F3000544800F061FB74E7012588E70134A4B23E
:101F4000092C13D800210220FFF712FE0120FFF711
:101F500019FC09266E4402A93000FFF711FE337800
:101F6000022BEBD102AB1B78002BE7D1092C01D956
:101F70000135EDB200241020FFF71FFE0120FFF70E
:101F800001FC0F266E443000FFF721FE3378102B42
:101F900003D00134A4B2092CEDD9092C01D90135A3
:101FA000EDB2002401210720FFF7D4FE002803D161
:101FB0000134A4B2092CF5D9092C01D90135EDB2AF
:101FC000002401210720FFF773FE002803D101340C
:101FD000A4B2092CF5D9092C01D90135EDB20024A0
:101FE0001620FFF7A8FC0120FFF7CCFB6B46DE1D97
:101FF0003000FFF7B7FC3378162B03D00134A4B2BE
:10200000092CEDD9092C01D90135EDB200240120AC
:10201000FFF7BBFC0120FFF7B5FB0F266E44300035
:10202000FFF7D3FC3378012B03D00134A4B2092C81
:10203000EDD9092C01D90135EDB200240120FFF7BB
:10204000BDFB0120FFF79EFB6B469E1D3000FFF796
:1020500023FC3378012B03D00134A4B2092CEDD931
:10206000092C01D90135EDB22900074800F0C4FA66
:102070006B1E9D41E8B204B070BDC046D02E000872
:10208000B42E0008E42E0008F82E000810B5FFF763
:10209000F5F9FFF7B1FE012803D0044800F0ACFACF
:1020A00010BD034800F0A8FAFAE7C046242F000844
:1020B0000C2F00080A4B9A6802210A439A601A6999
:1020C00001390A431A619A69120C120405490A433C
:1020D0009A611A6906218A4302390A431A617047D4
:1020E000007C0040FF030000274B1B689B0749D57D
:1020F000254A536802210B4353600123234A13707E
:10210000234A1370234A13780133DBB21370072B71
:1021100005D9130000221A701F4B01321A701F4A92
:1021200013780133DBB213700F2B11D91300002287
:102130001A701B4B01321A70A021C90548690304AB
:1021400080229204134080229200824313438B61C9
:10215000144A13780133DBB213701F2B05D9130017
:1021600000221A70104B01321A70104A1378013392
:10217000DBB213703F2B05D9130000221A700C4BF1
:1021800001321A707047C046007C004027000020D2
:102190002800002020000020250000202100002031
:1021A000290000202200002024000020230000201D
:1021B00026000020014B18787047C04627000020F9
:1021C000014B18707047C04627000020014B187063
:1021D0007047C04624000020014B18787047C04665
:1021E0002400002010B5FEF70BFBFEF789FBFEF77D
:1021F00049FCFEF705FDFEF701FCFFF75BFF00F071
:10220000A3F900F0D1F910BD10B50400002007E0DB
:1022100083001B185B004A1C2260087818183038AD
:1022200021680A78303AD2B2092AF1D910BD0000EB
:10223000F0B5DE4657464E464546E0B595B005003A
:102240000C0016009946209B5A0615D44D4A934619
:102250004A46023A222A00D98CE001221100194094
:1022600088461A420BD02F3292469B0711D5002E7A
:1022700008DB002301930EE0434A9346E8E720225F
:102280009246F2E776421E9B013B1E932D2301935B
:1022900001E000230193002E35D103AB30221A70E8
:1022A00001271F9B9F4200DD1F971E9B1F9A9B1AB1
:1022B0004246002A29D0019A002A05D0681C2A70BB
:1022C000013C002C57D005001A00013B002A28DDF4
:1022D000681C52462A70013C002C4CD00500F3E7E4
:1022E00049463000FDF79EFF7B1C00935A46525C26
:1022F00003ABDA5549463000FDF70EFF0600009F9C
:10230000002EEDD1CDE70027FAE71A00013B002AA5
:10231000D1DD681C20222A70013C002C2BD0050046
:10232000F3E71F9A110001391F91BA4207DD681CBB
:1023300030222A70013C002C1DD00500F1E73A0044
:10234000013F002A08DD681C03AAD25D2A70013C07
:10235000002C10D00500F2E71A00013B002A07DD2F
:10236000681C20222A70013C002C04D00500F3E7F1
:10237000280000E0002015B0F0BCBB46B246A946DC
:10238000A046F0BD642F00083C2F0008F0B5CE46F3
:10239000474680B587B006000F1E0592049300DC07
:1023A000B2E0040004E022700134059B0133059380
:1023B00005990A78002A04D1A31B781E834200DA0B
:1023C0009AE0A31B781E8046834200DB94E0252A16
:1023D000E9D14B1C05934B78302B12D0002291464B
:1023E000303BDBB2092B0FD901256D42059B1A78D2
:1023F0001300583BD9B220295ED88B004349CB58F3
:102400009F4601229146EBE705A8FFF7FDFE050078
:10241000ECE70A2335E020221A700133013D002D3C
:10242000F9DC049A111D04915C1C12781A70BCE747
:102430002300F3E7049B1A1D04921B689846002BA7
:1024400003D04046FDF760FE06E0314B9846F8E7C2
:10245000202222701D0001346B1E8542F8DC00230F
:1024600007E0424612782270013301229446E0448C
:1024700001348342F5DB98E740234A461A439146EC
:10248000303B4A46920732D5049A111D04911268D6
:10249000A11B4046411A484602900120404201904B
:1024A00000952000FFF7C4FE04007EE702234A46A1
:1024B0001A4391460833E4E7252A02D025232370E6
:1024C0000134A31B984510DD059B1A78002A07D01C
:1024D00022700134A31B984500DD66E70A23D0E78C
:1024E000013B0593F6E71023CBE70A23C9E7049ADB
:1024F000111D04911268CBE700232370A01B07B0C5
:10250000C0BCB946B046F0BD0020F8E7942F0008E3
:102510008C2F000810B50300080000E0013383424F
:102520000ADA074A40241462064CE45C9462044AC6
:10253000D2695206FBD5F1E7014B40221A6210BD69
:10254000004800402C00002010B5EFF3108001215E
:1025500081F31088124B1A68022422431A6080F318
:1025600010889A680F4810408022920302439A60B4
:10257000EFF3108081F310889C688022D2032243FD
:102580009A6080F310881A680A431A60044BDB696A
:102590009B02FBD5024BDB695B02FBD510BDC0463D
:1025A00000480040FFFFCFFF30B5114A82239B0057
:1025B000D35C012B1BD01400822080000122225406
:1025C000EFF3108C82F310880A4B1D6880214900BC
:1025D000294319608CF31088EFF3108C82F3108874
:1025E00099680A439A608CF310880023235430BD05
:1025F0002C000020004800400FB430B583B006AB7B
:1026000004CB019372B6214B1B889BB2002B19D0CF
:102610001E4B1B889BB2802149008B4205D162B6BC
:1026200003B030BC08BC04B01847184D2B889CB2CE
:10263000C91A1748C018019BFFF7A8FE2418A4B2B6
:102640002C80ECE78021019B49001148FFF79EFE9A
:1026500080B20E4B18801C88A4B262B6002506E03A
:102660000A4B1C88A4B2050062B68442D8D021006F
:102670002800FFF74FFF72B6044B1B889BB28342C2
:10268000EED1024B00221A80EEE7C0462A0000205D
:102690002C000020F8B5002700240CE0661C0C4D2F
:1026A000C3001B189A1992001B199B0054595C51C6
:1026B0005359FF18F4B2072CF0D9C3001818800042
:1026C000034B1818016278180921FDF7AFFDF8BD1A
:1026D000E402002010B504000068012301E001338A
:1026E000DBB28B4205D29A0012598242F7DD10000C
:1026F000F5E710BD10B504000068012301E00133C7
:10270000DBB28B4205D29A0012598242F7DA1000EE
:10271000F5E710BDF0B5C64600B5344B5F681F60E5
:102720009C685C60DD689D601E69DE6080461861A3
:10273000A74205DAAC4203DAB54201DD864205DC88
:10274000A74242D0B54207DA464505DD05212748B4
:10275000FFF7C0FF264B1860A74205DDAC4203DD42
:10276000B54201DA464505DDA74235D0B54228DD40
:10277000464526DA05211D48FFF7BCFF1C4B986132
:102780001B68181A1B4B1A881B4B1B68D31AC83BB3
:10279000E121C9008B4212D8232810D9144B596A61
:1027A00001315962196B01311963586B9B6B83427C
:1027B00000D20300994216D20D490B63CB630E4B36
:1027C0001A60002080BCB846F0BDAC42BADDB5420C
:1027D000B8DD4645BADCB5E7AC42C7DAB542C5DA82
:1027E0004645C7DDC2E7024BD963E8E76403002032
:1027F0003C0200205203002060030020F0B5C646D2
:1028000000B5344B5F681F609C685C60DD689D604C
:102810001E69DE6080461861A74205DAAC4203DA21
:10282000B54201DD864205DCA74242D0B54207DA57
:10283000464505DD05212748FFF74CFF264B58602C
:10284000A74205DDAC4203DDB54201DA464505DDB0
:10285000A74235D0B54228DD464526DA05211D4878
:10286000FFF748FF1C4BD8615B68181A1B4B1A888E
:102870001B4B1B68D31AC83BE121C9008B4212D8FD
:10288000232810D9144B996A01319962596B01318F
:102890005963186B9B6B834200D20300994216D296
:1028A0000D494B63CB630E4B1A60002080BCB846C9
:1028B000F0BDAC42BADDB542B8DD4645BADCB5E79D
:1028C000AC42C7DAB542C5DA4645C7DDC2E7024BBE
:1028D000D963E8E7780300203C020020520300207F
:1028E0005C030020F0B5C64600B5344B5F681F603E
:1028F0009C685C60DD689D601E69DE6080461861D2
:10290000A74205DAAC4203DAB54201DD864205DCB6
:10291000A74242D0B54207DA464505DD05212748E2
:10292000FFF7D8FE264B9860A74205DDAC4203DDD9
:10293000B54201DA464505DDA74235D0B54228DD6E
:10294000464526DA05211D48FFF7D4FE1C4B1862C8
:102950009B68181A1B4B1A881B4B1B68D31AC83B61
:10296000E121C9008B4212D8232810D9144BD96A0F
:102970000131D962996B01319963586B1B6B8342AA
:1029800000D20300994216D20D498B63CB630E4BE4
:102990001A60002080BCB846F0BDAC42BADDB5423A
:1029A000B8DD4645BADCB5E7AC42C7DAB542C5DAB0
:1029B0004645C7DDC2E7024BD963E8E78C03002038
:1029C0003C020020520300205803002010B50400F0
:1029D000018880239B009C46614409B20020FFF7D8
:1029E00059FE00B2FFF796FE618880239B009C464B
:1029F000614409B20120FFF74DFE00B2FFF7FEFE71
:102A0000A18880239B009C46614409B20220FFF705
:102A100041FE00B2FFF766FF024A138819331380A4
:102A2000002010BD5203002070B5002439E01E4D77
:102A300063001B1958002818FFF7C8FF621C5300D9
:102A40009B1858002818FFF7C1FFA21C53009B18C1
:102A500058002818FFF7BAFFE21C53009B185800D3
:102A60002818FFF7B3FF221D53009B1858002818A1
:102A7000FFF7ACFF621D53009B1858002818FFF7A2
:102A8000A5FFA21D53009B1858002818FFF79EFFB2
:102A9000E21D53009B1858002818FFF797FF0834D1
:102AA000E4B20F2CC3D970BD8002002010B5002104
:102AB0000CE0CB005B189B189B00074800241C50BF
:102AC0000132D2B2082AF4D90131C9B2022901D89F
:102AD0000022F7E710BDC046E402002070B5602177
:102AE0001A48FFF763F8002801D000222AE01848AE
:102AF000FFF782FD28E0154C500083185B00E318B7
:102B000001269E57360219783F25A943314386187E
:102B100076003153861876008911315303269E576B
:102B200036029978A9433143598089115980052685
:102B30009E5736021979A9433143998089119980AA
:102B40000132D2B20F2AD6D970BDC0468002002011
:102B50001830000810B51E4B1B78002B1ED11D4BE2
:102B6000DA6B1B6CD31A092B06D9194B01221A7088
:102B7000194B00221A7016E0184B1B689A4212D0AB
:102B8000164B1A60144B30221A70154B1B69DB0769
:102B900009D4FDF733FFFFF78DFA04E00D4B1A6CF3
:102BA000D96B8A4201D1C04610BD19640D4B196022
:102BB0000D48FFF721FD084B46221A70084B1B6990
:102BC000DB07F0D4FDF71AFFFFF774FAEBE7C04616
:102BD000540300203C02002055030020380200204E
:102BE000007C0040E00200203C30000810B5084B9B
:102BF0001B78002B00D110BD054B00221A70FFF787
:102C00006DFFFFF711FFFFF7A5FFFEF7F8FFF2E7F3
:102C10005003002010B5FFF7CDFA002800D110BDF9
:102C20000020FFF7CDFA104B1B78002BF7D0013BAB
:102C3000DBB20D4A1370002BF1D10C4A106CD0633B
:102C40000BE00A491A00083292008A1850601A00F4
:102C50000C32920050500133DBB2022BF1D9044BFD
:102C600000221A70DBE7C046550300203C0200201A
:102C700054030020014B18707047C04650030020D9
:102C800010B544220021054800F0A2F806220021D8
:102C9000034800F09DF8FFF709FF10BD3C0200203B
:102CA0008002002010B5FFF7A1FFFFF7B3FF10BDB2
:102CB00000B583B0FFF790FA002801D103B000BD42
:102CC0000020FFF783FA6B469A1C01A9981DFEF7B6
:102CD00092FE00280ED06B46023300229B5E01AAB2
:102CE0000021525E694606310020095E0348FFF765
:102CF00083FCE3E70248FFF77FFCDFE74C30000886
:102D0000603000081348854613480168090E134ACD
:102D1000914205D1124813490160134813490160DB
:102D200013481449144A002302E0D458C450043311
:102D3000C4188C42F9D3114A114C002301E01360EE
:102D40000432A242FBD3FEF76BFB00F01DF8FDF747
:102D500033FDFEE700080020040000001F00000013
:102D6000341002400100000000000140000000009B
:102D7000000000200400002088300008040000202B
:102D8000A0030020FEE7000070B500260C4D0D4C9E
:102D9000641BA410A64209D1002600F021F80A4DB8
:102DA0000A4C641BA410A64205D170BDB300EB58B9
:102DB00098470136EEE7B300EB5898470136F2E743
:102DC000803000088030000880300008843000081F
:102DD00003008218934200D1704719700133F9E75C
:102DE000F8B5C046F8BC08BC9E467047F8B5C0466A
:082DF000F8BC08BC9E467047C8
:102DF80019071906190519041902190219021A01E5
:102E08001A021A00190019011901190119031903E5
:102E1800190319031B071B061B051B041B021B02B6
:102E28001B021A061A051A071B001B011B011B01AE
:102E38001B031B031B031B031607160616051604A4
:102E480016001601160217061705170417031700B0
:102E580017011702180318001801180200000000D3
:102E68000000000001020304060708090000000032
:102E780001020304030406080C10182030000000A7
:102E8800693A25640D0A0000001800082C1800088B
:102E9800421800085A180008641800087818000832
:102EA80008090A0B0C0D0E0F00000000626D61325C
:102EB800353320736F66742072657365742065728C
:102EC800726F72210D0A00006163632070726F6275
:102ED800652066616C7365210D0A000061636320DB
:102EE80070726F62652074727565210D0A000000AA
:102EF8006572726F725F636F756E743A25640D0A3E
:102F080000000000626D6132353320696E697420FB
:102F18006572726F72210D0A00000000626D6132E5
:102F2800353320696E697420737563636573732123
:102F38000D0A0000303132333435363738394142E2
:102F4800434445464748494A4B4C4D4E4F505152D1
:102F5800535455565758595A0000000030313233EF
:102F68003435363738396162636465666768696A1B
:102F78006B6C6D6E6F707172737475767778797A21
:102F8800000000003C4E554C4C3E000078240008E0
:102F9800B8240008B8240008B8240008B824000899
:102FA800B8240008B8240008B8240008B824000889
:102FB800B8240008B824000830240008AC2400080D
:102FC800B8240008B8240008B8240008B824000869
:102FD800AC240008B8240008B8240008B824000865
:102FE800B8240008B8240008B8240008B824000849
:102FF800B8240008B824000834240008B8240008BD
:1030080012240008B8240008B8240008E6240008A0
:103018007265616420616363656C65726F6D657468
:103028006572206669666F206572726F72210D0A7B
:10303800000000005065646F6D657465723A256420
:103048000A000000783A25642C20793A25642C205F
:103058007A3A25640D0A0000626D613235332072B8
:103068006561642066616C7365210D0A00000000CB
:08307800CCD3FF7F0100000032
:04308000E90000085B
:04308400C10000087F
:043088000000200024
:0400000508002D05BD
:00000001FF
