:020000040800F2
:10000000F00500209D010008411B0008050F0008B5
:1000100000000000000000000000000000000000E0
:10002000000000000000000000000000F51C0008B7
:100030000000000000000000431B00088D1D0008A8
:10004000CD01000800000000CD010008CD0100082E
:10005000CD010008CD010008950E0008CD01000873
:1000600000000000CD010008910E0008930E00086A
:10007000CD010008FD16000800000000CD010008B9
:100080000000000000000000000000000000000070
:10009000CD0100080000000000000000070F00086C
:1000A000000000007D1C00080000000000000000AF
:1000B000CD0100087D1700080000000000000000CE
:1000C00000F002F800F03EF80CA030C80838241800
:1000D0002D18A246671EAB4654465D46AC4201D180
:1000E00000F030F87E460F3E0FCCB6460126334274
:1000F00000D0FB1AA246AB463343184758290000EC
:1001000078290000103A02D378C878C1FAD852078B
:1001100001D330C830C101D504680C6070470000BD
:100120000023002400250026103A01D378C1FBD813
:10013000520700D330C100D50B6070471FB51FBDFB
:1001400010B510BD00F0D8F91146FFF7F7FF02F027
:1001500099FA00F0F0F903B4FFF7F2FF03BC00F0E6
:10016000F7F9000070B505460C46164602E00FCCC4
:100170000FC5103E102EFAD2082E02D303CC03C5B1
:10018000083E042E07D301CC01C5361F03E02178B9
:100190002970641C6D1C761EF9D270BD0F4880F367
:1001A00008880F480168090E0E4A914205D10E4891
:1001B0000E4901600E480F4901600F4880470F4803
:1001C0000047FEE7FEE7FEE7FEE7FEE7FEE700008A
:1001D0000B480C490C4A0D4B70470000F0050020FD
:1001E000040000001F000000341002400100000065
:1001F0000000014000000000C51E0008C10000080A
:10020000F0030020F0050020F0040020F00400209E
:10021000FEB5054610460C46184373D0AE468C46D4
:100220000020AD1A01469C4167D366460027012491
:100230003D46B61A9D4102D313463A4621246546EF
:1002400076462F04360C3E432D0CB61A9D4104D33E
:10025000150C1B042B4312041034654676462F06FA
:10026000360A3E432D0AB61A9D4104D3150E1B02D1
:100270002B4312020834654676462F0736093E4363
:100280002D09B61A9D4104D3150F1B012B431201F2
:10029000241D65467646AF07B6083E43AD08B61A3C
:1002A0009D4104D3950F9B002B439200A41C6546EF
:1002B0007646EF0776083E436D08B61A9D411AD37D
:1002C00092185B41641C16E0001876466546494169
:1002D000B71A9D410191009009D36046B11A984127
:1002E0008E468446009801990025401C6941DD072F
:1002F00052082A435B08641EE6D57246634603B083
:10030000F0BDFFE700200146C046C0462A4623460E
:10031000F5E7000030B5441C03E00178401C0029DB
:100320000DD08107F9D10B4BDD0104C8D11A9143DF
:100330002940FAD0001B0A0603D0C01E30BD001BA6
:1003400030BD0A0401D0801E30BD0902FCD0401E21
:1003500030BD00000101010101E004C0091F0429B2
:10036000FBD28B0701D50280801CC90700D0027028
:10037000704700290BD0C30702D00270401C491EF1
:10038000022904D3830702D50280801C891EE3E77B
:100390000022EEE70022DFE7002203098B422CD384
:1003A000030A8B4211D300239C464EE003460B43C5
:1003B0003CD4002243088B4231D303098B421CD327
:1003C000030A8B4201D394463FE0C3098B4201D319
:1003D000CB01C01A524183098B4201D38B01C01A51
:1003E000524143098B4201D34B01C01A52410309C8
:1003F0008B4201D30B01C01A5241C3088B4201D377
:10040000CB00C01A524183088B4201D38B00C01A23
:10041000524143088B4201D34B00C01A5241411A4A
:1004200000D201465241104670475DE0CA0F00D02D
:100430004942031000D34042534000229C46030926
:100440008B422DD3030A8B4212D3FC22890112BAAC
:10045000030A8B420CD3890192118B4208D3890184
:1004600092118B4204D389013AD0921100E089099C
:10047000C3098B4201D3CB01C01A524183098B427D
:1004800001D38B01C01A524143098B4201D34B0166
:10049000C01A524103098B4201D30B01C01A5241C9
:1004A000C3088B4201D3CB00C01A524183088B4250
:1004B00001D38B00C01A5241D9D243088B4201D3D9
:1004C0004B00C01A5241411A00D2014663465241C4
:1004D0005B10104601D34042002B00D549427047C3
:1004E00063465B1000D3404201B50020C046C046C1
:1004F00002BD704770477047754600F025F8AE465C
:10050000050069465346C008C000854618B020B5AE
:10051000FFF75EFE60BC00274908B6460026C0C54E
:10052000C0C5C0C5C0C5C0C5C0C5C0C5C0C5403DAB
:1005300049008D46704710B50446C046C046204667
:10054000FFF709FE10BD000000487047900300202F
:1005500001491820ABBEFEE72600020070470000EC
:100560000EB500F0C3FC002813D0002001F0C4FB3E
:1005700002AA01A9684601F042FD00280AD0684697
:10058000082304220021C35E825E415E03A002F0C4
:1005900097F90EBD06A002F093F90EBD783A2564D6
:1005A0002C20793A25642C207A3A25640D0A000023
:1005B000626D6132353320726561642066616C73EF
:1005C00065210D0A0000000070B50023094C2425A8
:1005D00068431A460019950044196468521CE318D0
:1005E000D2B24451082AF6D3016258180921FFF704
:1005F000DDFE70BD2403002070B5144E00250620DA
:1006000068438419204601F083FBA01D01F080FBA4
:1006100020460C3001F07CFB2046123001F078FBC4
:100620002046183001F074FB20461E3001F070FBAC
:100630002046243001F06CFB20462A3001F068FB94
:100640000835EDB2102DDAD370BD0000C4020020D1
:1006500010B501F0F5F80548016801221143016069
:10066000416852061143416010BD00000054004033
:1006700010B5FFF7EDFF00F00FF9012803D003A03C
:1006800002F01EF910BD07A0FAE70000626D6132AA
:10069000353320696E6974207375636365737321E4
:1006A0000D0A0000626D6132353320696E69742075
:1006B0006572726F72210D0A00000000F3B5344CB0
:1006C00081B00646A0690004C00FFBD161683020EC
:1006D000890A8902014361600021204600F061FD22
:1006E0000121204600F064FD606801256D03284368
:1006F0006060642706E07F1E3F043F0C45D0022067
:1007000000F0D2FFA069C007C00FF4D0A662642633
:1007100006E0761E3604360C37D0022000F0C4FF07
:10072000A0690004C00FF4D161683020890A8902F1
:100730000143616001218902204600F032FD012160
:10074000204600F035FD606828436060642506E0BF
:100750006D1E2D042D0C18D0022000F0A5FFA069FD
:100760004007C00FF4D0606A02996425087006E063
:100770006D1E2D042D0C08D0022000F095FFA069FD
:100780000004C00FF4D10120FEBD00BF0020FEBD5B
:1007900000540040F7B53C4E3C4C1546A06900049F
:1007A000C00FFBD161683020890A89020143616072
:1007B0000021204600F0F5FC0121204600F0F8FC65
:1007C00060680121490308436060642706E07F1EDA
:1007D0003F043F0C51D0022000F066FFA069C00723
:1007E000C00FF4D00098A062642706E07F1E3F048B
:1007F0003F0C42D0022000F057FFA0690004C00F58
:10080000F4D161683020890A8902014361600121C5
:100810008902204600F0C5FC2946204600F0C8FCAD
:1008200060680121490308436060002614E06427E2
:1008300006E07F1E3F043F0C1FD0022000F034FF73
:10084000A0694007C00FF4D0606A01990870019850
:10085000401C761CB6B20190AE42E8D3642506E097
:100860006D1E2D042D0C08D0022000F01DFFA06984
:100870000004C00FF4D10120FEBD314604A002F0F7
:100880001FF800BF0020FEBDFFFF00000054004025
:10089000693A25640D0A000030B500248BB0254666
:1008A0000A2000F001FF01F059FE0A2000F0FCFED2
:1008B00001F0BEFD002814D092A002F001F8002043
:1008C00001F063FD012000F0EFFE01A801F01FFD23
:1008D00068460079002806D06D1CADB20A2DEED313
:1008E00003E08DA0E9E70A2D00D3641C0025062053
:1008F00001F018FC012000F0D7FE02A801F001FC75
:100900006846007A062804D06D1CADB20A2DEED3DD
:1009100001E00A2D00D3641C00250121002001F014
:10092000BBFC012000F0C0FE03A9002001F0D8FCB0
:100930006846007B012804D06D1CADB20A2DECD3B3
:1009400001E00A2D00D3641C002501F0BBFD002846
:1009500016D00A2D00D3641C00250B21012001F0C4
:100960008CFC012000F0A0FE04A801F07DFC68468C
:10097000007C0B2809D06D1CADB20A2DEDD306E02A
:100980006D1CADB20A2DE0D3E5E70A2D00D3641C3F
:100990000025012001F07CFD012000F085FE05A866
:1009A00001F055FD6846007D012804D06D1CADB2F4
:1009B0000A2DEED301E00A2D00D3641C002500218E
:1009C000022001F07DFB012000F06EFE07A906A8C1
:1009D00001F060FB6846007E022803D16846007F74
:1009E000002804D06D1CADB20A2DE8D301E00A2D19
:1009F00000D3641C0025102001F076FB012000F0DC
:100A000053FE684601F067FB68460078102804D062
:100A10006D1CADB20A2DEED301E00A2D01D3641C8A
:100A2000E4B200250121072001F0B6FB002821D007
:100A30000A2D01D3641CE4B200250121072001F036
:100A4000DFFB00281BD00A2D01D3641CE4B2002573
:100A5000162001F04DFD012000F026FE08A801F04F
:100A600077FB08A8007816280ED06D1CADB20A2DB1
:100A7000EED30BE06D1CADB20A2DD3D3DAE76D1CBB
:100A8000ADB20A2DD9D3E0E70A2D01D3641CE4B23C
:100A90000025012001F044FD012000F005FE68461C
:100AA00001F067FB68460078012804D06D1CADB2E8
:100AB0000A2DEED301E00A2D01D3641CE4B2002517
:100AC000012001F062FC012000F0EEFD09A801F018
:100AD0001EFC08A80079012804D06D1CADB20A2DB7
:100AE000EED301E00A2D01D3641CE4B221460FA02D
:100AF00001F0E6FE002C02D001200BB030BD00203A
:100B0000FBE700006163632070726F62652074729E
:100B10007565210D0A0000006163632070726F62C9
:100B2000652066616C7365210D0A00006572726F45
:100B3000725F636F756E743A25640D0A00000000E1
:100B4000F8B52A4C0D460646A0690004C00FFBD13B
:100B500061683020890A89020143616000212046D2
:100B600000F01FFB0221204600F022FB60680121FB
:100B7000490308436060642706E07F1E3F043F0C82
:100B800031D0022000F090FDA069C007C00FF4D062
:100B9000A662642606E0761E3604360C23D00220B8
:100BA00000F082FDA069C007C00FF4D0A5626425E3
:100BB00006E06D1E2D042D0C15D0022000F074FDF2
:100BC000A069C007C00FF4D0642506E06D1E2D0497
:100BD0002D0C08D0022000F067FDA0690004C00FB2
:100BE000F4D10120F8BD00BF0020F8BD0054004042
:100BF00070B5354C66682660A3686360E268A260E1
:100C0000216925463C35E16020619E4205DA934228
:100C100003DA8A4201DD81420BDC9E4205D1934218
:100C200003DD8A4201DD814203DC914206DD81421F
:100C300004DD0521244800F03BF928602168606844
:100C4000814208DDA268904205DDE3689A4202DA3B
:100C50002269934211DD814208D1A168884205DAF8
:100C6000E068814202DA2169884206DDA168E06815
:100C7000884226DA2169884223DA0521124800F0E9
:100C800026F9A8612968E124081A1049E4008B8834
:100C90008A689A1AC83AA24212D8232810D9686AD8
:100CA000401C68622A6B521C2A63AC6B686BA042C2
:100CB00000D82046824202D22863E86300E0EA635B
:100CC0008B60002070BD0000440200201C0000204A
:100CD00070B5354C66682660A3686360E268A26000
:100CE000216925462835E16020619E4205DA93425C
:100CF00003DA8A4201DD81420BDC9E4205D1934238
:100D000003DD8A4201DD814203DC914206DD81423E
:100D100004DD0521244800F0CBF868602168606894
:100D2000814208DDA268904205DDE3689A4202DA5A
:100D30002269934211DD814208D1A168884205DA17
:100D4000E068814202DA2169884206DDA168E06834
:100D5000884226DA2169884223DA0521124800F008
:100D6000B6F8E8616968E124081A1049E4008B8844
:100D7000CA689A1AC83AA24212D8232810D9A86A77
:100D8000401CA8626A6B521C6A63AC6B286BA04261
:100D900000D82046824202D26863E86300E0EA633A
:100DA000CB60002070BD0000580200201C00002015
:100DB00070B5354C66682660A3686360E268A2601F
:100DC000216925461435E16020619E4205DA93428F
:100DD00003DA8A4201DD81420BDC9E4205D1934257
:100DE00003DD8A4201DD814203DC914206DD81425E
:100DF00004DD0521244800F05BF8A86021686068E4
:100E0000814208DDA268904205DDE3689A4202DA79
:100E10002269934211DD814208D1A168884205DA36
:100E2000E068814202DA2169884206DDA168E06853
:100E3000884226DA2169884223DA0521124800F027
:100E400046F82862A968E124081A1049E4008B8852
:100E50000A699A1AC83AA24212D8232810D9E86A15
:100E6000401CE862AA6B521CAA632C6B686BA04200
:100E700000D82046824202D2A863E86300E0EA6319
:100E80000B61002070BD00006C0200201C000020DF
:100E90007047704710B5054904204A69904304D152
:100EA00004204861012000F0EBFE10BD0004014069
:100EB00010B503460068012206E094001C598442E4
:100EC00000DD2046521CD2B28A42F6D310BD10B5C6
:100ED00003460068012206E094001C59844200DAAF
:100EE0002046521CD2B28A42F6D310BD0148407A45
:100EF000704700000400002001484079704700005E
:100F000004000020FEE77047054B10B55918203942
:100F1000C97F435803242403A3431343435010BD04
:100F20004C290008054B10B559182039C97F435882
:100F3000034C23401343435010BD00004C290008CC
:100F4000EFBFFFFF054B10B559182039C97F435833
:100F50008024A3431343435010BD00004C290008D4
:100F6000054B10B559182039C97F43580324A402F2
:100F7000A3431343435010BD4C290008054B10B543
:100F800059182039C97F43582024A34313434350A1
:100F900010BD00004C290008054B10B55918203928
:100FA000C97F43584024A3431343435010BD00005E
:100FB0004C29000810B589000F24091F8C4080308F
:100FC000836A8A40A3431343836210BD054B10B567
:100FD00059182039C97F435803242402A3431343DB
:100FE000435010BD4C29000810B504790023254951
:100FF0000268002C3DD0002A42D04479002C0FD04A
:10100000012C15D0022C16D001238279002A37D06A
:10101000012A18D0022A1FD0032A21D001232FE051
:101020004C6894434C6002680C6814430C60ECE715
:101030000C68944301E00C6814430C6002684C682F
:1010400014434C60E1E70268CC689443CC600068CC
:101050008A6802438A6013E002688C68944302E065
:1010600002688C6814438C600068CA680243CA60D6
:1010700006E00C6894430C6000684A6882434A604A
:10108000184610BD00040140F0B500244DE00123D6
:10109000A3401A4048D04B68012B01D0022B10D13D
:1010A0008E688568134653435F00DF19BD43734361
:1010B0001D438560CD680B6846689E436B431E43A5
:1010C00046600F69C668134653435D005D19AE4321
:1010D0005F433E43C6604E68022E1FD1FF2A0ED8E2
:1010E00017464A69066A94461A467A437A431701B4
:1010F000BF1ABE4367467A43164306620EE0160ADD
:10110000324672434F6972437243BC461601B71AA6
:10111000466ABE4367467A43164346624A68066893
:101120005343AE431E430660641C0A681346E34003
:10113000ADD10020F0BD30B5026852085200026007
:101140008C68CA6803681F252D021202AB43224334
:10115000134303604A680261026801231A43026074
:1011600083680122D203934383608C690B6985688D
:101170002343ED0AED021D4385600B69002B02D06D
:101180008368134383600C68036803252D05AB4314
:10119000234303604B694168914319434160002038
:1011A00030BD426801239B029A430A434260704764
:1011B0004268FF231B049A4309040A4342607047B4
:1011C00008B50449CA6A0243CA62C96A014000916B
:1011D00008BD00000010024010B57D21C900FFF7D6
:1011E000DBF80449401E4861002088610520086141
:1011F00010BD000000E000E00146084A00209142D6
:1012000009D14A0506498B6A13438B628A6A5200E8
:1012100052088A627047012070470000007C00403D
:1012200000100240F0B587B00446002672B62B4885
:101230002018069004D12A490320CE688004064075
:10124000A0680590E06804906569A7692046FFF7EB
:10125000D3FF684600F0ACF82846384333D00698F0
:10126000002801D100F0CEF80120002D11D0216915
:101270000143216165610099491E009121680907B8
:10128000C90F02D100990029F5D1616808221143E4
:101290006160002F14D0216901432161A761684674
:1012A00000F086F80098401E00902068C006C00F2D
:1012B00002D100980028F5D16068102108436060D1
:1012C000304600F09FF820694008400020610598F2
:1012D000A0600498E06062B607B0F0BD0084FFBF74
:1012E0004010024070B5044600680E4601252840B3
:1012F0002AD1F1687068226808433169134B1A409B
:10130000114308432060B1686068032212039043D0
:10131000084360607169A068121190430843A0609F
:10132000900000F015F800280ED03268002A0BD08B
:10133000010E002500025608801969412B46FEF770
:1013400067FF0003000BE060284670BDF3E9FFEF84
:1013500010B514490024CA6802400815121A11D0A9
:10136000121A13D0824206D108698005C00F00D03E
:101370005401204610BD00F0FFFB00F0E3FB00F03D
:10138000EFFB01E000F0F8FB0446F2E700F02AF87A
:101390000028EED000F02EF8002801D0024CE8E73B
:1013A000024CE6E74010024000093D000024F40032
:1013B00010B5044600F0E0FB206000F0C3FB606065
:1013C00000F0CEFBA06005496068C968044A890442
:1013D000490F515CC840E06010BD000000100240A1
:1013E0006A290008024800684007C00F70470000E3
:1013F0000010024002480068C006C00F704700009D
:10140000001002400349CA6803239B049A43024325
:10141000CA6070474010024010B5029C4903240680
:10142000240A1B0621431B0C1943D2B21143426804
:10143000024B1A400A43426010BD0000C00000FF8A
:10144000F8B5012614460F460546002906D16078F6
:10145000C10603D5EF2108400A306070CA206862D7
:1014600053206862284600F035F8012829D0E0783A
:10147000002F04D000906378A278217816E00A212A
:10148000FEF78AFF00010843C7B260780A21FEF721
:1014900083FF00010843C6B2A0780A21FEF77CFF53
:1014A0000001084300972178C2B233462846FFF76F
:1014B000B3FF8020C043E860A8688006C00F04D056
:1014C0000026FF2068623046F8BD284600F0ACF8E0
:1014D0000646F6E718B57D21C9000091C1680022D3
:1014E0004906C90F15D1491EC160C1680B4B490699
:1014F000C90F0CE01969C903C90F02D00099491E30
:101500000091C168009C4906C90F002C03D0002936
:10151000F0D0104618BD0122FBE7000000E000E01B
:1015200070B504460126CA200D46606253206062F1
:101530002046FFF7CFFF012817D02968A068402276
:1015400090430843A060A8682169C90BC9030143FF
:101550002161A98820697F2212049043090408436D
:1015600020618020C043E0600026FF20606230469A
:1015700070BD00001206120A10B50A431906090CC4
:10158000029C0A43E1B20A430168024B194011432D
:10159000016010BD808080FFF8B5054614460F46F7
:1015A00001260020AA6840210A4200D12060CA20FA
:1015B0006862532068622846FFF78CFF012829D013
:1015C000A079002F04D0009063792279216816E079
:1015D0000A21FEF7E1FE00010843C7B260790A2143
:1015E000FEF7DAFE00010843C6B220790A21FEF7B1
:1015F000D3FE0001084300972168C2B23346284653
:10160000FFF7B8FF8020C043E860A8688006C00FDD
:1016100004D00026FF2068623046F8BD284600F05E
:1016200003F80646F6E7000038B57D24E400009490
:10163000C268002180231A40A13AC260C268164BDA
:101640009206D20F0CE01A69D203D20F02D0009A90
:10165000521E0092C268009D9206D20F002D18D033
:10166000002AF0D1002912D10094C2689206D20F4C
:101670000BE01A69D203D20F01D0621E0092C26839
:10168000009C9206D20F002C03D0002AF1D008460D
:1016900038BD0121FBE7000000E000E001490860DF
:1016A000704700000000002008B506490A69009252
:1016B000421C00D0401C0A69D20300D5401E0028FD
:1016C000F9D108BD00E000E00A4881680222114318
:1016D00081600169012211430161074A8169090C96
:1016E00009041143816101690422062399431143CE
:1016F00001617047007C0040FF03000010B500F05E
:1017000009F80348416802221143416010BD0000FE
:10171000007C004070B51848012141718171027848
:10172000521CD3B200220370072B01D90270C17181
:1017300043785B1CDBB243700F2B0CD90123427042
:101740005B02052501722D076C6926461E40360492
:10175000A3431E43AE6183785B1CDBB283701F2BF7
:1017600001D982704172C3785B1CDBB2C3703F2B1E
:1017700001D9C270817270BD040000207047000062
:10178000F0B589B000240694182168460794FEF746
:1017900001FE0420FFF714FD0120FFF711FD0220D8
:1017A000FFF70EFD224F0220B861000205252D072C
:1017B000A862204988680F22120290438860E86876
:1017C00030218843E8602868884328600420069018
:1017D0000126684606774477867706A8FFF704FC5B
:1017E000082000900194694604942846FFF74CFCB9
:1017F000022000900320029001960394694604940D
:101800003846FFF741FC7002009002940394694649
:10181000019604942846FFF737FC07490868FF2221
:1018200012049043086005494020086009B0F0BDEB
:10183000000400500000014004E400E000E100E08A
:10184000F0B58FB01C2106A8FEF7A4FD182168464C
:10185000FEF7A0FD2A4C0120E16A0143E162E06A43
:101860000025C007C00F0D90102000900220032615
:10187000012701A90495C1C1052069460007059605
:10188000FFF702FC20150090022001A90495C1C1B8
:101890000520694600070597FFF7F6FBA16B780561
:1018A0000143A163A16B014016480D910168090233
:1018B000090A01601449F8050860144C606879064B
:1018C00008436060E06889128843E060206809018D
:1018D0008843206020688910884320600C480C955C
:1018E00006950790089509950A950B9506A9204637
:1018F000FFF721FCE06807490840E0600FB0F0BD49
:101900000010024014E400E000E100E00054004058
:10191000BB7C700001F8FFFF08B518480121826BFD
:10192000C9070A438263806B084015490090086824
:10193000FF22120290430860012012494003086010
:101940001148C16849084900C160C16807225202B4
:101950009143C160C168012252059143C160C168D1
:1019600052009143C160C16852009143C160C16897
:10197000032252049143C16008BD000000100240E0
:101980000CE400E000E100E0007C0040F0B58DB028
:10199000182106A8FEF7FEFC18216846FEF7FAFC9F
:1019A00049480121826B89040A438263826B0A40A1
:1019B0000C92C26A01210A43C262C06A0024084034
:1019C0000C90084606270225032603946A460597CD
:1019D000049461C2052069460007FFF755FB009596
:1019E0000520039469460007059702960195049423
:1019F000FFF74AFB354D052203212846FFF7DAFAA7
:101A0000002203212846FFF78DFA002203212846F1
:101A1000FFF77AFA002203212846FFF7AFFA0022E7
:101A200003212846FFF7B8FA802203212846FFF752
:101A300089FA002203212846FFF7C8FA0022032171
:101A40002846FFF78DFA052204212846FFF7B2FA4F
:101A5000102204212846FFF765FA002204212846B7
:101A6000FFF752FA002204212846FFF787FA0022E6
:101A700004212846FFF790FA802204212846FFF728
:101A800061FA002204212846FFF7A0FA002204216F
:101A90002846FFF765FA0E490868FF2212029043B4
:101AA00008600C49280308604B20C00106900C20F8
:101AB0000A9007940894099406A90B940648FFF726
:101AC00011FC0DB0F0BD000000100240000002400B
:101AD0001CE400E000E100E00048004030B587B0C1
:101AE0000024154803940094019402940169012292
:101AF0009204114301617F200490FF200F4D059057
:101B000003A92846FFF70CFD69460C714C718C71D6
:101B10006A4601212846FFF73FFD05206946087205
:101B20004872012088721420C87202AA0121284636
:101B3000FFF786FC07B030BD40100240002800408F
:101B4000704770470449C968F0221140034A0909E7
:101B5000515CC84070470000001002405129000845
:101B60000349C968034A4905490F515CC840704799
:101B7000001002406A29000870B51C4DEA680C206C
:101B800002401B4808D01B4CA600042A0AD0610062
:101B9000082A0FD00C2A0FD069680904490F491C84
:101BA000884070BDFFF726FC002801D0204670BD9C
:101BB000304670BD084670BDE8680122120410422C
:101BC00004D1FFF717FC002801D10DE00C46E868AE
:101BD0000002810FE868084A8002000F105C491C6F
:101BE0006043FEF7D9FB70BD3446F0E700100240B9
:101BF0000080000000093D006129000870B56021E7
:101C0000144800F040FA002820D0124A002108466B
:101C100006235843044680180123C35605781B0247
:101C20002B439B1113530323C35684781B02234376
:101C30009B1143800523C35604791B0223439B1148
:101C4000491CC9B283801029E1D370BD02A000F005
:101C500037FE70BDC4020020726561642061636359
:101C6000656C65726F6D65746572206669666F205C
:101C70006572726F72210D0A00000000704700004B
:101C800001490870704700001C00002010B508488A
:101C90000178002909D000210170FFF7AFFFFEF79E
:101CA000ABFC00F065F900F00DFC00F035F910BD5B
:101CB0001C00002070B544210D48FEF76BFB0C485A
:101CC00006214430FEF764FB0020094C0346A4348F
:101CD00024220021424312198D00491CC9B25351DC
:101CE0000929F9D3401CC0B20328F1D370BD00000C
:101CF00080020020704700000149487270470000D0
:101D000004000020014948717047000004000020D1
:101D100010B504460088FF30FF30023001B20020C9
:101D2000FEF752FC00B2FEF763FF6088FF30FF3021
:101D3000023001B20120FEF747FC00B2FEF7C8FFF7
:101D4000A088FF30FF30023001B20220FEF73CFCD9
:101D500000B2FFF72DF803498888193088800020E9
:101D600010BD00001C00002010B5FFF709FDFFF7B3
:101D700067FDFFF70BFEFFF7B1FEFFF7CDFDFFF7A5
:101D8000A3FC00F04DFD00F079FD10BD7047000090
:101D9000F8B54748012102688A430A430260016896
:101DA000C907C90FFBD0434901220868D2020323A7
:101DB000DB029843104308603F4802680124224335
:101DC000026002685207D20FFBD042681F2424022F
:101DD000A24301242403224342600A6826113243AD
:101DE0000A60354C40342569032212041540310243
:101DF0008D4206D02769CD002F4327612769AF4365
:101E0000276125699D431D43256123693343236170
:101E100023699B05DB0FFBD0236913408B4203D062
:101E2000236993430B4323612169012292041143E7
:101E30002161C168FD2212049143112292041143D1
:101E4000C160016801221206114301600168890125
:101E5000C90FFBD0C168F0229143C160C16807225D
:101E600012029143C160C168D2009143C160C2684F
:101E700003218A430A43C2600C22C16811400C2925
:101E8000FBD10E48FFF7A8F90D48FFF707FC032028
:101E9000E168800281430143E160E06803210903B6
:101EA0008843E060E068890188430843E060F8BD4A
:101EB00000200240007000400010024000093D0078
:101EC0000048E80110480168821511430160C168AB
:101ED0000E4A1140C16001680D4A114001608168DD
:101EE0004908490081600168012292049143016020
:101EF000C168FD2212049143C160002101610549BE
:101F0000C003886070470000001002400C40FF884A
:101F1000F6FFF6FE00ED00E010B5FEF7EDFF00283D
:101F20001ED00020FFF7EEFE0E4A9078002817D052
:101F3000401E0006000E907012D10B48016CC16368
:101F400000218B001B18046C5C62491C046CC9B234
:101F50001C630329F5D3002050700448FFF762F991
:101F600010BD00001C00002080020020007C00400A
:101F700070B5154C16486378144D026CC16B002B7C
:101F80000DD08A421DD0016412A0A16100F098FC1E
:101F90004620A0702869C007C00F0ED011E0881A33
:101FA000092804D9012060700020A07009E0606950
:101FB000814206D030206161EBE7FFF7ADFCFFF70F
:101FC00083FB00BF70BD00001C000020007C0040AF
:101FD000800200205065646F6D657465723A2564F7
:101FE0000A00000030B47446641E2578641CAB42BD
:101FF00000D21D46635D5B00E31830BC18477CB51A
:102000000D460646144601A9022000F0B0FA002849
:1020100037D06946032000F0AAFA002831D069467B
:102020000878097940B2000208430011308001A904
:10203000042000F09CFA002823D06946052000F017
:1020400096FA00281DD069460878097940B2000246
:1020500008430011288001A9062000F088FA002812
:102060000FD06946072000F082FA002809D069469F
:102070000878097940B2000208430011208001204D
:102080007CBD00207CBD0A4610B501463F20FEF70E
:1020900081FB10BD38B50C46054600206946087026
:1020A0003E2000F064FA002809D06846007802213A
:1020B000800928706846007808402070012038BDEB
:1020C0008001084310B5C1B23E2000F054FA002848
:1020D00000D0012010BD10B50146302000F047FAB5
:1020E000002800D0012010BD10B5202807D80146D7
:1020F000302000F040FA002801D0012010BD00205F
:1021000010BD38B504466946102000F030FA0028AA
:1021100007D0694608780007000F0870083820705B
:10212000012038BD1CB508A206CA019200910828FA
:1021300008D26946095C102000F01DFA002801D081
:1021400001201CBD00201CBD08090A0B0C0D0E0F40
:1021500038B504466946112000F009FA002807D076
:10216000694608781E2108406946087020700120E1
:1021700038BD38B504466946122000F0F8F9002849
:1021800008D068460078800601D5012000E00020D4
:102190002070012038BD0000F0B58BB00C4605461C
:1021A0002422164901A8FDF7DDFF6E0001A977186A
:1021B0000125002C885D0C4669460BD000F0D7F94C
:1021C000002819D078788540684600780543E9B240
:1021D000684608E000F0CBF900280DD078788540FB
:1021E00068460178A9430170A05D00F0C4F9002899
:1021F00002D001200BB0F0BD0020FBE7E029000871
:10220000F0B58BB00C4605462422164901A8FDF70F
:10221000A9FF6E0001A977180125002C885D0C46E6
:1022200069460BD000F0A3F9002819D078788540D2
:10223000684600780543E9B2684608E000F097F97F
:1022400000280DD07878854068460178A943017050
:10225000A05D00F090F9002802D001200BB0F0BD85
:102260000020FBE79829000810B50146212000F066
:102270007EF9002800D0012010BD10B5102909D228
:10228000C0010843C1B2212000F075F9002801D037
:10229000012010BD002010BD38B50C4605460020B9
:1022A00069460870202000F062F9002816D0022D3F
:1022B00014D269460878002D0CD0F3210840204341
:1022C00069460870C1B2202000F055F9002805D0F9
:1022D000012038BD800880002043F2E7002038BD8F
:1022E00038B50C4605466946202000F040F9002824
:1022F00008D0684601782170002D04D00C200140E0
:102300002170012038BD8807800F2070F9E71CB5C7
:10231000044601A9122000F02AF900282BD0012040
:10232000FFF7C2F96946112000F021F9002822D0F8
:102330006A46107841094901117010794022104015
:102340006A461071002906D020291CD0402905D0EA
:10235000802910D10BE0002812D012E0002802D012
:10236000402802D007E001200AE0042008E000280D
:1023700003D0402803D000201CBD022000E005202F
:10238000207001201CBD0320FAE77CB5044601A99A
:10239000122000F0ECF8002848D00120FFF784F963
:1023A0006946112000F0E3F800283FD06846007825
:1023B0004022C106C90E68460170BF208025230057
:1023C000FFF710FE0604060C10152E346A4601E0D5
:1023D000114304E01179014011710EE029436A466E
:1023E0001170F7E7202001436846017005E01143B2
:1023F0006846017001791143017168460179122024
:1024000000F0B9F8002811D00120FFF74DF9684617
:102410000178112000F0AFF8002807D001207CBD22
:1024200029436846017001791143017100207CBD88
:1024300008B56946002000F09AF8002803D06846E5
:102440000078FA2801D0002008BD012008BD38B569
:10245000044669460F2000F08AF8002813D0694628
:1024600008780007000F0870032807D0052807D058
:10247000082809D00C2809D0002002E0012000E043
:1024800002202070012038BD0320FAE70420F8E77D
:1024900010B5012806D0022806D0032806D004284B
:1024A0000ED105E0032104E0052102E0082100E04F
:1024B0000C210F2000F05FF8002801D0012010BD92
:1024C000002010BD08B56946212000F050F8002812
:1024D0000CD06846017880200143684601702120B5
:1024E00000F049F8002801D0012008BD002008BDF7
:1024F00038B504466946112000F039F800280DD09F
:1025000068460178E12001402143684601701120AE
:1025100000F031F8002801D0012038BD002038BD7E
:1025200038B504466946122000F021F8002813D07F
:1025300069460878002C0CD02021084369460870B1
:1025400068460178122000F016F8002804D0012017
:1025500038BDDF210840F1E7002038BD10B5B621B5
:10256000142000F008F8002800D0012010BD10B59C
:10257000FEF7A4F810BD10B5FEF7E2FA10BD00009A
:10258000FFB505463E480C4695B001681391209969
:102590001F9F490601D5406813901898801E232874
:1025A00002D3002019B0F0BD2098C00701D0302020
:1025B00000E020201290002011902098800707D57D
:1025C000002A05DA2D2011901E985242401E1E90BE
:1025D0000026002A15D010461899FDF7DDFE139A43
:1025E000525C69468A55761C0200F4D1BE4200DD79
:1025F000374620991E98CA07C01B2021002A0AD0FE
:102600000DE03020694608700126EFE72970641E4E
:102610006D1C002C31D00246401E002AF6DC119AB7
:10262000002A04D02A70641E6D1C002C25D002469E
:10263000401E002A07DD129AF4E72A70641E6D1C02
:10264000002C01D119E030223B467F1EB342F4DC5E
:102650006A463346761E002B0BDD935D2B70641E9D
:102660006D1C002CF5D108E02970641E6D1C002C37
:1026700003D00246401E002AF6DC284692E70000FE
:102680001000002008B50E480121426B0A43426346
:10269000416BC907C90F0091826B01040A43826331
:1026A000806B08400090FFF773FBFFF75DFBFDF7C1
:1026B000DFFFFFF7FFFAFDF753FFFFF7E7FAFAE74F
:1026C00000100240FFB585B0074606981646002860
:1026D00002DC002009B0F0BD401E3C4603908EE0B5
:1026E0000399E21B8A4270DA252801D0207045E068
:1026F00072780020761C302A00D101200021C943C5
:10270000303A0D46092A0BD8002532460A231278A2
:102710005D43303D761C55193278303A092AF4D998
:102720008C4631780A23692950D006DC582948D0D4
:1027300063291AD0642906D148E0732920D075296D
:102740004CD078293FD0252902D025212170641C46
:102750000399E21B8A4241DA3178002939D021708D
:10276000641C37E02070641C00E020206D1E002DEA
:10277000F8DC089801782170001D0890641C3DE089
:10278000089802C800910890002901D0084601E08D
:1027900021A00090FDF7BEFD202101E02170641C06
:1027A0002A466D1E8242F9DC002107E0009A491C8E
:1027B00012782270009A521C641C00928142F5DB50
:1027C0001CE040210843102308E020E002210843D8
:1027D00004E0761E0399E21B8A420FDB8107089909
:1027E00004C908916146019102900698E11B411AC3
:1027F00000952046491EFFF7C3FE0446761C30783C
:10280000002800D06CE70399E21B8A42FADA002024
:102810002070E01B5EE700003C4E554C4C3E000033
:10282000EFF31081012080F310881348026802231F
:102830001A43026081F3108881681A0503231B057F
:10284000994311438160EFF31081012282F31088D4
:10285000826801239B051A43826081F31088016816
:10286000012211430160C1698902C90FFBD0C1690E
:102870004902C90FFBD070470048004030B50E4BED
:10288000187A012816D00122EFF3108082F3108805
:102890000A490C688D152C430C6080F31088EFF307
:1028A000108082F310888C6814438C6080F3108849
:1028B0000020187230BD000038020020004800409F
:1028C0000FB4F8B507AB72B61D4F3888FF21013140
:1028D0001C4C069A00280ED03888884206D03D88C5
:1028E000491B6019FFF7EEFE4019388062B6F8BC4C
:1028F00008BC04B018471348FFF7E4FE3880398855
:1029000062B60020104A4025034606E0E65C966267
:10291000D6697606F60FFBD05B1C0E468B4215621D
:10292000F4DB334672B63E889E4202D100263E80DA
:1029300001E00846398862B69942E5D1D7E7000040
:10294000180000203800002000480040081C3044D7
:102950005800000000000000000102030406070800
:1029600009030406080C10182030000000000102C2
:10297000030400001E001E001E041E04FF00FF00D2
:10298000FF00FF00FF001E051E001E011E011E01AC
:102990001E031E031E031E03190719061905190439
:1029A0001902190219021A011A021A001900190152
:1029B0001901190119031903190319031B071B0630
:1029C0001B051B041B021B021B021A061A051A0711
:1029D0001B001B011B011B011B031B031B031B0310
:1029E0001607160616051604160016011602170617
:1029F000170517041703170017011702180318000B
:102A00001801180230313233343536373839414203
:102A1000434445464748494A4B4C4D4E4F5051520E
:102A2000535455565758595A00000000303132332C
:102A30003435363738396162636465666768696A58
:102A40006B6C6D6E6F707172737475767778797A5E
:102A500000000000742A0008000000203800000078
:102A600004010008AC2A000838000020B805000066
:102A7000200100080000200000000000000000000D
:102A8000000000002C2A0008042A000800000000B2
:102A90000000000000000000000000000000000036
:0C2AA0000000000000000000000000002A
:04000005080000C12E
:00000001FF
