:020000040800F2
:1000000040070020D5000008451D000865070008CE
:1000100000000000000000000000000000000000E0
:10002000000000000000000000000000E9210008BE
:10003000000000000000000041200008EB21000843
:100040000501000800000000050100080501000886
:100050000501000805010008C506000805010008A3
:1000600000000000050100080D0600080F0600084A
:1000700005010008F914000800000000050100084F
:100080000000000000000000000000000000000070
:1000900005010008000000000000000069070008DA
:1000A000000000008921000800000000000000009E
:1000B0000501000815150008000000000000000000
:1000C0000348854600F0D2F800480047292A000876
:1000D000400700200C4880F308880C480168090E8E
:1000E0000B4A914205D10B480B4901600B480C4962
:1000F00001600C4880470C480047FEE7FEE7FEE73A
:10010000FEE7FEE7FEE700004007002004000000D5
:100110001F000000341002400100000000000140F8
:1001200000000000BD220008C100000830B50B46E9
:10013000014600202022012409E00D46D5409D42C1
:1001400005D31D469540491B254695404019154647
:10015000521E002DF1DC30BDF0B51FB40646002064
:1001600082B005464024019100901BE0019922468F
:100170000F46304600F068F8049A059B801A9941B2
:1001800010D310461946224600F04EF8361A8F4119
:100190000197224601200021009F00F045F8381801
:1001A0004D4100902046641E0028DFDC019B009832
:1001B0002946324607B0F0BD03460B439B0703D0E8
:1001C00009E008C9121F08C0042AFAD203E00B781C
:1001D0000370401C491C521EF9D27047D2B201E094
:1001E0000270401C491EFBD270470022F6E710B592
:1001F00013460A4604461946FFF7F0FF204610BD95
:1002000030B505462A460B4610781C78521C5B1CFC
:10021000002801D0A042F7D0002C03D0002802D043
:100220006D1CEFE7284630BD10B5202A04DB0146DF
:10023000203A9140002010BD914020239C1A034693
:10024000E3401943904010BD10B5202A04DB084656
:10025000203AD040002110BD0B46D340D04020248E
:10026000A21A91400843194610BD0000064C012512
:10027000064E05E0E36807CC2B430C3C984710344E
:10028000B442F7D3FFF720FF842B0008A42B00080B
:1002900070B5054638A631462846FFF7B1FF00285D
:1002A00025D002F04FF8012035490870282400BFFE
:1002B0003448007800280FD000203249087000BF71
:1002C000012149020520000700F043FC00BF601E29
:1002D000C4B2002C00D100E0EAE700BF00BF01215A
:1002E00049020520000700F032FC00BF00BF26A62F
:1002F00031462846FFF784FF00283CD000202449DF
:10030000086001202349087000BF234800780028B6
:100310000AD000202049087000BF012149020520B1
:10032000000700F016FC00BF1A480078012812D11F
:10033000002018490870FF2201321548016817484B
:1003400002F030F8164800F0C3FC11480068FF3096
:1003500001300F4908600E48006812490968884258
:10036000D3D301201049087000BF410205200007C7
:1003700000F0EDFB00BF70BD41542B525354000000
:100380000A0000200600002041542B47455400007D
:100390001000002001000020030000203C0100208C
:1003A00000480040140000200B00002010B586B06B
:1003B0002048007800283AD000201E4908701E48C6
:1003C0000078002801D006B010BD03AA04A905A832
:1003D00002F00BF90446012C29D16946888A0004F1
:1003E000000E0871087900F059F96946888A487149
:1003F000487900F053F96946088A0004000E8871B4
:10040000887900F04BF96946088AC871C87900F00C
:1004100045F9694688890004000E0872087A00F0E0
:100420003DF9694688894872487A00F037F900BF7B
:10043000C9E70000020000200A00002010B501F00A
:1004400037FA034800F089FB014800F096FB10BD25
:1004500000540040F8B505460F46164601200090AE
:10046000344800F07FFB2946324800F0E9FB0021C8
:10047000304800F0EBFB01212E4800F0EEFB2D4848
:1004800000F075FB2C4C06E0601E80B2041E02D109
:1004900000BF00200090274800F0CAFB0028F3D0DE
:1004A0003946244800F0E1FB234C06E0601E80B290
:1004B000041E02D100BF002000901E4800F0B2FBD5
:1004C0000028F3D11B4800F058FB0121890219488C
:1004D00000F0BCFB0121174800F0BFFB154800F0FD
:1004E00046FB154C06E0601E80B2041E02D100BF20
:1004F000002000900F4800F08FFB0028F3D100BFD0
:100500000C48406AC0B230700B4C06E0601E80B2EE
:10051000041E02D100BF00200090064800F082FBBC
:100520000028F3D1034800F028FB024800F015FB37
:100530000098F8BD0054004010270000F8B50546AB
:100540000F46164601200090254800F00BFB294677
:10055000234800F075FB0021214800F077FB0221C1
:100560001F4800F07AFB1E4800F001FB1D4C06E01E
:10057000601E80B2041E02D100BF00200090184807
:1005800000F056FB0028F3D03946154800F06DFB0B
:10059000144C06E0601E80B2041E02D100BF002091
:1005A00000900F4800F044FB0028F3D031460C487F
:1005B00000F05BFB0B4C06E0601E80B2041E02D113
:1005C00000BF00200090064800F02CFB0028F3D16B
:1005D000034800F0D2FA024800F0BFFA0098F8BDD4
:1005E000005400401027000070B504460D462A460E
:1005F00021463020FFF72EFF70BD70B504460D4632
:100600002A4621463020FFF799FF70BD704710B58C
:1006100000F002F810BD000010B51B4804214A1E6E
:100620001A4B9A5C825802231A405208002A2AD098
:1006300000BF0068C9020840400B002823D000BF5B
:1006400013488068802188431149886000BF0421D5
:100650000D4800F0A1F800BF012040030A4948609E
:1006600000BF0C4A0421084800F0E6F8FF220132DE
:100670000421054800F0BCF80421034800F09AF872
:1006800001200549087010BD00000240582B0008E9
:10069000004800403C0100200100002010B5044645
:1006A000204600F023F8002807D1044801F0CAFCD6
:1006B00000F05CF801200249087010BD3C020020E7
:1006C000040000200420084949690140814201D109
:1006D000012100E00021002904D0042002494861E2
:1006E00000BF00BF704700000004014000B5034692
:1006F00002F086F9002806D00C4840880C490B54BB
:1007000000BF002000BD0948408809490B54074933
:100710004988481CC117090E091809120902411A13
:100720008AB202494A800120ECE70000240100203F
:10073000240000207047000010B508480078002809
:1007400005D00020054908700548FFF7A1FD00F01D
:10075000E1FFFFF72BFE01F0D5FE10BD00000020E9
:100760002801002000BFFEE770470000002102487A
:1007700001804180704700002401002008B5054930
:10078000896B0143034A91631146896B01400091D3
:1007900000BF08BD0010024010B54A1E044B9A5C11
:1007A000825853085B004A1E014CA25C835010BD66
:1007B000582B000810B54A1E044B9A5C825801233E
:1007C0001A434B1E014CE35CC25010BD582B00086D
:1007D00030B54B1E054CE35CC35803242403A343EC
:1007E00013434C1E014D2C5D035130BD5D2B0008A1
:1007F00030B54B1E064CE35C1B185B681B0C1B04DE
:1008000013434C1E024D2C5D2418636030BD000064
:10081000582B000830B54B1E054CE35CC358054C03
:10082000234013434C1E024D2C5D035130BD00008C
:100830005D2B0008EFBFFFFF10B54B1E024CE35CC1
:100840001B18DA6010BD0000582B000830B54B1E95
:10085000054CE35CC3588024A34313434C1E024D54
:100860002C5D035130BD00005D2B000830B54B1EE0
:10087000054CE35CC3580324A402A34313434C1E5A
:10088000014D2C5D035130BD5D2B000830B54B1E72
:10089000054CE35CC3582024A34313434C1E024D74
:1008A0002C5D035130BD00005D2B000810B54B1EC0
:1008B000024CE35C1B189A6010BD0000582B000826
:1008C00030B54B1E054CE35CC3584024A34313438F
:1008D0004C1E024D2C5D035130BD00005D2B000805
:1008E00030B5A8231B584C1EA5000F24AC40A343D1
:1008F0004C1EA5001446AC402343A824235030BD11
:1009000030B54B1E054CE35CC35803242402A343BB
:1009100013434C1E014D2C5D035130BD5D2B00086F
:10092000024949688143014A51607047000401400F
:10093000024909688143014A11607047000401407F
:10094000024949680143014A51607047000401406F
:100950000249C9680143014AD1607047000401405F
:10096000024909680143014A1160704700040140CF
:10097000024989680143014A9160704700040140BF
:1009800070B504460025207900284DD02068002845
:1009900050D06079002804D0012809D0022815D150
:1009A0000DE02068FFF7BCFF2068FFF7D9FF0FE0DC
:1009B0002068FFF7BDFF2068FFF7C2FF08E020684E
:1009C000FFF7CEFF2068FFF7BBFF01E0012500BF66
:1009D00000BFA07900282DD0A079012804D00228DA
:1009E0000DD003281DD115E020681349C968814343
:1009F000114AD16000BF2068FFF7BAFF13E02068FA
:100A00000D49896881430C4A916000BF2068FFF757
:100A10009FFF08E02068FFF7ABFF2068FFF798FF13
:100A200001E0012500BF05E02068FFF781FF206895
:100A3000FFF776FF284670BD0004014003490968AE
:100A4000490849000143014A1160704700200240F3
:100A5000F0B502460B460026002162E00124B440B6
:100A600018682040014600295AD0586814680D467D
:100A70004D436F00ED19AC430D464D4345432C43A8
:100A8000146000BF5868012802D0586802280DD1B0
:100A9000986894680D464D436F00ED19AC430D46C0
:100AA0004D4345432C43946000BF00BF1869D46890
:100AB0000D464D436F00ED19AC430D464D43454384
:100AC0002C43D46000BF5868022829D1FF2911D8CF
:100AD0005869146A0D464D434D434D432F017D1B0C
:100AE000AC430D464D434D434D4345432C431462A7
:100AF00000BF15E05F69080A40430C0A60430C0A16
:100B000060430401241A506AA0430C0A64430D0A8E
:100B10006C430D0A6C437C432043506200BF00BF0E
:100B2000761C1868F040002898D15868012802D037
:100B30005868022809D1DC6818685568854307465B
:100B400067433D43556000BF00BF0020F0BD816199
:100B5000704742694A40426170470168490849004C
:100B600001607047016801221143016070474168CC
:100B700001225203114341607047416801229203F0
:100B800011434160704730B5024600BF106840080D
:100B90004000106000BFCB68886814681F252D02D4
:100BA000AC431D0205432C43146000BF486810612C
:100BB00000BF00BF106801231843106000BF00BFD2
:100BC0009068DB039843906000BF8B690869946864
:100BD000E40AE40205461D432C43946000BF086903
:100BE000002807D000BF90680123DB031843906002
:100BF00000BF00BF0868136803242405A343034310
:100C0000136000BF486953680124E403A34303430E
:100C1000536000BF002030BD0146886904221040A7
:100C2000800870470146886940221040800970475B
:100C300001468869C007C00F0122504050407047EC
:100C40004268920A92020A43426070474268012356
:100C50009B029A430A43426070474268FF231B0489
:100C60009A430B041A434260704781627047000048
:100C700008B50549C96A0143034AD1621146C96AE8
:100C80000140009100BF08BD0010024008B50549B1
:100C9000C96A0143034AD1621146C96A0140009101
:100CA00000BF08BD0010024070B504467D25ED0070
:100CB00029462046FFF73AFA401E044948610020C1
:100CC00088610520086100BF70BD000000E000E001
:100CD000816880221143816070470000FEB50446A0
:100CE0000D4601200290002600BF2068C007C00FFB
:100CF000012148404840002837D1E9686868084326
:100D00002969084321681A4A114008432060A868ED
:100D100061680322120391430143616000BF686967
:100D2000A168121191430143A16000BF900000F03F
:100D30004DF80646002E18D02868002815D000204F
:100D400002902F68FF210131304601F019FC7A082A
:100D50000023801859413A4601910090FFF7FCF9B1
:100D600004490840E06000BF00BF0298FEBD0000DB
:100D7000F3E9FFEFFFFF0F0003480068FF21013197
:100D80000843014908607047007000400449096841
:100D90000322D20291430143014A116070470000CF
:100DA000007000400348006901218904084301499B
:100DB0000861704740100240034800690121C904DE
:100DC000084301490861704740100240F8B50446E5
:100DD000002500BF1948C0682040002820D001210C
:100DE0008902401A04D0401A06D0401A17D10FE0E9
:100DF00001F05CF905461DE000F040F8002806D03F
:100E000000F050F8002801D00D4D00E00D4D11E02C
:100E100000F064F8002801D00125ED030AE000BFCE
:100E200001F044F9074601F01DF9064601F02CF9DE
:100E3000054600BF00BF2846F8BD00004010024034
:100E400000093D000024F4000248C0680C2108405D
:100E50007047000000100240034800680121084369
:100E60000149086070470000001002400248006815
:100E700004210840800870470010024002480068C2
:100E80000421084080087047001002400449496866
:100E90001F221202914302021143014A516070471E
:100EA0000010024002480068102108400009704705
:100EB0000010024003480069FF2101310843014945
:100EC000086170474010024003480069012149024F
:100ED0000840400A70470000401002400348006983
:100EE000012149020840400A7047000040100240BA
:100EF000044909690322D20291430143014A116165
:100F00007047000040100240024840680721490332
:100F1000084070470010024010B5064BDB68FD2406
:100F20002404A34304460C4314432343014CE360CD
:100F300010BD0000001002400348006801210906AE
:100F400008430149086070470010024003480068E8
:100F5000012149060840400E704700000010024081
:100F6000034800690121C9048843014908617047A9
:100F7000401002400349C968F02291430143014AED
:100F8000D1607047001002400449C968072212026C
:100F900091430143014AD1607047000000100240B4
:100FA0000449C9680722D20291430143014AD16032
:100FB00070470000001002400649C9680209FF237B
:100FC0001B031A40914302011A401143014AD160A8
:100FD00070470000401002400449C968032292048F
:100FE00091430143014AD160704700004010024024
:100FF0000449C9680322920291430143014AD16026
:10100000704700004010024004490969032212049D
:1010100091430143014A11617047000040100240B2
:101020000349C968890889000143014AD1607047B2
:1010300000100240F8B5069CF02525402D04260737
:10104000360B35434E033543F0261E4036021F074C
:101050003F0D3E433543F026164017073F0F3E43F2
:10106000354300954568034E3540009E3543456045
:10107000F8BD0000C00000FFF7B584B00D4614466F
:1010800001200390002D09D160781021084010281C
:1010900004D16078EF2108400A306070002D00D143
:1010A00000E000BF049800F055F8049800F05AF8EA
:1010B000012843D0002D08D0E07800906378A27812
:1010C00021780498FFF7B6FF29E0E0780A21FFF7BE
:1010D0002DF80701E0780A21FFF728F80F43FEB248
:1010E00060780A21FFF722F8070160780A21FFF7EC
:1010F0001DF80F43F8B20290A0780A21FFF716F806
:101100000701A0780A21FFF711F80F43F8B2009603
:10111000019021780246029B0498FFF78BFF0A4852
:1011200000F014F8049800F084F8002804D1049822
:1011300000F016F9039001E000200390049800F0FD
:101140000EF8039807B0F0BD002800408021C94385
:10115000C1607047CA214162532141627047FF213B
:1011600041627047F8B505467D20C000009000261A
:10117000284600F052F800281CD100BF401EE8604D
:1011800000BF284600F049F804460EE000F066F97A
:10119000012802D10098401E0090284600F03DF83A
:1011A00004460098002800D101260098002801D0AC
:1011B000012CEBD13046F8BD014688684022104032
:1011C000704770B504460D4601262046FFF7C2FF62
:1011D0002046FFF7C7FF01281AD02868A1684022DF
:1011E00091430143A16000BFA8682169C90BC903ED
:1011F0000143216100BF686821697F221204914385
:1012000002041143216100BF2046FFF79FFF002623
:101210002046FFF7A4FF304670BD0146C868402253
:101220001040800970470146C868202210404009DC
:10123000704701468868202210404009704700002E
:10124000F8B5069CF02515402D041607360B3543DE
:101250000D43F0261E4036021F073F0D3E43354327
:10126000F026264027073F0F3E433543009505688B
:10127000024E3540009E35430560F8BD808080FFFA
:10128000F7B584B00D46144601200390002D09D116
:101290000498FFF791FF002800D002E000202060B2
:1012A00000BF09E00498FFF787FF002800D002E0A4
:1012B0000020206000BF00BF0498FFF74BFF049898
:1012C000FFF750FF012843D0002D08D0A0790090EF
:1012D0006379227921680498FFF7B2FF29E0A079A9
:1012E0000A21FEF723FF0701A0790A21FEF71EFF5E
:1012F0000F43FEB260790A21FEF718FF07016079FB
:101300000A21FEF713FF0F43F8B2029020790A2159
:10131000FEF70CFF070120790A21FEF707FF0F43B4
:10132000F8B20096019021680246029B0498FFF7EC
:1013300087FF0A48FFF70AFF0498FFF77AFF0028A3
:1013400004D1049800F00CF8039001E00020039011
:101350000498FFF704FF039807B0F0BD0028004091
:10136000F8B504467D20C0000090002500BFE0686D
:1013700080210840A021C9430843E06000BF204607
:10138000FFF751FF06460EE000F068F8012802D191
:101390000098401E00902046FFF745FF0646009843
:1013A000002800D101250098002801D0002EEBD1A3
:1013B000012D1BD07D20C00000902046FFF733FF99
:1013C00006460EE000F04AF8012802D10098401EBF
:1013D00000902046FFF727FF06460098002800D11E
:1013E00001250098002801D0012EEBD12846F8BD38
:1013F00030B50246012300BF106840242040800918
:10140000002826D14C68086820438C682043CC68AB
:1014100020430C6920434C6920438C692043CC69EC
:1014200020430C6A204314680B4D2C40204310606D
:1014300050680424A0434C69240C204350605C0392
:10144000086AA04204D1486A84B2146100BF00BF98
:101450000023184630BD00004000FFFF034800692C
:10146000012109040840000C7047000000E000E082
:1014700001490860704700002000002008B50A49B3
:101480000969009100BF411C002900D0401C07E001
:1014900005490969012212041140002900D0401EAB
:1014A0000028F5D108BD000000E000E000BF1048B2
:1014B0008068022108430E49886000BF00BF0846CB
:1014C0000069012108430A49086100BF0948896988
:1014D000090C09040143064A916100BF042011462A
:1014E0000969062291430143014A116100BF704717
:1014F000007C0040FF03000010B500F0B9F800BF09
:1015000003484068022108430149486000BF10BDFC
:10151000007C004010B500F077F810BD10B5354ADA
:1015200003213548FFF7C2F9344A03213248FFF757
:1015300083F9142203213048FFF75AF903212E487A
:10154000FFF738F900BF2B48243880684021084352
:1015500028492439886000BF00BF08460068102170
:10156000084324492439086000BF224A121D04217F
:101570002148FFF79BF9224A04211F48FFF75CF935
:10158000FF22013204211C48FFF732F900BF01207D
:1015900040031949486000BF084604214A1E194B00
:1015A0009A5C825802231A434B1E164CE35CC250CD
:1015B00000BFFFF7FFF800BF0E4824380068012184
:1015C00008430C492439086000BF00BF00BF094828
:1015D0002438C069012149050840400D0028F5D094
:1015E00000BF04482438C06949000840800D002825
:1015F000ECD010BD2448004000000240280100202B
:101600003C010020582B000810B500BF14480068AA
:10161000102108400009002821D000BF1048C069EF
:101620000840000900281AD003210E48FFF7B4F83B
:101630000C4803214A1E0C4B9A5C12185268D4B213
:101640001422FFF7D5F803210648FFF7B3F800BFCF
:1016500010200349086200BF01200449087010BD32
:101660000048004000000240582B00080000002005
:1016700001201E4908701E4908701E480078401C51
:101680001C49087008460078072804DD002008700F
:1016900001201949087019480078401C1749087042
:1016A000084600780F2804DD002008700120144946
:1016B000087014480078401C1249087008460078E9
:1016C0001F2804DD0020087001200F4908700F4812
:1016D0000078401C0D490870084600783F2804DD5A
:1016E0000020087001200A4908707047020000209D
:1016F0000300002018000020060000201900002030
:10170000070000201A000020080000201B00002015
:10171000090000200021002200BF082005231B072C
:101720001B690340834201D1012300E00023002B09
:1017300001D1481CC1B2501CC2B21E2AEDDB1929CE
:1017400002DD0120014B1870704700000C000020E2
:1017500008B501200C49096B01430B4A116311467E
:10176000096B0140009100BF00BF00210A2000F07A
:10177000FFFA0A2000F0E8FA00210B2000F0F8FA46
:101780000B2000F0E1FA08BD0010024010B588B04F
:1017900000200690079018216846FEF726FD0420D9
:1017A000FFF766FA0120FFF763FA0220FFF760FAFD
:1017B00002203C49886100BF0002052109078862B8
:1017C00000BF00218002384A03069B0DD258040C4A
:1017D0000F23A3409A43040C0B46A3401A43324BF9
:1017E0000406A40D1A5100BF042005221207D26876
:1017F000034643435C001B199A43034643434B4350
:101800001A4305231B07DA6000BF00BF1A4612689F
:10181000034643435C001B199A43034643434B432F
:101820001A4305231B071A6000BF06900121684672
:101830000177002141770121817706A8FFF7A0F801
:1018400008200090002001900490694605200007C0
:10185000FFF7FEF802200090012001900320029083
:1018600000200390049069460E48FFF7F1F801202C
:10187000400200900120019000200290039004900B
:10188000694605200007FFF7E3F80021062000F075
:10189000ABFA062001218140044A116000BF08B064
:1018A00010BD0000000400500800014000E100E00D
:1018B00000B58FB01C2108A8FEF797FC182102A8DC
:1018C000FEF793FC01204249C96A0143404AD162B4
:1018D0001146C96A0140019100BF00BF102002906B
:1018E0000220039003200490012005900020069020
:1018F0000320079002A905200007FFF7A9F801209F
:1019000080020290022003900320049001200590A1
:10191000002006900120079002A905200007FFF78C
:1019200097F8012040052A49896B0143284A9163B1
:101930001146896B0140019100BF00BF00211720B3
:1019400000F08EFA172001218140224A116000BF69
:1019500000BF214840680121490608431E494860EC
:1019600000BF00BF0846C068C91388431A49C86051
:1019700000BF00BF084600680121C904884316491A
:10198000086000BF00BF0846006801214904884381
:101990001149086000BF00200890104809900020FD
:1019A0000A900B900C900D900E9008A90A48FFF732
:1019B000EAF800210846084AD268094B1A400B464B
:1019C00003431A43044BDA6000BF0FB000BD0000B0
:1019D0000010024000E100E000540040BB7C7000B9
:1019E00001F8FFFF08B50120C0072849896B0143B2
:1019F000264A91631146896B0140009100BF00BFE8
:101A000000210D2000F068FA0D2001218140204ABC
:101A1000116000BF00201F49C968490849000143FF
:101A20001C4AD16000BF00BF1146C968072252029C
:101A300091430143174AD16000BF00BF1146C968F6
:101A40000122520591430143124AD16000BF00BFF9
:101A50001146C96801229205914301430D4AD160A4
:101A600000BF00BF1146C9680122D205914301435E
:101A7000084AD16000BF00BF1046C0680321490476
:101A800088431146C86000BF08BD00000010024036
:101A900000E100E0007C004000B58DB0182107A8EF
:101AA000FEF7A3FB182101A8FEF79FFB012080048D
:101AB000FEF764FE0120FFF7E9F801200190022003
:101AC00002900320039000200490059006200690C9
:101AD00001A905200007FEF7BBFF0220019002903C
:101AE000032003900020049005900620069001A991
:101AF00005200007FEF7ACFF052203213248FEF760
:101B0000EFFE002203213048FEF784FE002203216D
:101B10002D48FEF75DFE002203212B48FEF7B6FE9E
:101B2000002203212848FEF7CBFE8022032126480D
:101B3000FEF78CFE002203212348FEF7E1FE00227F
:101B400003212148FEF792FE052204211E48FEF7DC
:101B5000C7FE102204211C48FEF75CFE002204216F
:101B60001948FEF735FE002204211748FEF78EFEC5
:101B7000002204211448FEF7A3FE8022042112480B
:101B8000FEF764FE002204210F48FEF7B9FE002292
:101B900004210D48FEF76AFE00211D2000F0D8F94F
:101BA0001D2000F0DBF8E1204002079000200890A3
:101BB00009900A900C200B9000200C9007A9034874
:101BC000FFF78CF80DB000BD000002400048004057
:101BD00000B587B000200490059006900290039015
:101BE000019000BF1448006901218904084312498B
:101BF000086100BF002004907F200590FF20069020
:101C000004A90E48FFF7DDFA00216846017341730D
:101C1000817302AA01210948FFF732FB05216846BA
:101C2000017141711421C17101AA01210348FFF71B
:101C300023FA07B000BD0000401002400028004019
:101C400000B591B0282107A8FEF7CFFA182101A806
:101C5000FEF7CBFA012000033749496B0143364AAE
:101C600051631146496B0140009100BF00BF012044
:101C70001146C96A0143D1621146C96A0140009107
:101C800000BF00BF2020019002200290032003909B
:101C9000002004900590069001A905200007FEF79A
:101CA000D7FE4020019002200290032003900020E4
:101CB00004900590069001A905200007FEF7C8FED4
:101CC00080200190022002900320039000200490C5
:101CD0000590069001A905200007FEF7B9FE002136
:101CE000192000F071F9192001218140134A116077
:101CF00000BF00200790FF200530089000200990C9
:101D000002200A9001200B9040020C9000200D90C0
:101D10000E900F900720109007A90948FFF768FB65
:101D2000002007494968102291430143044A516049
:101D300000BF11B000BD00000010024000E100E053
:101D40000030014070470000C206D20E01219140D0
:101D5000014A11607047000000E100E0C206D20EA7
:101D600001219140014A11607047000000E100E04C
:101D700010B5002819DA1A4A03071B0F083B9B0805
:101D80009B00D2588307DC0EFF23A3409A438B07A6
:101D90001B0E8407E40EA3401A43114B0407240FC3
:101DA000083CA408A4001A5118E00E4A03231B02A1
:101DB000D21883089B00D2588307DC0EFF23A34070
:101DC0009A438B071B0E8407E40EA3401A43054B6E
:101DD000032424021B198408A4001A5110BD00001A
:101DE0001CED00E000E100E010B5002819DA1A4A05
:101DF00003071B0F083B9B089B00D2588307DC0E90
:101E0000FF23A3409A438B071B0E8407E40EA340D5
:101E10001A43114B0407240F083CA408A4001A51CC
:101E200018E00E4A03231B02D21883089B00D258E5
:101E30008307DC0EFF23A3409A438B071B0E840706
:101E4000E40EA3401A43054B032424021B19840803
:101E5000A4001A5110BD00001CED00E000E100E0FC
:101E600010B5002819DA1A4A03071B0F083B9B0814
:101E70009B00D2588307DC0EFF23A3409A438B07B5
:101E80001B0E8407E40EA3401A43114B0407240FD2
:101E9000083CA408A4001A5118E00E4A03231B02B0
:101EA000D21883089B00D2588307DC0EFF23A3407F
:101EB0009A438B071B0E8407E40EA3401A43054B7D
:101EC000032424021B198408A4001A5110BD000029
:101ED0001CED00E000E100E010B5002819DA1A4A14
:101EE00003071B0F083B9B089B00D2588307DC0E9F
:101EF000FF23A3409A438B071B0E8407E40EA340E5
:101F00001A43114B0407240F083CA408A4001A51DB
:101F100018E00E4A03231B02D21883089B00D258F4
:101F20008307DC0EFF23A3409A438B071B0E840715
:101F3000E40EA3401A43054B032424021B19840812
:101F4000A4001A5110BD00001CED00E000E100E00B
:101F500010B5002819DA1A4A03071B0F083B9B0823
:101F60009B00D2588307DC0EFF23A3409A438B07C4
:101F70001B0E8407E40EA3401A43114B0407240FE1
:101F8000083CA408A4001A5118E00E4A03231B02BF
:101F9000D21883089B00D2588307DC0EFF23A3408E
:101FA0009A438B071B0E8407E40EA3401A43054B8C
:101FB000032424021B198408A4001A5110BD000038
:101FC0001CED00E000E100E010B5002819DA1A4A23
:101FD00003071B0F083B9B089B00D2588307DC0EAE
:101FE000FF23A3409A438B071B0E8407E40EA340F4
:101FF0001A43114B0407240F083CA408A4001A51EB
:1020000018E00E4A03231B02D21883089B00D25803
:102010008307DC0EFF23A3409A438B071B0E840724
:10202000E40EA3401A43054B032424021B19840821
:10203000A4001A5110BD00001CED00E000E100E01A
:10204000704700000146002004E0054A125C0A5473
:10205000421CD0B2FF28F8DB014A125C0A547047D8
:1020600024000020014600BF0548C068F02210404F
:1020700010400009034A125C0846D0407047000037
:1020800000100240622B0008014600BF0548C068EE
:10209000072212021040000A034A125C0846D04090
:1020A0007047000000100240722B000810B500BFFE
:1020B0001648C0680C210840002806D004280CD01F
:1020C000082812D00C2816D111E0FEF71DFF400B96
:1020D000401C01218140CC0315E0FEF7E3FE0028FF
:1020E00001D00B4C00E00B4C0DE00B4C0BE000F072
:1020F00015F8044607E0FEF707FF400B401C0121DE
:102100008140CC0300BF00BF204610BD001002403C
:1021100000093D000024F40000127A00F8B500BF69
:102120001448C0680121090408400546002D07D164
:10213000FEF7B8FE002801D00F4C00E00F4C01E084
:102140000F4C00BF00BF00BF0A48C06803218905CB
:102150000840800D461C0748C0680F2189040840CC
:10216000800C0849085C604307463146FDF7DEFFF6
:10217000F8BD00000010024000093D000024F400FA
:1021800000127A007A2B000870470000014600BF59
:1021900000BF134A926802231A405208002AF7D05F
:1021A0000F4A117300BF00BF00BF0D4A9268D207EB
:1021B000D20F01235A405A40002AF5D000BF00BF79
:1021C000074A926880231A40D209002AF7D100BF3B
:1021D000034AD268D0B200BF024A107070470000B4
:1021E000003001401E0000207047704710B50120EC
:1021F000FEF724FC00BF2E480068C007C00F00286F
:1022000001D1FEF797FA0120C002FEF7BFFDFEF7ED
:1022100023FE00BFFEF72AFE0128FBD11020FEF7A7
:1022200035FEFEF7A9FDFEF7C7FDFEF799FE032078
:10223000C002FEF75DFEFEF73DFE00BFFEF744FE66
:102240000128FBD10004FEF7DFFEFEF7ABFD012203
:10225000920511110020FEF75FFEFEF76DFE00BF34
:10226000FEF774FE0128FBD10020FEF783FE00205C
:10227000FEF78AFE0020FEF793FE0320FEF7D0FE55
:1022800000BFFEF7E1FD0C28FBD10A48FEF70CFD6C
:102290000948FFF7EDF80020FEF7AAFE032000042E
:1022A000FEF78AFE03208004FEF796FE10BD0000B4
:1022B0000020024000093D000048E8011548006880
:1022C000FF2101310843134908600846C0681249DC
:1022D00008401049C86008460068104908400D4988
:1022E000086008468068400840008860084600682A
:1022F000012189048843074908600846C068FD2118
:10230000090488430349C86000200861C8030449E0
:1023100088607047001002400C40FF88F6FFF6FE10
:1023200000ED00E0002804D00221054A916100BFC1
:1023300004E00221024A916200BF00BF7047000022
:102340000004005000B500F089F800F07EF800208D
:10235000FFF7E8FFC720FFF719FF0120FFF7E2FFB3
:1023600000F073F800BD000000B500BF0A48006827
:10237000402108430849086000BFFF20FFF706FF1F
:1023800000F033F80549088008460088044988426F
:1023900000D000BF00BD0000003001401C00002044
:1023A00017EF0000F0B506460C4617460020FFF771
:1023B000B9FF0320FFF7EAFE2102080EFFF7E6FE51
:1023C0002104080EFFF7E2FEE0B2FFF7DFFE002572
:1023D00005E0FF20FFF7DAFE7055681C85B2BD42AC
:1023E000F7DB0120FFF79EFFF0BD10B500240020B1
:1023F000FFF798FF9020FFF7C9FE0020FFF7C6FE09
:102400000020FFF7C3FE0020FFF7C0FEFF20FFF70C
:10241000BDFE00020443FF20FFF7B8FE0443012085
:10242000FFF780FF204610BD10B500240020FFF705
:1024300079FF0520FFF7AAFEFF20FFF7A7FE04465D
:102440000120FFF76FFF204610BD00B500BFFFF76A
:10245000EBFFC007C00F0028F9D100BD00B5002078
:10246000FFF760FF0620FFF791FE0120FFF75AFFFC
:1024700000BDF0B507460E461446F0B2FF2101310B
:102480000D1AAC4200DC254612E02A463146384699
:1024900000F011F8AC4200D10BE07F197619601BF7
:1024A00084B2FF200130844201DD054600E025466C
:1024B000EBE700BFF0BDF0B506460C461746FFF748
:1024C000CDFF0020FFF72EFF0220FFF75FFE210265
:1024D000080EFFF75BFE2104080EFFF757FEE0B27F
:1024E000FFF754FE002504E0705DFFF74FFE681C07
:1024F00085B2BD42F8DB0120FFF714FFFFF7A5FF0F
:10250000F0BD000010B51948007800281DD118480A
:102510000078002828D00020154908701548006868
:102520000121090688420CD20A1412480168124897
:10253000FFF79FFF0F480068FF3001300D4908602A
:1025400012E00120094908700EE00C4800780028CC
:102550000AD000200949087000BF01214902052066
:102560000007FEF7F6FA00BF10BD000005000020CE
:1025700004000020140000203C020020060000207F
:10258000F8B582B28BB2040C0D0C104658430021F2
:1025900026465E43370C36048019794116466E4351
:1025A000370C36048019794126466E438919F8BDE7
:1025B00030B47446641E2578641CAB4204D3635D5A
:1025C0005B00E31830BC18471D46F8E702E008C876
:1025D000121F08C1002AFAD170477047002001E09D
:1025E00001C1121F002AFBD170477CB504460D467D
:1025F000164669460220FDF7F7FF002800D142E0A9
:1026000001A90320FDF7F0FF002800D13BE0694657
:10261000087940B200020978F02211400843001105
:10262000208069460420FDF7DFFF002800D12AE062
:1026300001A90520FDF7D8FF002800D123E0694655
:10264000087940B200020978F022114008430011D5
:10265000288069460620FDF7C7FF002800D112E058
:1026600001A90720FDF7C0FF002800D10BE0694653
:10267000087940B200020978F022114008430011A5
:10268000308001207CBD0020FCE700001CB5044622
:1026900009A103C901910090082C00DB09E06846FC
:1026A000015D1020FDF7A9FF002800D101E0012005
:1026B0001CBD0020FCE7000008090A0B0C0D0E0FE2
:1026C00010B500F05FF901282AD1002000F029F9A7
:1026D00000F089F9012000F066F90220FFF7D6FF2B
:1026E0000B21012000F0CEF800220121104600F05D
:1026F000DDF800220121084600F0D8F8012102206F
:1027000000F010F80121022000F064F801210846D1
:1027100000F008F80121084600F05CF8012010BD27
:102720000020FCE770B58AB004460E4624222849F2
:1027300001A8FDF741FD002E23D000BF610001AAD2
:10274000505C6946FDF750FF002801D1002517E0D5
:10275000600001A940184178012088406946097845
:102760000843C1B20091610001AA505C6946097832
:10277000FDF743FF002801D1002501E0002500BF3F
:1027800022E000BF610001AA505C6946FDF72CFF02
:10279000002801D1002516E0600001A94018417809
:1027A000012088406946097881430091610001AAAF
:1027B000505C69460978FDF720FF002801D100250B
:1027C00001E0002500BF00BFE8B20AB070BD000004
:1027D000342B000870B58AB004460E4624222849DE
:1027E00001A8FDF7E9FC002E23D000BF610001AA7B
:1027F000505C6946FDF7F8FE002801D1002517E07E
:10280000600001A940184178012088406946097894
:102810000843C1B20091610001AA505C6946097881
:10282000FDF7EBFE002801D1002501E0002500BFE7
:1028300022E000BF610001AA505C6946FDF7D4FEAA
:10284000002801D1002516E0600001A94018417858
:10285000012088406946097881430091610001AAFE
:10286000505C69460978FDF7C8FE002801D10025B3
:1028700001E0002500BF00BFE8B20AB070BD000053
:10288000EC2A000870B505460C46102C00DB0BE066
:10289000E8012043C6B231462120FDF7AEFE0028F4
:1028A00000D101E0012070BD0020FCE7F8B504462E
:1028B0000D4616460020009069462020FDF794FE44
:1028C000002800D12BE0022C00DB28E0002C0ED1E8
:1028D00069460878FC2108400090E807800FF1075E
:1028E000C90F084369460978084300900DE069461E
:1028F0000878F32108400090E807000FF107490F1E
:10290000084369460978084300906846017820200A
:10291000FDF773FE002800D101E00120F8BD002082
:10292000FCE770B506463300FFF742FE0604070ACF
:102930000D0F1215002400250EE0402400250BE0A9
:102940008024002508E0202406E04024402503E000
:102950008024402500BF13E000BF29461220FDF768
:102960004CFE002800D10BE00120FEF787FD214638
:102970001120FDF742FE002800D101E0012070BDCA
:102980000020FCE708B569460020FDF72DFE012870
:1029900000D006E068460078FA2800D001E0012067
:1029A00008BD0020FCE770B50546012D06D0022DBC
:1029B00006D0032D06D0042D08D105E0032406E03F
:1029C000052404E0082402E00C2400E009E000BF34
:1029D00021460F20FDF711FE002800D101E0012063
:1029E00070BD0020FCE710B5B6211420FDF705FEF0
:1029F000002800D101E0012010BD0020FCE700000C
:102A000008494988481C07490988C217120E12183C
:102A100012121202821A914201D101207047002045
:102A2000FCE700002401002008B501202349496B80
:102A30000143224A51631146496B0140009100BF96
:102A400000BF00071146896B014391631146896BF2
:102A50000140009100BF00BFFFF7C8FBFEF796FEE4
:102A6000FEF776FEFFF718F8FFF7B2F8FFF7E8F881
:102A7000FEF7B8FF00BF0120400205210907886268
:102A800000BF00BF7D200001FEF7F8FC00BF012061
:102A9000400205210907886100BF00BFFEF73EFD27
:102AA000FFF762FCFDF7CAFCFFF79DFFFFF708FE8A
:102AB000FEF7FCFC01E0FDF73FFEFCE700100240E2
:102AC000081C3044580000001E001E001E041E0496
:102AD000FF00FF00FF00FF00FF001E051E001E019B
:102AE0001E011E011E031E031E031E0319071906E5
:102AF000190519041902190219021A011A021A00F9
:102B000019001901190119011903190319031903EE
:102B10001B071B061B051B041B021B021B021A06BC
:102B20001A051A071B001B011B011B011B031B03BA
:102B30001B031B03160716061605160416001601BE
:102B400016021706170517041703170017011702B7
:102B50001803180018011802081C304458081C30CB
:102B600044580000000000000000010203040607B2
:102B700008090000000001020304030406080C1009
:102B800018203000A42B00080000002024000000C2
:102B9000CC250008C82B0008240000201C070000DA
:102BA000DC2500080000000000000000000000001C
:102BB0000000000000000000000000000000000015
:082BC00017EF000000002000E7
:04000005080000C12E
:00000001FF
