:020000042000DA
:1000000000980020A5040020AD040020C5040020B5
:1000100000000000000000000000000000000000E0
:10002000000000000000000000000000DD040020CF
:100030000000000000000000F5040020F70400208C
:10004000D92A0020BD2B00200D310300AB2B00204E
:10005000412B00208D310300CF2B0020DD2B002011
:10006000F9040020F11F00201D2C0020AD310300F9
:100070003F520020F9040020F9040020F904002078
:10008000F9040020F9040020F9040020A91F002031
:10009000AD1F0020B11F0020B51F0020B91F002098
:020000042000DA
:1001600032000000C506002057270020E72E00209F
:10017000000000000000000063800200BD8002005B
:10018000AD0A0020FB8002001981020035810200C7
:100190005D8102001D290020290B0020990A002002
:1001A000A30A002000000000000000003F00000043
:1001B000F487002000080000680D0800900200008D
:1001C00068070800F405000004100800000800009B
:1001D000000000002000000048000000580000005F
:1001E0006800000004010000160100002801000062
:1001F0002E010000202A00008E2E000001000000C9
:1002000088130000E1270020E9600200FD9302004E
:100210003D13002019280300A57402000D060020DC
:1002200003000000D5200200232F0020040000005E
:10023000D74902000F490200FD0B00206391020024
:10024000B7910200BF910200078202007182020092
:10025000FE720020AD8302009384020041850200FB
:1002600015860200378602005F860200758602004E
:10027000F9870200258902005D8A0200D38C020002
:10028000098D02000F900200438D0200278E0200AC
:10029000F98E0200478F02000F0A0020D58F02005E
:1002A00049510200775102002F5202001000000055
:1002B00020030000803E000000000000000000005D
:020000042000DA
:1002C000504600030003983A6400F401B80B000C98
:1002D000B80B120030003000CD009A01120024004B
:1002E00030006400B0001800280012001200D0078F
:1002F0000000FFFF00000000000000000000000000
:100300001F000002444131343538302D30310000B7
:1003100000000000000000000000000000000000DD
:0403200000000000D9
:020000042000DA
:10034000FFFF010000C201000000000000000000EB
:100350000000F4010100010000080000000000009E
:10036000000000000000000000000000000000008D
:10037000000000000000000000000000000000007D
:10038000000000000000000000000000000000006D
:100390000000000000000000000046432D31353011
:1003A00030200000000000000000000000000000FD
:1003B000000000000000000000000000000000003D
:1003C000000000000000000000000000000000002D
:1003D0000000000000000000070000CAEA80D0070B
:0403E000064064323D
:020000042000DA
:100440000348854606F0F8FB00480047C720020035
:10045000009800200F4906200880FF200E49013037
:1004600008600E4988683E2290432E308860002242
:10047000052000070280018A0F231B021943018215
:1004800001210748C90404C1401E0028FBDA62B6F6
:10049000704700000034005080E100E0003300505D
:1004A000FF0B00001548804715480047042071469F
:1004B000084203D0EFF3098012490847EFF30880A0
:1004C0001049084704207146084203D0EFF3098021
:1004D0000D490847EFF308800B490847042071468F
:1004E000084203D0EFF3098008490847EFF308807A
:1004F00006490847FEE7FEE7FEE700005504002036
:10050000410400207105002011050020FD0D002090
:1005100005221207518A8023194351821249036828
:100520000B6043684B6083688B60C368CB60036972
:100530000B6143694B6183698B61C369CB6108625D
:100540000A48836A4B62C36A8B62036BCB62C36BDC
:100550000B63436B4B63806B8863908A800601D585
:1005600000BE7047FEE700000018080000ED00E044
:10057000052109070A8A04231A430A820A8A0223E8
:100580001A430A820A8940231A430A811B4B01221B
:100590001A601B4B08221A804A8A80231A434A8217
:1005A000184A036813614368536183689361C368A1
:1005B000D361036913624369536283699362C369B8
:1005C000D36210631048836A5363C36A9363036BF7
:1005D000D363C36B0B4A40321360436B5360806B31
:1005E0009060888A800608D500BE488A012280086B
:1005F0008000D203104348827047FEE780E200E0AB
:10060000003300504018080000ED00E070B51646B9
:100610000C460546012802D00C2D26D10DE00622FD
:100620002149224806F01AFB00281ED006221F4945
:10063000304606F019FB062012E01D4D29680878A7
:10064000C00610D52078202803D200202070042076
:1006500070BD0A7E30463A3106F006FB2868007EFF
:100660002070002070BD012070BD32462146284612
:1006700006F000FB70BD70B50E480F49C405228816
:1006800080252A4322800D4A53891B0701D4401E2E
:10069000FAD20B4A012010600622044806F0E4FA60
:1006A0002088A843208070BD383E0300BC80002015
:1006B000C0060800A0860100D47F0400200000507E
:1006C0000080004008B500F03CFA0025052424070E
:1006D00009E004216846009506F0D2FA002816D0F9
:1006E00000F0A3F913E02089000610D5012080074F
:1006F000006B00040BD406F0C9FAC00707D1042030
:1007000006F0CAFA064606F0CDFA002EE1D172B61E
:1007100002F0EAFA042806D002280BD0032809D0F8
:10072000012816D016E051480078012801D0032096
:1007300000E0022000F010F8A08A800602D54C49A3
:100740000820088030BF4B480169042291430161B1
:1007500000E030BF62B6C6E7F8B504466846052536
:1007600004702D07288A0421084328824248434FF9
:10077000C0690126012811D9032C18D106F098FA76
:10078000002814D006F09AFA002810D0032006F0B2
:100790009BFA00280BD00220387009E0032C06D108
:1007A000032006F091FA002801D03E7000E00224F8
:1007B00068460470204600F023F800203049022CDF
:1007C000087001D0032C1AD12E494A88FF23013327
:1007D0009A434A806A882C4B1A804A8832434A805E
:1007E00000900099491C00911429FADB6989890855
:1007F0008900491C698169894906FCD56880F8BD72
:1008000010B5022801D0032828D11A490B69042207
:1008100013430B61052109074B8A2024A3434B8214
:100820000B8A022423430B8210230228488A16D005
:10083000104348827F220888920180242043088048
:100840000020401CC0B20A28FBD3488A18434882C3
:100850000E48521E42610888A043088010BD104314
:100860004882488A9843488210BD0000540208001C
:100870000033005000ED00E0E0010020C406080055
:1008800011810020200000501281002000800040D3
:100890007047000026480178002902D0802141706D
:1008A00070472449002008702349C87070472048C9
:1008B0000178002902D08121417070471D49012033
:1008C00008701D49C870704719480178002902D086
:1008D00082214170704700BE1649022008701649F7
:1008E0000120C8707047002804D0012803D00228D6
:1008F00002D1E9E7CEE7DAE770470D48C0787047E4
:100900000020EFF31081012282F3108805221207E4
:100910001289120605D40948028901231A4302816B
:100920001846002900D0012181F31088704700008B
:10093000C380002054020800C6060800003300509F
:1009400070B505200007018930229143018101899A
:10095000802211430181018989088900491C018194
:100960000189082319430181AC490C8814430C8088
:10097000448A9C4344820589402425430581058A95
:100980000426B5430582858AAD07FCD5A44E002513
:1009900075600E8801252E430E804D89AE05A14D50
:1009A0000E8801D52E4300E0AE430E800D887826D8
:1009B000B54328350D800D88062635430D80458AC0
:1009C0001D4345820B8893430B800289A243028119
:1009D0004889800503D59149052060318880012030
:1009E000800701688215914301608F4801683F22AA
:1009F00052029143421489180160016802031143B5
:100A0000016070BD10B5894806F064F910BD70B57D
:100A1000824C6088C006050F06F062F961881E22CC
:100A200091436A001143618070BD70B58049012017
:100A3000C863C86B0028FCD101208007C1697D48CC
:100A400000220368994200D20260754C0126637847
:100A5000794D002B04D06270016006F047F911E077
:100A6000026819238A1ADB019A4214D3016006F046
:100A70003DF92988884201D9411A00E0091A89B252
:100A8000182908D32880012006F036F906F03AF933
:100A9000002800D1667070BD08B506F039F90090E5
:100AA00008BD08B506F03AF9009008BD08B56349DD
:100AB00001204A695206D20F13D04A699206D20F1A
:100AC0000FD000220A610092FF225F32009B5B1C64
:100AD00000939342FAD34969C907C90F02D006F0BF
:100AE00023F9002008BD1FB5684601F084FB00987B
:100AF00006F020F91FBD524B0020197800290DD0B7
:100B00004B490122CA63CA6B002AFCD10121890723
:100B1000C9694C4A1268914201D2012070470021F4
:100B2000197070470020704710B5474900200860D1
:100B3000FFF768FF01208007016B49004908016346
:100B400010BD10B53E4901200870404908200880BA
:100B500006F0F6F801F034F9FF2401340D202146A7
:100B6000800106F0F3F8FFF786FD04F0A4FA0120F7
:100B700006F0E0F801F052FDFFF7E2FE042000F07D
:100B800045F8072000F042F80A2000F03FF8062060
:100B900000F03CF80B2000F039F8012000F036F8A6
:100BA000022000F033F8002000F030F828480068F8
:100BB00006F0D2F800F0A3F800F0DCFF00F0CBF96B
:100BC00001F081F8A005016821430160FFF78BFF68
:100BD0000024FFF75FFE02F0B9FE04F056FEFFF7B7
:100BE000A3FF05200007C4820C494888E0229043F7
:100BF000A0304880012006F0B5F810BD154910B5A9
:100C0000884200D000BE06F0B3F810BDC106C90E80
:100C10000120884010490860704700002000005003
:100C2000C88000200010000000020040E204000024
:100C3000C00000407C040800780408000010005048
:100C4000C28000209C7A00208C03080000330050F2
:100C5000049000201111111180E200E0FEB5784DE2
:100C6000019117461E4600240090294606F086F89A
:100C7000050005D033463A4601990098A847044636
:100C80002046FEBDFFB581B01F460E464D780C785C
:100C9000002006F079F8042824D000281DD121E096
:100CA0006848816E2E206043091888880207120F59
:100CB000130006F06FF8070505050F050F050F0077
:100CC0008204920E062A05D27278012A12D00722D7
:100CD00010438880641C6407640F28466D1EEDB2C3
:100CE0000028DDD13B463146039A019806F058F8BA
:100CF00005B0F0BD204606F059F80020F8E770B5C1
:100D000051480378021D0021504D07E0CC00165DCC
:100D1000002E01D12418A560491CC9B29942F5D30F
:100D200070BD028908894A49101A80B2884201D9E7
:100D30000120704700207047FFB5867804463002D6
:100D400081B00E30009006F01FF8002801D0FF2679
:100D500052E00021442006F02FF83E4FB5007851B4
:100D6000442106F02FF80121009806F031F8795956
:100D70000298888079596088C88078592279203013
:100D8000417CD20749084900D20F11434174785978
:100D90000622A11D3B3005F067FF7859617940308C
:100DA0004170785906223430039905F05DFF795976
:100DB00004982031887602980D281DD026481023EB
:100DC0000088009A81B2254806F008F80546608838
:100DD00028806079687228460622A11D0A3005F035
:100DE00043FFA0896880E089A880208AE880A07CF1
:100DF0002872284605F0F8FF304679E781692039E6
:100E0000897F082905D2114A890010325158816121
:100E10007047FEE70D4A12493032002008CA401CD4
:100E200008C11028FADB01200E49C00608600E49EF
:100E3000CA691202120ACA610A49803908607047F9
:100E400084430300D8020800040608003073002021
:100E500030750000540508006001002001380000D2
:100E60001084004080E100E000ED00E070B516461F
:100E70000D46104605F088FF00286AD0340A304637
:100E800005F082FF012812D0A87A1E2811D0294629
:100E90000A310E2846D019DC801E030005F07AFFC7
:100EA0000B255929592D59315939593E59000220DC
:100EB00070BD3146314805F09DFF0021204605F008
:100EC0009FFF0221304605F083FF42E018283DD005
:100ED00006DC102819D012282CD0162839D131E080
:100EE000522823D0D22834D128E0204605F08EFFA6
:100EF0002FE0204605F090FF2BE0204605F092FF02
:100F000027E0204605F094FF23E0204605F096FFF9
:100F10001FE01B4A2046126890471AE0204605F061
:100F200093FF16E0204605F095FF12E0204605F0FD
:100F300097FF0EE0204605F099FF0AE0204605F0F5
:100F40009BFF06E0204605F09DFF02E0204605F0ED
:100F50009FFF002070BD70B50A480378021D002174
:100F6000094D07E0CC00165D0A2E01D12418A560BA
:100F7000491CC9B29942F5D370BD00000128000098
:100F8000147300200406080000740020F7B507461B
:100F90001646019805F082FF0546C488384605F0DC
:100FA00083FF401E844200D2204684B222460B2199
:100FB000384605F07FFF0746002E05D033460A214C
:100FC000019A05F07DFFFEBD29467C80224608314E
:100FD000381D05F049FE384605F078FFFEBDF8B52E
:100FE0000646002000900C464A8801466B46304673
:100FF00005F072FF020001D061881EE0608805F0F4
:1010000071FF002817D005890120EAB2002105F000
:101010006FFF0C4B0CCB1040194008430BD0320231
:101020000223294608480A3205F0D8FE618801806B
:1010300005F0DAFE04E0618800223046FFF7A6FFE3
:101040000020F8BDE080002002280000F8B50D4621
:10105000064681002B48EA884458521C20686B8958
:10106000018F294F51430091014640314A89C98976
:10107000511A8AB2991A89B2B94214D29A4212D03C
:10108000294605F03BFF2D892049009805F03CFFDB
:101090002818801C4034E0823002401C80B20421B9
:1010A00005F096FEF8BD2821304605F033FFF8BD67
:1010B000F8B50546870013480C46C059C988006832
:1010C000114E024640325389D2899A1A92B28B1A33
:1010D0009BB2B34211D20B4E8A420ED005F020FFD4
:1010E000F05905225F30611C05F0BEFD2802401C4E
:1010F00080B2052105F06CFEF8BD2821284605F0D8
:1011000009FFF8BD4C030800FF7F00001027000016
:1011100070B50446007800250D2801D00A2200E0B1
:1011200002225A494B7A002B06D00D2804D0637C4A
:10113000032B01D0432551E0097A8A4339D10D2888
:1011400009D00E2802D00F2803D134E0607C032898
:1011500004D3402542E0607C0328FAD8A07C042810
:10116000F7D20A2908D0607C012822D0022820D09A
:101170006078032809D811E005F0D8FE012806D1CF
:101180006078032803D0002801D0492526E005F027
:10119000CDFE002802D160780228F6D83020035D09
:1011A00022462046E17C3132143000F019F8054621
:1011B00014E0422512E005F0B9FE012807D160785D
:1011C000052804D1A01D05F0B7FE0028DDD005F0EC
:1011D000ADFE002802D160780228D6D8284670BD1E
:1011E000FFB5002086B001216A46117004460591C2
:1011F0000021002C06D0089D099A1F239A4234D959
:10120000402032E01C23069D079AF7E76B185E78B2
:10121000330005F0BFFD1D26101010101010101027
:1012200010262626262626262626262626261010A0
:10123000101010102600059B03E06F46FF5CB742BC
:1012400004D05B1E5BB2002BF7DA03E0002B01DB5E
:101250004A2006E0059B6F46FE54059B5B1CDBB2F3
:1012600005936B5C491C5918C9B2914201D2002800
:10127000CCD0914202D04A200AB0F0BD641CE4B246
:10128000022CF9D20028B3D0F6E700009805080038
:1012900070B5EFF31085012080F310882C4805F01D
:1012A00051FE0446002D1DD0012080F31088002C33
:1012B0002DD020464038C08F2649884227D16189E9
:1012C000208905F045FE05000ED021461031A38986
:1012D00062892089A847002806D0012817D0022853
:1012E00015D105E00020E0E7204605F037FE0EE0CE
:1012F000EFF31085012080F31088154821460C304B
:1013000005F032FE002D0CD0012080F31088EFF3A1
:101310001084012080F310880D480068002802D056
:1013200004E00020F1E7012005F024FE002C03D0AA
:10133000012080F3108870BD0020FAE710B5BC21B1
:10134000054805F03FFD0549012005F019FE10BDD7
:10135000A805080038830000040608009112002048
:1013600000B502790021130005F014FD0C340707C5
:10137000353520353535353527344279042A27D897
:10138000C279530707D05207520F012A03D0042A0B
:1013900001D0052A1CD18279002A01D0012A17D157
:1013A000007AC01F0A2816D3062114E04279521E83
:1013B0000A2A10D3082242710DE0407942070AD070
:1013C0004007400F012806D0042804D0052802D089
:1013D0000A2100E00721084600BDF3B581B001985D
:1013E0000C460102CA1D022332480E3105F0F6FCFC
:1013F00004700199054602272F488E00002C06D064
:10140000042C16D0062C10D0072C3FD108E08159AF
:1014100005224968897C114069708059C77335E09D
:10142000084605F0B3FD687030E080590F21C173A4
:101430002CE0044680594068417C012902D1007E9D
:1014400001280FD0019805F0A7FD01210028A0591F
:101450000BD04268D07D00281CD001281AD0042867
:101460000DD00FE0002068700DE04068C27D022AB8
:1014700001D0042A06D1007C02280BD102E0107CA6
:10148000022807D06F70A1590320C873284605F0C1
:10149000ABFCFEBD6970F6E701460A780120042A1C
:1014A00001D90020704749780029FBD00129F8D1E3
:1014B00070470000021C000028050800FFB589B035
:1014C0000D4600206946059008720B98000A0090AE
:1014D00005F062FD07460B9805F056FC00287DD00C
:1014E0000B982978000A8400784E012963D00429DA
:1014F00004D0062948D0072968D125E03059C17B9E
:10150000032901D0042961D1697800291AD04068E3
:101510001022A91C05F0A8FB002F06D03159C87B6A
:10152000032807D0042808D050E03059C07B032896
:1015300003D04BE00B20C87348E00521009805F06C
:1015400031FD43E00120B6E03059C07B0E283DD18B
:10155000009805F01BFD002103E02A18401C917043
:10156000C0B21028F9D3688A69460883294606A8BC
:1015700008221431023005F077FB06ABAA1C39466D
:10158000009805F015FD21E03059C07B0F281DD1D2
:10159000AA1C0A21009805F011FD002F04D039463D
:1015A000009805F011FD11E000231A463946009815
:1015B00005F010FD0AE0012F08D10B9805F0E4FBBF
:1015C00001281CD0002801D0022005906846007A2E
:1015D000002811D002AA0521009800E00CE005F0D7
:1015E000EDFC6846027A60200243684602720123DD
:1015F0003946009805F0EEFC05980DB0F0BD305965
:10160000C07B0228E2D16878002851D002210B98D3
:1016100005F0DEFB305907224068A91C173005F0A1
:1016200023FBE878002804D130594068407C012829
:101630003AD0009805F0D4FC002837D0297A0098D9
:1016400005F0D4FC002833D0009805F0D5FC01212A
:10165000009805F0D7FC00282CD030594068417E16
:1016600000292BD0042929D0C17E027D1140C176EA
:1016700030594068017F427D114001776846007A09
:101680000028A7D13059022142680098173205F08E
:1016900095FC305941684031897B002913D00421E1
:1016A0000098FFF79AFE91E7022004E0062002E08E
:1016B000082000E00320694608728BE70021C1760C
:1016C00030594068D9E70B21C1737FE7280508002E
:1016D000F8B50546FD49123080B2496E2A225043C2
:1016E0000C1804202071241D05F092FC0090204667
:1016F000093004226946064605F0B6FA05F088FC72
:10170000009004226946601C05F0AEFA05F080FCEA
:10171000009004226946601D05F0A6FAEC4A2946AD
:10172000964600204E22EB4BB4465143420066469B
:101730009619727836781202324376463668871CDC
:1017400076187F00FF18F253401C0228EEDBE249B6
:10175000A80008580822611C783005F085FA280294
:10176000401C80B20D2105F033FB0D21284605F009
:1017700055FCF8BDF3B5044681B0042005F054FCD7
:101780000246D549A0000858002A25D0029908220F
:1017900070300B3105F068FA0299204613318C46FF
:1017A0000022CB4B4E21CB4E4843550061466F186B
:1017B00079783F78090239431F683F18AD1979538A
:1017C000521C022AF1DB20460299FFF781FF2046D6
:1017D000029905F02FFCFEBD6030C17B490704D59E
:1017E0000621204605F02CFCFEBD2102491C807B11
:1017F0008DB2002807D07D2252012946B74805F056
:1018000025FC032100E00121284605F0E1FA06212C
:10181000204605F021FCFEBDFFB581B00398070A04
:1018200005F0B2FA0646102836D004DC002E37D078
:10183000082E04D130E0142E32D0152E0BD0A64C39
:10184000BD0060596030C07BC00607D53D213846D9
:1018500005F060FB24E0022005B0F0BD05F002FCBD
:1018600001281DD1032E07D19C48039905F0C2FA27
:101870006059012160308173605918226030C17B4A
:101880001143C17360598030007C002804D00721C7
:10189000039805F09DFADEE738460299FFF76AFFE4
:1018A0000020D9E710B50C4605F0E2FB21888A003C
:1018B000894989580968002902D0894BC96899501B
:1018C00010BDF8B50E461046150A05F05DFAAC00DD
:1018D000814F002817D0142815D0152809D0385961
:1018E0006030C07BC00606D53D21284605F012FBBE
:1018F00009E0022008E005F0B5FB012803D13146DC
:101900002846FFF7A3FB002039590968002902D0B7
:10191000734AC9681151F8BDFFB50F461546110A43
:101920006D4A8800125881B012681E46002A01D004
:10193000D46803E06A4A002314581350002C18D0CE
:10194000201F4288674B9A4213D10088602810D12B
:101950002046403002898A420BD18088002808D076
:10196000A068002802D0204605F088FB204605F03C
:101970008BFB33462A463946019805F08BFB6BE713
:10198000F8B5160A544CB5006059174600281CD00B
:101990004030017E104605F01BFA384605F0F4F998
:1019A000012802D006280FD108E061596031C87BB8
:1019B000020709D5F7221040C87305E0605980304E
:1019C000417C304605F0A6FA0020F8BDF0B5064689
:1019D000050285B0681C009080B2014602903F4825
:1019E00005F008FA0121029805F0F2F905F03AFB3A
:1019F000394CB7000128E05903D06030C17BE722A1
:101A000014E06030807B002809D07D2252013348E9
:101A1000029905F01BFB0321029805F0D9F9304625
:101A200005F03EFBE0596030C17BEF221140C173ED
:101A3000E0596030C17B4A0711D5FB221140C173C8
:101A40000098ED1D82B225480024A9B204230D3868
:101A500005F0C4F94680047005F0C6F9FCE60022E2
:101A60000121304605F022FBF6E610B51046140AB7
:101A700005F08AF90B280CD01749A00008586030EF
:101A8000C07BC00603D53D21204605F043FA002067
:101A900010BD2046FFF79AFFF9E770B510460D46D6
:101AA000140A05F071F9002828D0142826D015282A
:101AB0001AD00949A00008586030C07BC00615D56F
:101AC0003D21204605F026FA18E00000D802080063
:101AD000E0010020300008004C030800240400004E
:101AE000E880002038830000022070BD05F0BAFABB
:101AF000012803D129462046FFF7DAFA002070BDFD
:101B0000F8B507461D460E461446104605F03CF94A
:101B1000142806D02B4622463146384605F0CCFA2A
:101B2000F8BD0020F8BDF8B507461D460E46144620
:101B3000104605F029F9142806D02B4622463146D6
:101B4000384605F0BFFAF8BD0020F8BDFEB5124DCD
:101B5000019117461E4600240090294605F00EF913
:101B6000050005D033463A4601990098A847044637
:101B70002046FEBD70B509480378021D0021084DBE
:101B800007E0CC00165D012E01D12418A560491C88
:101B9000C9B29942F5D370BD8C4103000406080018
:101BA00020750020FEB5514D019117461E460024B8
:101BB0000090294605F0E2F8050005D033463A4684
:101BC00001990098A84704462046FEBD70B5064618
:101BD00014460D46104605F0D7F8240A002836D0E2
:101BE0004348301806D001281FD00C2821D00E28D9
:101BF00027D11AE02878002829D03E4DA600A85900
:101C0000428E002A23D041230121204605F060FAAC
:101C1000A95900204886A8590068002817D1200239
:101C200001210E3005F0D4F811E02878002808D101
:101C30000DE0204605F052FA0A2808D1287800283D
:101C400001D0412100E00021204605F04DFA00209E
:101C500070BDF8B515460C46104605F095F82F0AEC
:101C600000282CD0234DBE00A859408E0D280BD043
:101C70002148A2780088217983B2384605F03AFAE3
:101C8000A859408E00280CD02078002819D0412374
:101C9000A8590121428E384605F01AFAA9590020A8
:101CA0004886384605F01AFA012803D046213846FE
:101CB00005F01AFA22796188384605F021FA0020E9
:101CC000F8BD0023E4E7F0B50D480E23021D0B4CD0
:101CD0000578002107E0CE00975D9F4201D13618BC
:101CE000B460491CC9B2A942F5D3F0BD284903002C
:101CF000F4FBFFFF54050800600100205075002030
:101D000004060800F3B50546204980000C58280257
:101D1000401C87B281B00026384605F035F81528FA
:101D200007D19520005D002803D005F09BF900281D
:101D300018D023464033988AD98A884200D808466A
:101D40004004020C99823946114805F07FF90121BF
:101D500094200155384605F03BF88034607D00281A
:101D600005D101E01F26F8E7A07D00280CD0002057
:101D70006075A075022005F057F9002804D02946A7
:101D80003046029A05F0C2F9FEBD00004C0308007F
:101D90002304000005200007018830221143018040
:101DA0000188032211430180704705200007018844
:101DB00030229143018001888908890001807047A1
:101DC000FEB50020854E0346282200214243921989
:101DD0008C00491C13510A29FADB401C0428F3DB50
:101DE00003F0E0F87D4800220838026042601546A2
:101DF00000247B486900475A0120A04080B2074276
:101E00001CD0282068438019A1004058411C19D0DB
:101E1000002810D0C117224605F06AF82A0105F003
:101E200067F86E4B083B1A685B6810436B4A1943AE
:101E3000083A10605160641C0A2CDDDB6D1C042D17
:101E4000D6DBFEBD0095019400BEE3E7F8B516466B
:101E500004460D460A461F460120002105F048F8B9
:101E6000220105F045F85D4B083B1A685B6810409D
:101E70001940084300D100BE032C00D10424594965
:101E800060014018690008183E43C680F8BD70B56F
:101E900004460D460A460120002105F029F82201DA
:101EA00005F026F84D4A083A136852681840114068
:101EB000084300D100BE032C00D10424494960012D
:101EC00040180121A940818070BD70B504460D46BF
:101ED0000A460120002105F00BF8220105F008F860
:101EE0003E4A083A1368526818401140084300D12E
:101EF00000BE032C00D104243A496001401801219E
:101F0000A940418070BDFFB581B00C4605460A4628
:101F10001F46012000210A9E04F0EAFF2A0104F076
:101F2000E7FF2E4B083B1A685B68104019400843D6
:101F300000D100BE002E2146284602D0FFF7C5FF83
:101F400001E0FFF7A4FF3B4621462846039AFFF72E
:101F50007DFF05B0F0BD70B50124214613388140E6
:101F60000D4688B200F02AF884401F48C189A94371
:101F70000C43C48170BD10B50446133804280BD837
:101F80002046FFF7E8FF1549A000A031401880382F
:101F9000406B002801D0804710BDE106C90E01202A
:101FA00088401249086010BD1320E4E71420E2E7DE
:101FB0001520E0E71620DEE71720DCE700280AD02E
:101FC000411E4840C003010C002001E04908401CAC
:101FD0000029FBD100E0102080B27047088000206B
:101FE00060750020003000500014005080E200E0D6
:101FF00010B5FFF7DAFE052109078888174AC30BD9
:10200000104618D0164B1C88640714D51178890720
:1020100010D51988022211431980198849084900EE
:1020200019804468002C05D0985E0421595E0A226C
:102030009A5EA04710BD8988C906FBD51178C907EB
:10204000F8D0084901228A800A8880239A430A80AE
:1020500080680028EED0804710BD0000008100207D
:10206000000200500001005008430121890303468B
:102070000B432E490B802E4B184308800920024346
:102080004A80704729490A880F239B0100079A4319
:10209000800D02430A8070472448264902880223A3
:1020A0001A430280491E02D302889207FAD4002103
:1020B0000181408970470AE000BF00BF00BF00BF38
:1020C00000BF00BF00BF00BF00BF00BF00BF401E79
:1020D000F2D2704770B50222510204464E003046DB
:1020E000FFF7C2FF1420FFF7E6FF002C01D0092004
:1020F00000E00720FFF7C6FFFFF7CEFF05460120EF
:10210000FFF7D9FF022200213046FFF7ADFF002C78
:1021100001D0092000E00720FFF7B4FFFFF7BCFF64
:102120004019024A0021118070BD000000150050C6
:1021300001400000A086010008B5892105200007A4
:1021400001810121614A49031180018880221143E4
:10215000018001888908890001805D48018A022286
:102160001143018200F084FA04F0D6FF04F0DAFF94
:102170000020694601E00888401C088008889128F2
:10218000F9D308BD08B55349002008804880534A58
:10219000514BD380FF23D2331381C880C321518098
:1021A0004F4A082111806946088003E06A46118879
:1021B000491C1180694609889129F7D3694608802E
:1021C00003E06A461188491C1180694609889129F3
:1021D000F7D3694601E00888401C088008889128E8
:1021E000F9D308BD3F4A5080918001201080D088EB
:1021F000C007FCD17047F1B5FFB0FFB094B011AC8F
:1022000033480494008AA41C1090FFF795FF3148CE
:1022100001880F9141880E913049CA880D920A8930
:102220000C92C2880B92408B0A902F4840880990EC
:1022300048888446FFF7A6FF00252B46FF2111A8FA
:10224000FFF7D0FF00210A460846049E275C365C53
:102250007E40F607F60F8E401643491CC9B2F2B213
:10226000082906D1FFA9C96C4A556D1C0021ADB2E1
:102270000A461030FF2680B2B600B042E5D95B1C9A
:102280009BB2022BDAD3124910980882144900201D
:10229000088010480F9901800E9941800F490D9ACE
:1022A000CA800C9A0A810B9AC2800A9A42830E4A0B
:1022B00009985080604648800520000701888022E8
:1022C000914301807FB07FB015B0F0BD00020040A7
:1022D000E030005000240050808000006028005052
:1022E0002020005000350050002600507A4AD1606E
:1022F0009060704710B5012000F045F905200002FC
:1023000000F07CF9C0B210BD70B50024734DFFF72A
:10231000F1FFC00704D0641CAC42F8D30020C043D6
:1023200070BD70B5FFF7F0FF002815D100F02BF954
:102330006A4E0025062000F061F90024FFF7DAFF5D
:10234000C10703D1800701D5002070BD641CB442D1
:10235000F4D36D1C322DEDD30020C04370BD70B599
:1023600006465D480D4680685119814201D9441BDB
:1023700000E01446FFF7C8FF00281AD1022000F041
:1023800002F900F0ADF8032128460906084300F0E1
:102390001EF9002000F0F7F8002505E0002000F00D
:1023A00016F930706D1C761CA542F7D300F09FF82B
:1023B000204670BD70B5054647480E46C0681446B5
:1023C000824200D984B2FFF79FFF00281ED1FFF799
:1023D000A8FF00281AD1022000F0D5F800F080F8FC
:1023E000012130464906084300F0F1F8002000F0D2
:1023F000CAF805E028786D1C00F0E9F8641EA4B264
:10240000002CF7D100F073F8FFF77EFF70BD70B5B8
:102410000D460446FFF785FF002802D00020C04388
:1024200070BD022000F0AFF82806204300F0E6F867
:10243000FFF76AFF70BD10B50024FFF765FF0028A5
:1024400011D1012000F09FF800F04AF809200003A4
:1024500000F0BDF8002000F0BAF8002000F0B7F856
:1024600084B200F044F820B210BDF7B582B01A4F24
:102470000E460091F96814460D46304604F044FDBE
:10248000401C6843451E002000F07DF8B868801BA2
:10249000A04200D204462646002719E00098801981
:1024A000A84202D900982E1A761C0298B2B2C0191E
:1024B0000099FFF77FFF002803D00020C04305B03C
:1024C000F0BD681C00900448BF19C0682D18E61BB9
:1024D000A742E3D33846F2E72090002080841E0014
:1024E00010B54C4841780078FFF7D1FC10BD10B50D
:1024F000484841780078FFF7E8FC10BDF8B50E4673
:10250000154644490278079F0A7040781C46487077
:10251000FFF7EDFF0520000781880122D202114359
:1025200081803D4801884908490001800188FF22D7
:1025300081329143F201114301800188402291438D
:10254000AA0111430180018804229143A200114392
:102550000180018802229143069A520011430180B2
:102560000188012292039143BA031143018001883B
:1025700018229143089AD200114301800188012258
:1025800011430180F8BD24490A88520852000A808C
:102590000A88FF2381339A43C00102430A800888D6
:1025A000012210430880704710B51B480188490874
:1025B000490001800520000781880122D202914351
:1025C0008180144841780078FFF77FFC10BD10B57A
:1025D000114900230A88D205920F012A01D9040C5F
:1025E0008C80488008888004FCD50120C880012A9E
:1025F00001D9888803044888C01810BD10B5044666
:10260000FFF76EFF2046FFF7E2FF0446FFF76FFF7C
:10261000204610BD309000200012005030B5934984
:102620009348CA05148880231C431480914C658903
:102630002D0701D4491EFAD28F4C012121608F4C05
:10264000018821808E494088088010889843108036
:1026500030BD0020704770477047704700207047BA
:1026600001218907086B07221043086370477047F0
:1026700030B585498348086084494C200880834CE4
:10268000834B203C23828449824848808448834984
:1026900001808249193141802221418181218900B3
:1026A000018280494182804901837E491131418301
:1026B0007B4A7E492032918041227D4912018A80E5
:1026C0007C4ACA807B4D1035CD810A824A82921C99
:1026D0008A826A1FCA82FF2246320A83764A4A8366
:1026E000764A592111807549754D20310D80432559
:1026F0004D80744D5582D5228A80FF22D3320A81C3
:10270000714A4A81714A8A81724A714911805F49CE
:10271000714A60394A80CA8810252A43CA80684AAB
:102720000A3A0A81594D6D4A403D6A806382082207
:102730004A815349614A0988403A11824F49684A9F
:102740000988118067490978002901D03021018367
:1027500030BD4008704700B58BB0634A4262634A9F
:102760008262634A4261634AC262634A0260634AA8
:102770000262634A4260634AC261434A414800219F
:10278000106041484038026B03129A430263426B67
:102790001F231B049A4303231B04D21842635A4885
:1027A0000268C3129A430260026803139A430260EC
:1027B00068464154491CC9B22829FAD30146282247
:1027C000524804F051FAFFF753FF04F08FFA5049D2
:1027D0000880002004F090FA04F094FA0BB000BDD9
:1027E00010B529492748086027484038416B1F2207
:1027F0001204914303221204891841630006016800
:10280000C908C900016005200007018989088900FD
:10281000491C018101890822114301811548418920
:10282000890504D501887822914308310180FFF79A
:102830001FFF3848006F0078002804D03648008811
:1028400012496039C880012004F08CFA10BD254976
:102850000120087012493020088370472149002068
:1028600008700F491048088370470000A0860100D7
:10287000087F04002000005000800040560208003D
:102880004A0308004C05540780000040602C0050AB
:102890007F7F0000AC2900000022005009090000E1
:1028A000002400502204000030D00000EE1100008F
:1028B000002500502E020000442000004028005057
:1028C0000D95000002420000E4DC000010920000C0
:1028D00053780000002A00508B1000009DD50000A6
:1028E000002600500C81002053260020572600208F
:1028F0005D26002061260020592600206F2600203A
:102900005B26002053270020000200402000080022
:1029100078040800E00100205204080070B5012589
:10292000AD07AC6B2046FEF7BCF8DC4904F0ECFACE
:1029300027221201511A00D10121D94A5060116099
:10294000286B0821884308432863D6480460D6488A
:102950000068002802D0A04200D200BE70BDFFB5C2
:1029600000256A461570D149096800297CD00A46BD
:102970004032937C002B77D0CD4CCE4B012813D026
:10298000098D26460907803E0127366FC90EFF04D0
:10299000C919715A6E46890B31713179002963D09A
:1029A0003179012906D011E06E46E16C31700021C9
:1029B00099700BE011894E267143BF4E2568891925
:1029C000695A6E460D0AD17C691A31703178002936
:1029D0004BD0BA4DB949603DAE6E097B2E254D43B3
:1029E000B446751905E0491C4907490F2E254D438A
:1029F00065446E463678761E37063F0E6E46377053
:102A0000F1D1AD786E06760E6D462E712D79AE063B
:102A1000B60E6D462E722E256943A74DA469463D1C
:102A20004919615A6D46C906C90F2973012805D095
:102A300000209870287B00280FD10BE0287B00280D
:102A400002D1287A00280FD0107D00280CD1012057
:102A50001AE009E0287A002806D0107D002803D16A
:102A6000D07D08210843D075FFBD0128FCD0002D82
:102A700002D09878002806D0107D002803D1D07DA0
:102A800008210843D07500209870FFBD10B50520BF
:102A900000074189890708D0418989088900418157
:102AA00087494A88520852004A800189802211438E
:102AB0000181018A042291430182818A8907FCD520
:102AC00004F036FB012080070169490700D500BEEC
:102AD00001694907FCD510BDF8B5764EF08800288D
:102AE0002DD10120F08077490820088005273F0775
:102AF0007889800720D0B88A400701D502F0DBFA38
:102B00006F4D28888021084328806F4CFF2060800B
:102B100004202080FFF73EF97D21C900E088A288CB
:102B2000000480188842F9D905202080B088788078
:102B30002988802081432980644910200860F8BDDD
:102B400070B5FFF732F9FFF7A1FF5A4C00265D4838
:102B5000E6800189490849000181012080078169D7
:102B600004221143816104F0E9FA584910208031B0
:102B70000125086004F0E8FA04F0ECFA50482670E9
:102B80004089800510D5607800280DD150486570C7
:102B90000088C00708D10120FFF79CFA8B2189002B
:102BA000884201D90220607070BD10B504F0D8FAD7
:102BB00000F06DF83F490120087010BD10B50120EC
:102BC0008007008A000601D500F061F810BD10B53D
:102BD0000120FFF7C4FE04F0C9FA10BD10B50124AE
:102BE000A407208A000718D50220FFF7B8FE04F0DA
:102BF000C3FA206840004008610008432060206854
:102C0000C00FFCD12648803001680906090E01D0AA
:102C10000121016027490420087010BD70B52D48BE
:102C2000008885062C48AD0E44682148006F007866
:102C3000002802D1284604F0A5FA284800891D4E34
:102C4000C00507D520061BD5E00719D0284604F09B
:102C50009FFA03E0200613D5E00711D0032030705F
:102C60001F480188491C01801E4D2988002907D072
:102C700000882988884203D302F006FF00202880BC
:102C8000200403D5E00501D50220307070BD10B5D9
:102C900008490120C87004F081FA10BD71020000DB
:102CA000400000401C810020188100206C030800B7
:102CB000E00100200E8100204A00080038030800CF
:102CC00020000050003300500016005000E200E0E9
:102CD000001500500020005000020040002C005061
:102CE0004A9000204C900020FEB5604C0026606D9C
:102CF00037460090FDF701FE5D4D002802D128798E
:102D0000022801D100200090FDF7F5FE00280ED129
:102D100004F04AFA00280AD055480126C078002855
:102D200005D005252D07A88AC00701D004269AE002
:102D300003F0ACFF00287DD14E488069002801D007
:102D4000606D00904A48009C8178684604F032FA31
:102D500000286FD001208007406940066AD44448AB
:102D60008178684603F08CFF00287CD00020FF218A
:102D700000942D3101240190A407206A8842FCD3DD
:102D80003B488178684604F015FA00286BD06069EA
:102D9000400668D436488178684603F071FF002801
:102DA00061D00098002804D00199002901D0401E6C
:102DB00000903149002209788320022900D1B520F2
:102DC0002E490B78012B00D121300A70E26B0F21C4
:102DD000920A92020A43E263E16B294A800211409F
:102DE0000143E163E06B3721C002C00A8905084353
:102DF000E06300980426002801D0001D0090C00266
:102E0000642104F081F8002800D0401E1D490860AC
:102E100017490979002900D0012104F0D1F91A4895
:102E2000C06A8047FDF77EFE00280AD0288830213E
:102E3000084300E017E02880288803210843288001
:102E40000127206B0004C00FFBD010480168C905A2
:102E5000FCD5002F01D0FEF7A8FF04F0B7F92889B0
:102E60008021884328813046FEBD0000600200209A
:102E7000C6060800A8050800540208000F810020BB
:102E8000FF03E0FF188100201C070800000200403B
:102E9000F8B514460F461E460546428801880623AB
:102EA000204603F09BFF0446287904F095F9208022
:102EB00027716680204603F097FFF8BD70B5144671
:102EC000428800790D460102042329480C3103F0A1
:102ED00085FF002D01D0132100E0122101704480F4
:102EE00003F082FF70BD38B520206946214C087080
:102EF0006088002800D0401C0B4680B201220021CF
:102F000004F070F96088002800D0801C80B2402155
:102F100004F06EF902F0BCFB00F0FEF800F02CF8B3
:102F200038BD70B5064615460C46372003F02CFF19
:102F3000022805D1E2B237232946304604F0DAF8F8
:102F40001C2003F021FF022805D1E2B21C232946F0
:102F5000304604F0CFF8362003F016FF022805D1E2
:102F6000E2B236232946304604F0C4F870BD0000B2
:102F70000D300000F604080010B51221244804F0BA
:102F80003DF924491C2004F03FF900211C2003F0E6
:102F90001FFF10BD30B503460120002103241A464F
:102FA000CA40D20704D04D0022466D1CAA401043EF
:102FB000491CC9B20929F2D330BD024600201229AA
:102FC00001D98D207047062A06D0072A07D0082A83
:102FD000F8D10729F5D170470829F2D170470629A1
:102FE000EFD3704770B50A4C0546218802231C2296
:102FF000094803F0F3FE058003F0F6FEE0880021A7
:1030000004F008F901211C2003F0E2FE70BD00006D
:10301000208100207C76002004700000FEB53B4E2D
:103020001C2070801D46174634460888FFF7B2FF03
:1030300002903748334601900833132202A90097C3
:10304000A01D04F0EDF8040008D1F088002104F080
:10305000E1F8044601211C2003F0BAFE01231C22E2
:1030600029462C4803F0BAFE047003F0BDFE002090
:10307000FEBD70B50C4625490B802078082814D871
:10308000CA880831415C51188DB2822D0BD061780D
:10309000FFF793FF010009D16D1C6178A8B2A21C53
:1030A00004F0C4F808E0822100E08121194B1748A0
:1030B0005B1CDA1CFFF7ECFE002070BD70B51D46EE
:1030C0000C46088804F0B8F8104AFF2810711580E3
:1030D00009D0A178D08804F09DF802211C2003F0CB
:1030E00077FE002070BD0B4B89219B1C9A1C074862
:1030F000FFF7CEFEF5E710B5044A180A12799042A0
:1031000002D10888FFF76EFF002010BD208100204B
:10311000687500200170000010B50821104804F007
:103120006DF81049362004F06FF80021362003F0C6
:103130004FFE10BD70B50A4D0446E888002104F02A
:1031400069F8298804233622074803F047FE0480E3
:1031500003F04AFE0121362003F03AFE70BD000064
:10316000348100203077002001D80000FFB58BB0FB
:103170000521C90268468182C91C0182FA4901837E
:10318000FA4C3621618006219925009108220023FE
:1031900001953621A01D04F055F805007ED1A01D33
:1031A0000125009501900222E08805AB114604F04C
:1031B0004FF8E088EE4A022104F038F803AE019699
:1031C0000095E08804AB0222132104F041F802AF1D
:1031D000092001970090E088E64B1022042104F0BA
:1031E00037F8E5496846007A48706846407A887042
:1031F0000A4668461321808904F018F80196009564
:10320000E08804AB0222132104F022F80920019780
:103210000090E088D94B1022042104F019F8D84915
:103220006846007A48706846407A88700A46684660
:103230001321808903F0FAFF01960095E08804AB22
:103240000222132104F004F801970095E088CD4B89
:103250001022042103F0FCFFCB496846007A487035
:103260006846407A88700A4668461321808903F0D0
:10327000DDFF01960095E08804AB0222132103F0E4
:10328000E7FF092001970090E088C04B102202213F
:1032900003F0DEFF6846BE49007A00E058E048705F
:1032A0006846407A88700A4668461321808903F090
:1032B000BDFF01960095E08804AB0222132103F0C4
:1032C000C7FF092001970090E088B24B102214211B
:1032D00003F0BEFFB0496846007A48706846407AFD
:1032E00088700A4668461321808903F09FFFAB4D22
:1032F00001960095E08804AB0222132103F0A8FF99
:1033000001970095E088A64B1022012103F0A0FF51
:10331000A4496846007A48706846407A88700A4630
:1033200068461321808903F081FF09A909200191D2
:1033300000900222E08806AB114603F089FF0546A3
:10334000E088002103F066FF0121362003F040FDF4
:103350000123362294480E9903F040FD057003F0D6
:1033600043FD00200FB0F0BD3EB5804C0D46E08817
:1033700002AA0C3080B2694603F070FFE08801AA0F
:103380000D3080B2694603F069FFE088AA1C0C305A
:1033900080B2012103F04AFF01980088002806D07E
:1033A000E08800210C3082B22046FFF787FD002024
:1033B0003EBD10B56D480A46C0880421801D80B20C
:1033C00003F034FF002010BD38B50D4600206946DB
:1033D000664C08802380288803F02EFF2071FF2888
:1033E00017D0E0886A460D3080B2022103F01EFF3C
:1033F000E0886A460C3080B2012103F017FFA978FB
:10340000E08803F007FF0221362003F0E1FC0020F2
:1034100038BD654A1B23DB02521C89215348FFF744
:1034200037FDF4E7F8B5514D0C4629798022180A8A
:1034300088427DD1E988208826468B1C00270836E3
:1034400098420ED1012100916188324603F0EEFED0
:10345000E079002875D05448082336222988C01FF7
:1034600010E00B1D984229D102210091618832465B
:1034700003F0DCFEE079002863D04B48298808235C
:103480003622801F03F0AAFC0646287903F0A4FE2A
:1034900030807760E07A01067160A07A0004014311
:1034A0007160607A000201437160207A01437160AB
:1034B0000098B070304603F097FC42E00B460A33A8
:1034C00098421BD104200090E079002839D036487A
:1034D000298818233622001F03F080FC074628792C
:1034E00003F07AFE388062883146381D03F0BCFB59
:1034F000A078F8700098B8703846DCE70B460833BF
:10350000984220D1032100916188324603F08EFE5B
:10351000E079002815D02448298806233622401F48
:1035200003F05CFC0646287903F056FE308000E08C
:1035300018E0B780607A0102B180207A0143B1803F
:10354000B6E7002207E00D31884204D16188324697
:1035500003F06CFEF5E7A079012803D121882879D2
:1035600003F082FE0020F8BD022900003481002013
:10357000CC760020CE760020A07A0020DE760020D7
:10358000B37A0020EE760020C67A0020FE76002076
:10359000D97A00200E770020EC7A0020010200008A
:1035A0001E770020FF7A002009D8000010B5054AD8
:1035B000180A1279904202D10888FFF7BBFD00205B
:1035C00010BD00003481002010B546480178002964
:1035D00006D0012903D14088002100F00DFA10BD6A
:1035E00000F0FDF910BD10B501F002FC00F00AFC7E
:1035F00000F068FA0020FDF776F910BD70B50E46B0
:1036000004460C203849604340188078FF280FD0CA
:10361000344D2878012801D100F002FA308800F0FA
:1036200077F82879012802D1204601F063FA70BDAD
:1036300002F01CF970BD10B502F018F910BD10B5FC
:1036400000F009FA002801D002F010F910BD10B501
:1036500002F00CF910BD10B501F028F910BD38B515
:10366000044600F015FB00216A465054491C000A2C
:10367000C9B20429F9D304226946204601F039F978
:1036800038BD10B501F073F910BD10B50446497886
:1036900000F007FB204601F09CF9204601F08BF971
:1036A00010BD10B5044601F0D3F9002810D04C200D
:1036B0000E49604340184030417A0022204600F015
:1036C0007BF9204601F0DEF9204601F0B3F910BD88
:1036D000204601F0ECF9204601F0ACF9204600F05C
:1036E00051F910BD527B00205E81002080810020B6
:1036F0000021FC4A05E0834201D101207047491CAA
:10370000C9B20C234B43D35CFF2BF4D1002070478C
:10371000F8B505460024F34E0AE0801981680029B7
:1037200004D0641CE4B22846884701E0641CE4B27B
:1037300020460C214843315CFF29EED1E94E00249C
:10374000183609E08F19B968002903D0FFF7D0FFB8
:10375000002808D0641CE4B221460C204143705C70
:10376000FF28EFD1F8BD641CB968E4B22846884749
:10377000F2E770B5DB4ADC4C154618350DE08918C8
:103780004968002907D0C1B20C23594389184968F8
:10379000401C607025E0401C607060780C21414343
:1037A000535CFF2BEBD10AE049194968002903D08B
:1037B000FFF79EFF00280DD02078401C2070217854
:1037C0000C204143685CFF28EED10020607020701F
:1037D000012070BD20780C21414349194968401CE3
:1037E00020708847002070BD70B5BF4D18356879CE
:1037F000800911D12C4603F00BFC2070010A617086
:10380000010CA170000EE0702C1D03F001FC207073
:10381000000AC0210843687170BD70B5B24EF068EF
:1038200000281ED1502332220D21B04803F0D6FAD1
:103830000446F0600E20AE4D20702878052802D096
:10384000022810D000E000BE60706888A080A888C0
:10385000A081E888E081287A2074687A6074A87A68
:10386000A074F06870BD01206070FFF7BDFF9E4935
:1038700006221831A01D03F0F7F9E6E770B59A4E5D
:1038800004468500361D7059002815D121020A23EF
:10389000322298480E3103F0A1FA0A210170002C5F
:1038A00000D000BE944970514A8882800A884280C4
:1038B0008A88C280C9880181705970BD70B58A4EEE
:1038C000B068002827D18948222332220D210A38E6
:1038D00003F084FA03210170884D0446B060287813
:1038E00060701022691CA01C03F0BEF9688A608217
:1038F000287D2075687D6075E88AE082288B2083AA
:10390000688B6083A88BA083E88BE08328462030F7
:10391000007820342070B06870BD744810B5012361
:1039200032220D210B3803F059FA0221017003F005
:103930005BFA10BD10B5FFF7F0FF6B4800228270F4
:103940004169002901D04261884710BD664810B521
:103950000C211E3003F052FC634900201E3101226D
:103960000C2343435B18401C00061A71000EF7D06D
:103970005C4932203C3103F047FC0021322003F047
:1039800027FA10BD10B5040000D000BE594821022E
:10399000022332220A380E3103F020FA0C220121D0
:1039A00054430170504A132141701E320021A21865
:1039B000D17003F019FA10BD70B50D4601024D48E3
:1039C00014462C2332220C380E3103F007FA01463C
:1039D00020310D724C7203F007FA70BD1DE710B56F
:1039E000FFF71BFF03F000FA3F490020C8600221E7
:1039F000322003F0EDF910BD70B53B4C0646A078BF
:103A00000D46002801D001F01FF9002D00D065619E
:103A10003B49304601F0F7F8A070FFF7E0FF70BDBA
:103A200010B5314CA078002801D001F00DF900202C
:103A3000A070606110BD10B50446FFF71FFF03F0D2
:103A4000D3F9294A0020A100121D50500421322030
:103A500003F0BEF910BD10B50121322003F0B8F912
:103A6000FFF787FE10BD84E610B5FFF727FF03F0D0
:103A7000BBF91D490020886010BD1B4A00212A3275
:103A80004B00D35C834203D14800801840787047D4
:103A9000491CC9B20A29F3D30120704730B5124B33
:103AA00000222A3354001D5D854206D0FF2D04D02C
:103AB000521CD2B20A2AF5D330BD52009854E018F5
:103AC000417030BD084910B50020FF232A31012480
:103AD00042008B545218401CC0B254700A28F7D3CD
:103AE00010BD000090770020408100200E340000BF
:103AF000127B00200E380000467B0020247B002033
:103B00003539002010B5104603F03EF9002809D1E0
:103B1000012332220D215A4803F060F9012101707E
:103B200003F062F9002010BD70B50D78554C0E2DD4
:103B300015D008DC012D14D0022D0CD0032D16D089
:103B40000D2D08D10BE00F2D09D0102D07D0112D10
:103B500005D0122D03D02568002D00D0A8470020E5
:103B600070BD48780028FAD1FFF77EFFF7E7487864
:103B70000028F4D1FFF763FDF1E7F8B51C461046C5
:103B80000E4603F001F9022829D1240A00D000BE14
:103B90000C20274647433C483D18AC70FF2C1AD0F8
:103BA0000121E9700521322003F012F936483188ED
:103BB000C153707A68713146A81D06220A3103F09C
:103BC00053F84C203149604340184030417A00227C
:103BD0002046FFF7F1FE3146204601F0FDFD0020B2
:103BE000F8BD70B50C46097816460A2908D0254D4F
:103BF0002968002902D021462C68A047002070BD0A
:103C0000104603F0C1F80428F8D160780028F5D1F7
:103C10000521304603F0DCF8F0E710B510460C46FD
:103C200003F0B2F8032803D0052801D0042802D1FC
:103C3000204601F0F9FD002010BD10B510460C46DD
:103C400003F0A2F8012808D12078002805D1FFF759
:103C50000AFF002801D0FFF7FAFC002010BD002069
:103C6000704700207047FEB51C46064D089B08268D
:103C70002D1D6F4668C71346224600F09AFDFEBD13
:103C800002340000DC7700205E810020808100206B
:103C900010B503F0BDF91F4903F0ECFA1E480818EF
:103CA00010BDF8B50E464C2148431C490024451868
:103CB0004120465503F0ACF929192031641CE4B2C7
:103CC0000870082CF6D300241027381BB04201DD01
:103CD000002007E003F09CF9C117090E0918090A32
:103CE0000902401A2919641CE4B20874102CECD3A0
:103CF00003F08EF92885F8BD70B54C21484307497B
:103D00000024451803F084F92855641CE4B2102CF3
:103D1000F8D370BDA0BB0D00A086010080810020FB
:103D200010B50A78180A130003F034F808051515C1
:103D3000150815101315FFF78EFC0CE04A78012AC0
:103D400001D0002A07D1FFF78AFC04E0FFF799FCB5
:103D500001E0FFF79AFC002010BDF8B51C0A4C25C5
:103D60006C43254D0F7865192C461E0A4034022FEE
:103D70000AD0032F1ED0052F22D0204C2568002DFD
:103D800000D0A8470020F8BD89786172C9070ED01D
:103D9000002E00D000BE0C214E4319492846711850
:103DA0004A79A27043300622891D02F05DFF01F0BE
:103DB000AFFDE7E73046FFF7E5FD00206072E1E781
:103DC00028462A301722891C02F04EFFDAE710B588
:103DD000180A01F06DFD002010BD00207047FEB5EF
:103DE0001C46064D089B04262D1D6F4668C71346CA
:103DF000224600F0DEFCFEBD8081002030780020ED
:103E00005E810020FC480021017441618161C16034
:103E1000FA4A01771165142101707047F6480021B4
:103E200001744161C160704710B50123322236210F
:103E3000F34802F0D3FF0021017002F0D5FF10BD5E
:103E400070B50546362110233222880202F0C6FFE3
:103E50000446E948001F058025803620FFF70DFE47
:103E6000A070002161602046A16002F0BDFF70BD1E
:103E700010B50446E34804230288E1483621401E79
:103E800002F0ACFFDC49091F09880180847002F050
:103E9000ABFF10BD10B5D84C2078032801D1FEF738
:103EA00083FB14202070002001F095FC10BDFEB5AE
:103EB0000646002001246404009001900346024657
:103EC0000146029065123046FEF718FBFEF7B3FA82
:103ED000CD4980B2401806D02D210902401A02D0E7
:103EE000012800D1840429462046FEF7FFF9FEBDD3
:103EF000F8B50446C048C54E017A00270906090FE7
:103F0000A171027AFF4313071B0FE37102891204A8
:103F1000120F227002891205120F6270826812025B
:103F2000120FA27082681203120FE2708268120FE1
:103F3000227180680001000F6071282041438A19B6
:103F400099005058002801D0384600E00120505018
:103F5000A579E279C11702F0CBFF2A0102F0C8FF70
:103F6000AB4A136855681843294310605160A07824
:103F7000282148438219E07881005058002801D058
:103F8000384600E001205050A578E278C11702F0D1
:103F9000AFFF2A0102F0ACFF9D4D2A686B68104309
:103FA0001943286069602079282148438219607983
:103FB00081005058002801D0384600E001205050C0
:103FC00026796279C11702F093FF320102F090FF67
:103FD0002A686B681043194328606960207828219B
:103FE00048438A494118607880000A58002A00D165
:103FF00001270F50384626786278F91702F078FFCB
:10400000320102F075FF2B686A681843114328607B
:104010006960012000900326360261782078082329
:104020003246FDF770FF00250095E179A07907235E
:104030003246FDF768FF0095E178A0780623324606
:10404000FDF761FF00956179207905230022FDF7D6
:104050005AFFF8BD3EB5AA216A46674C1172217815
:10406000062013290FD11046FFF742FF6846FFF7DD
:104070001EFF6168012202A8891CFEF7F6F940B212
:10408000012800D10220C0B23EBD10B5012001F0D0
:10409000A2FB594C2078C00601D4012000E010207A
:1040A000FFF7E6FE002020746061A061E0602077E9
:1040B00010BDF8B50F460021060E4F4C354639604D
:1040C000142E17D2257080B26060002D01D0012D12
:1040D00007D15049280608436160002103F0D0F859
:1040E00038602078122801D0132803D16068022894
:1040F0000BD86074112E26D00EDC022E20D006DCE8
:10410000002E1DD0012E13D11AE0112022E0032E23
:1041100016D0102E0CD116E0FD2E2CD004DC122E61
:104120000ED0132E04D10BE0FE2E16D0FF2E0CD095
:104130000820FFF79DFE1420207000203860F8BD95
:10414000FFF7A3FFF8BD082004E0FFF7A3FEFFF789
:1041500065FE0320FFF78CFEF8BD207F002801D00C
:10416000042001E0FFF776FFFFF782FEFFF792FEE3
:10417000FFF754FEF8BD2048012120300172264887
:104180008078FFF7FFFBF8BD10B504461D480423F7
:1041900002881B483621801E02F020FE046002F0D7
:1041A00023FE10BDFEB5144D0224287800280AD045
:1041B000012808D0022801D0032841D00824204635
:1041C000FFF756FEFEBD134E00063043002103F0FC
:1041D00057F807468004020C297CFF208B18013019
:1041E00083423DD8801A054A401A121F891880B2AE
:1041F0005432101818E00000D08100208090002078
:1042000008D8000034810020F03DFFFF0880002026
:1042100000800020CC9100205E8100200A6804C04C
:104220002A7C121F2A74091F2A7C002AF6D12878BA
:1042300000210006304303F023F8B84210D02EE0EE
:104240000320696800060843A96803F019F80646C8
:104250008004070C287CC119FF200130814201D95C
:104260000724ACE76846FFF743FE6846FFF71FFEEA
:1042700068682A7CC119DA48FEF7F7F807462878FB
:10428000696800060843A96802F0FAFF297CB94270
:1042900001D1B04203D10624FFF776FF8FE7FFF785
:1042A00073FFFFF7F7FDFFF7B9FD88E770B502462A
:1042B0000020160BC04336030C0B090500D0641C0C
:1042C000002C01D000250BE00124002520213046E0
:1042D000FEF79DF8012109037618002802D16D1C14
:1042E000A542F3D370BD0021FF2802D0401CC0B20C
:1042F000704708467047FF2802D0FF2905D006E026
:10430000FF2908D0002906D001E0002801D088420A
:1043100001D9022070470120704710B5B14C034607
:1043200000202478C043132C02D11846FEF717F85A
:1043300010BDF7B598B000271A980C463E464028A5
:1043400005D32078702802D16078512802D012203D
:104350001BB0F0BD6568A3492846403008621F21A4
:104360000C2209036846FFF7D8FF0C2847D168469E
:104370000078702803D168464078522801D0142074
:10438000E6E70198119002981290002D03D0119940
:10439000401AA84201D21320DAE768464022109062
:1043A000FFF7BBFF40282AD16846C07814906846C2
:1043B000817803A8169020460C301590AA2907D1C1
:1043C00068460078702803D168464078512803D0A9
:1043D0000127002014900BE010221699159802F086
:1043E0003DFC002804D1E0690799884200D10227EA
:1043F000402212991098FFF790FF402801D0162014
:10440000A6E76846C078139068468078AA2807D146
:1044100068460078702803D168464078512803D058
:104420000126002013900BE010221699159802F037
:1044300015FC002804D1E0690799884200D10226C2
:104440001898002801D0022807D9012F11D0012E79
:104450001CD013991498FFF74EFF1590FF224021AE
:10446000684602F013FF1598022815D0022F24D0B9
:1044700004E0FF224021684602F008FF59491198E4
:104480004860002E1BD0022E19D00EE0FF224021E2
:10449000684602F0FBFE01E0022E0ED05149129850
:1044A0004860002F07D0022F05D001264D4F3878E5
:1044B000132809D03CE0149802E0152048E713982F
:1044C000FFF711FF0646F1E74035A9B27868FFF71C
:1044D000EDFE00282CD16846C67060680190A06887
:1044E000029020460C300EC8A069069003A80EC0AA
:1044F000E06907902178684601706178417020205A
:10450000015D08A801703878132811D11A9A7968CA
:10451000403A2046154640304031FDF7A6FFA842FC
:1045200006D1402279681098FDF79FFF402801D0FE
:1045300006200DE700200BE77CB52A4C284A02260E
:1045400000205032616904E0237F155C6B402377C3
:10455000401C8142F8D82078122801D0132801D0BD
:10456000082638E06846FFF7C3FC6846FFF79FFC63
:104570006269002A02D0A069002818D0A169206AC7
:104580008A18431C9A4220D8824201D9401A60619D
:10459000606825464118124862695030FDF765FF92
:1045A0006969814211D1A8694018A8610EE00C49DF
:1045B000607C5031FFF7BDFE002801D086B205E0D7
:1045C0006269A1698918A16100E006260020606186
:1045D000A069FFF7D9FDF0B2FFF74AFC7CBD0000EF
:1045E00080900020D081002010B510460C4602F0CB
:1045F000CBFB012809D1322201231146900202F09F
:10460000EDFB2178017002F0EFFB002010BD70B5CA
:10461000544C0D462078142847D2A978002942D05E
:10462000E168002938D0C0061DD4207CEA788118C2
:10463000502933D84C494018291D02F015FB207C25
:10464000E9784018C0B22074E168814201D1FFF7D7
:10465000A9FD207CE168884202D90520FFF708FC0B
:104660002078C0061FD5EA786069FF2381180133DE
:10467000994215D83D494018291D02F0F5FAE9780C
:10468000606940186061E168814201D1FFF754FF21
:10469000E1686069884206D9052002E00720DDE76D
:1046A0000720FFF7E5FB002070BD0820F9E708B5FB
:1046B0008878002806D048686946FFF7FAFC009819
:1046C000FFF762FD002008BD10B5887800280ED0E5
:1046D000244A49689160107802280AD0032808D03B
:1046E000122804D0132802D00820FFF7C1FB0020B5
:1046F00010BD52680006104302F0C2FDFFF744FDF2
:10470000F5E770B588780D4600281DD0A8880028E8
:1047100005D0144C2178CA0603D4820701D00520A5
:104720000EE0142910D2C90605D4502807D8FFF787
:1047300075FBA88807E0FF210131884203D90720D3
:10474000FFF796FB00E0E060002070BDFEB51C4660
:10475000089B0526064D6F4668C71346224600F0A3
:1047600028F8FEBDD081002080900020D09000204D
:1047700054780020FFB583B01E4F002401AEA00086
:1047800000963D5803A80FC8A84700280ED0641C07
:10479000062CF4D3174C241F2068002803D003AD47
:1047A0000FCD2468A047002007B0F0BD684600790F
:1047B000FAE7F8B5089C9C46079D0346002C16D0E6
:1047C000641E14D40C4FE600AE5B9E4201D0BE4284
:1047D0000BD1E3005B195C68002C08D013466246DD
:1047E000A047069908700020F8BD641EEBD5012093
:1047F000F8BD000080780020FFFF000010B5052004
:1048000000070089000608D501208007006B00041E
:1048100003D402F03BFAC00701D0002010BD0120F4
:1048200010BD000070B51049049C4118052901D342
:10483000012070BD00F00FF80025002807DB0B4AAF
:1048400081005058002803D05550804700E000BE3A
:104850002570002070BD04494018052801D240B2DF
:1048600070470020C0437047EC37FFFF00820020F4
:1048700070B5A74D84002959002915D101021E23C6
:104880003222A4480E3102F0A9FA012101704170D0
:104890002851032282700022C2700171017210221D
:1048A000427104228271C171285970BD10B5040093
:1048B00000D000BEFFF7DCFF02F096FA0020944A19
:1048C000A100505010BD70B5914D84002D1D295987
:1048D000002901D0084670BD01021E2332228D48F6
:1048E0000E3102F07BFA0421017001214170285140
:1048F00070BDF7B51746040000D000BEFFF7E3FF18
:10490000834D0646A4002D1D28591021801C02F05D
:1049100075FC28593A46801C019902F0A5F93046E9
:1049200002F062FA00202851FEBD70B5784D0446B1
:1049300086000835A859002817D121021E233222EB
:1049400074480E3102F04AFA0621017001214170CB
:10495000A8512046FFF7D0F94C2044436E4810225E
:104960002118A859801C02F07FF9A85970BD10B514
:10497000040000D000BEFFF7D8FF02F035FA644A09
:104980000020A1000832505010BD70B5604D840069
:104990000C352959002901D0084670BD01021E239B
:1049A00032225C480E3102F019FA07210170012110
:1049B0004170285170BD10B5040000D000BEFFF753
:1049C000E4FF02F011FA524A0020A1000C325050CC
:1049D00010BD70B5040000D000BEFFF7D6FF05463D
:1049E0004C2044434C4841212418085D2877208DF1
:1049F00068822146284620310822143002F034F91A
:104A0000214610311022A81C02F02EF970BD70B59D
:104A10003F4D840010352959002901D0084670BD4A
:104A200001023C4812233222001D0E3102F0D6F959
:104A3000285170BD10B5040000D000BEFFF7E7FF9D
:104A400002F0D2F9324A0020A1001032505010BDBD
:104A500070B50D464C2148432F4944184920005D4C
:104A6000C0070DD0204620300822A91C02F0F6F81D
:104A7000002805D1208D2988884201D1012070BDF0
:104A8000002070BD10B5040000D000BEFFF7BFFFCE
:104A9000012101704C214C431F4941226118525C95
:104AA00042741022401C103102F0DEF810BD10B527
:104AB000002800D000BEFFF7AAFF0021017010BD42
:104AC00070B5002800D000BE114D8400143529595E
:104AD000002901D0084670BD01020E4801260223BC
:104AE0003222801D0E3102F079F90D2101704670DD
:104AF000285170BD10B5040000D000BEFFF7E0FFE4
:104B000002F072F9024A0020A1001432505010BD88
:104B10001482002014380000808100207047704704
:104B200070B50D460446FFF769FE002807D06E48B1
:104B30002A46201880B2322102F088FA70BDFBF7B5
:104B4000DFFE6948322204231146801E02F046F936
:104B50004580047002F048F970BDF8B5634C069DBD
:104B600006190024002E26D0012E0BD0604B1A46C9
:104B7000283A022E0AD05D49C91E41180A292BD3B2
:104B80000120F8BD00F086F828703AE00878461E4B
:104B9000092E0ED88000001F1058564FB8422FD152
:104BA000B0001B5813504A8808781146FFF7B8FF29
:104BB00026E000BE24E04A88002A0BD04E488242FC
:104BC00000D900BE08784849401880B2322102F06E
:104BD0003DFA15E000BEF5E74449891E4018C0B211
:104BE000411E09290BD88600B1188039C86F0028EA
:104BF00006D0CC67F1188039CC67804700E000BE52
:104C00002C700020F8BD0A46010010B53A480ED0BD
:104C1000814200D900BE364B0020283B84001C593D
:104C2000002C06D0401C0A28F8DB002010BD00BE76
:104C3000F1E784001A51401C0406240EF5D02046EA
:104C4000FFF76EFF204610BD70B50446401E0928D0
:104C50001ED82748A10028380D18803DE86F00288D
:104C600014D0264EB04211D01F483221201880B2F5
:104C700002F0C0F81C48322204231146401EEE67A1
:104C800002F0ACF8047002F0AFF870BD00BE70BD69
:104C900000BE70BD10B508780C46411E09291FD80A
:104CA00082001348121F28388258144B9A4205D1AB
:104CB0000022890042502830425012E089004058BA
:104CC0000C4988420DD1322204231146064802F0D5
:104CD00085F8217801706188418002F085F800E054
:104CE00000BE002010BD000009C80000F937FFFF1A
:104CF000548200201F4B0020307500001D4B002007
:104D000010B5FF21DD31364802F078FA34493548D4
:104D1000088036483449418310BD3448017E052956
:104D200008D82F492F4A0988914203D1408B2E4938
:104D3000884200D0E4E77047F8B50024E443284EE9
:104D4000054600275E20784381198878AA2803D079
:104D5000601C11D13C460FE0C878002804D02846DA
:104D600017221E30203103E02846072255305731E4
:104D700001F074FF002802D07F1C052FE2DB601CCD
:104D800007D11A4F05213C7E601CC0B202F0BCF86E
:104D900039765E204443A01929465E22801C01F02A
:104DA00063FFF8BDF3B500240D4F81B026465E20A9
:104DB0006043C519294616310822019801F04EFFBB
:104DC000002808D1A98A0298814204D15E20444378
:104DD000E619B61C02E0641C052CE8DB3046FEBD7B
:104DE0007C82002035120000224300003C84002019
:104DF000704710B51C2102233222880201F0EEFF19
:104E0000FF217431018001F0EFFF10BD70B5054640
:104E1000042332221C21074801F0E0FF04460580EC
:104E20001C20FEF72AFEA0700020E070204601F052
:104E3000DBFF70BD03700000FEB510460E4601F0AA
:104E4000A3FF01287ED13078002877D109233222B0
:104E50001C21484801F0C2FF0446002020700627AC
:104E600067703A4644A1A01C01F0FEFE204601F006
:104E7000BBFF0B2332221C213E4801F0AFFF04464A
:104E800001202070082565702A463DA1A01C01F074
:104E9000EBFE204601F0A8FF0B2332221C213548EF
:104EA00001F09CFF077004464570082237A1801C62
:104EB00001F0DAFE204601F097FF07270A2332228D
:104EC0001C212C4801F08AFF0446052020706770E1
:104ED0003A4631A1A01C01F0C7FE204601F084FF34
:104EE0000A2332221C21234801F078FF04460420C3
:104EF000207067703A4628A1A01C01F0B5FE20463C
:104F000001F072FF0A2332221C211A4801F066FFC9
:104F100004460570072060700120A070D221684609
:104F200001800B21C9014180690181800622694607
:104F3000E01C01F099FE204601F056FF01233222C9
:104F4000114600E006E0900201F048FF3178017060
:104F500001F04AFF0020FEBD00207047FEB51C4650
:104F6000089B02260E4D6F4668C713462246FFF780
:104F700020FCFEBD0270000054616E697461000087
:104F800046432D313530302000000000123456FFEA
:104F9000FE9ABCDE0000000056657220302E310003
:104FA0009878002070B568480022416DD2430029EE
:104FB00001D0114600E001214B00416563490C68B6
:104FC0004D680C602B434B60036D002B01D01346E2
:104FD00000E0012303650C684D680C602B434B60B7
:104FE000436E002B01D0134600E0012343660C689A
:104FF0005B014D680C602B434B60836E002B01D02E
:10500000134600E0012383660C689B014D680C6029
:105010002B434B600369002B01D0144600E00124B0
:10502000E317250F1B012B4304610D6824014E6813
:105030002C4333430C604B604368002B00D10122AA
:105040004260D01792180C6840414B6822431843C5
:105050000A60486070BD38B5012003252D02014665
:10506000009008232A460220FCF74DFF0024072366
:105070002A46214602200094FCF745FF06232A46D3
:10508000052102200094FCF73EFF052300220621A3
:1050900002200094FCF737FF02232A460421002057
:1050A0000094FCF730FF01231A02194600200094F7
:1050B000FCF729FF38BD10B505242407208A0221FA
:1050C00088432082A08A0007FCD521484188FF221E
:1050D000013211434180FBF79DFEFFF7BCFF608A60
:1050E00020210843608210BD1A484168062291437E
:1050F000091D416041680122114341604168382225
:10510000114341604168402291434160416803225C
:105110005202114341604168821511434160416868
:105120000722D20211434160416802149143416059
:10513000011509480160094A1068FF231B049843C0
:105140001060074801607047088000200080002040
:10515000200000500002004000E100E008E400E010
:1051600080E200E030B400215F4A604808E0136844
:10517000446923700369641C5B1E4461491C03611C
:105180005369DB07DB0FF2D1002907D04361826945
:10519000002A08D0836130BC0020104751680120EC
:1051A00081430143516030BC704730B5052212077E
:1051B00093888024234393804B4A9389A34393810C
:1051C000072313810023938095892543958193803C
:1051D0009380108091819089A0439081012244495D
:1051E0001003086043490C684025240A24022C431C
:1051F0000C603F49803908603F4908603B482030D7
:10520000037020384361C36103614360027203602D
:1052100030BD364B9A6119615861334801214268AB
:105220008A430A4342607047304BDA6019602E4966
:10523000586048680222904310434860704710B598
:10524000294881680907090F012923D0022922D0A2
:1052500004291DD00C291DD12449203109780129A8
:1052600016D141690907C90F03D141698907C90FDF
:105270000ED01E4900220A614A6183885B085B00E8
:1052800083808B69002B03D08A610021012098471D
:10529000FFF768FF10BD00F001F810BD30B4124CEC
:1052A000114B1248603409E0016800290BD04268B4
:1052B00015781D60491E521C06C00838A18B89074D
:1052C000C90FF1D16FE70022426059680224A1435F
:1052D0005960017A0029F5D0C1680029F2D0C26076
:1052E00030BC002008470000001000505884002007
:1052F00080E100E00CE400E080E200E0F0B589B07D
:105300000521C90268460184C91C8182DB490183E9
:10531000491E8183DA4D0320EB80FF210A22973159
:1053200000900191A81800233721074601F08AFF59
:1053300004007DD1012601970096688908AB0222FE
:10534000102101F085FF040072D16889CD4A102137
:1053500001F06CFF04006BD103A8009601906889EE
:1053600005AB0222132101F073FF040060D102AFEC
:105370007002C44B01970090688910331022A0215D
:1053800001F066FF040074D1BF496846007A487096
:105390006846407A88700A4668461321808901F081
:1053A00045FF040065D1082001970090022268891A
:1053B00006AB114601F04CFF04005AD104A8009638
:1053C0000190688907AB02220E2101F041FF040021
:1053D0004FD1AC4A68461E3A0E21008A01F026FFE2
:1053E000040046D103A800960190688905AB02220B
:1053F000132101F02DFF04003BD10820A14B0197A0
:105400000090688920331022A02101F021FF0400C0
:105410002FD19D496846007A08756846407A4875DC
:105420000A46684613321321808901F0FFFE00E02E
:105430001FE004001DD10920019700900222688915
:1054400006AB114601F004FF040012D104A8009637
:105450000190688907AB02220E2101F0F9FE0400D9
:1054600007D1884A68460F3A0E21008A01F0DEFE15
:1054700004466889002101F0CDFE002C03D10121F2
:10548000372001F0A5FCE988042337227F4801F08A
:10549000A5FC847001F0A8FC002009B0F0BDF8B5AF
:1054A0001E4617460D46088801F0C6FE744CFF28BC
:1054B00020716780268018D0A978608901F0AAFE43
:1054C0000221372001F084FC01202073607300204A
:1054D000E07320746D48218801233722801C01F07D
:1054E0007DFC01F081FC0020F8BD684B89215B1C2C
:1054F0005A1D6348FDF7CCFCF5E710B56048002164
:10550000408901F087FE0121372001F061FC002075
:1055100010BD10B50878122811D15948C27B002A55
:1055200000D100BE521E1206120EC27307D1027CB9
:10553000002A04D000220274487800F0B7F8002056
:1055400010BD70B54E4C4B8860890A1D801C80B21E
:10555000194601F06BFE207B012500280BD06089E5
:105560000021801C82B22046FDF7A8FC2574E07B58
:10557000401CE07300E0A573002070BD70B5404C86
:105580000D4660898A1C0A3080B2012101F04EFE6E
:10559000608900210A3082B22046FDF78FFCE07B53
:1055A000401CE073A878012800D000206073002020
:1055B00070BDF8B5324C0D46628909882046D31C6F
:1055C000007999420BD0931D994205D128466988EC
:1055D000083000F07EF84BE0D31D994206D1AA793D
:1055E000012A45D1002201F03FFE41E013460A3373
:1055F000994219D1287A0025012802D0022811D019
:1056000036E001262673A07B002809D0921C92B2B6
:1056100000211B48FDF752FC2674E07B401CE07320
:10562000A57325E0257323E00B32914220D1687ADF
:10563000297A0002084318D0012816D1607B00287F
:1056400001D0012000E002206946087098B26A4645
:10565000012101F0EBFD608900210A3082B2084887
:10566000FDF72CFCE07B401CE073A879012801D0F9
:105670000020F8BD29882079B4E700000229000045
:1056800034900020C6780020587B002001DC000008
:1056900010B512211C4801F0B1FD1C49372001F062
:1056A000B3FD0021372001F093FB10BD70B5164DFE
:1056B0000646298804233722154801F08FFB04464B
:1056C000287901F089FD2080A670204601F08CFB2E
:1056D00070BDF8B50746081D83B20B4E0C480D4649
:1056E00031883722401E01F079FB0446307901F001
:1056F00073FD208065802A463946201D01F0B4FAEA
:10570000204601F071FBF8BD349000205079002054
:1057100005C80000F0B585B0FEF760F905003FD080
:10572000EEA30FCB6F460FC72C4614340026EE7441
:105730001C21204601F062FD3020465528461F21DD
:10574000313001F05BFDE9481C2641780920112722
:10575000002904D0012907D0022921D116E02070A8
:1057600060700822E24903E02070E249607008227C
:10577000A01C01F079FAA7720721E17220461022DD
:1057800069460C3001F070FAEE7409E003202070D5
:105790006070D9480178A1704078E0700420E87406
:1057A000D6490878002802D0012803D006E0FEF789
:1057B00016F903E04888D249FEF71EF9CB480121CB
:1057C000017005B0F0BDC9484178022902D000211E
:1057D000017070479EE7704710B504460C20C94A17
:1057E000604380188078FF281BD0C748BF4A4470A8
:1057F000032010702046FDF701FF21020123322211
:10580000C2480C3101F0EAFA0121017001F0ECFA12
:105810002046FEF710F980220621002000F0F2FA5F
:1058200010BDFDF7D1FE10BD70B5054600F03FFF7D
:10583000AE480024B44904700878002803D00C70E6
:1058400000F0BAFA02E02846FDF7F5FE00F037FB5B
:1058500012220621002000F0D5FAAD48017A002975
:1058600003D00472AB4801F017FD70BD10B5A64C13
:10587000A068002802D080470020A0609B484078A4
:10588000022801D1FFF746FF10BD10B500F00FFF51
:1058900000F068F99C48002101708160084600F022
:1058A0001AFAFDF7A0FEFFF738FAFFF71DFC10BD4E
:1058B000F3B50D4681B00988A81CFFF773FA040000
:1058C00021D05C20015D01984C225043924A8718F8
:1058D0003E4640367172384610301022A11C01F04D
:1058E000C3F9608A388538462146203008221431B1
:1058F00001F0BAF9207F7070384621462A3017220D
:105900001E3101F0B1F929460198FDF7CAFEFEBD2E
:1059100070B57D484C21407898B048437E49441882
:10592000254640356E7AF00725D06021684601F0A3
:1059300049FAAA2168460170214610311022801CC4
:1059400001F092F9218D68464182214620310822DA
:1059500005A801F089F9697868460177A97810A847
:10596000C176E91C0622153001F07EF910A80677F1
:105970006846FFF7E1F918B070BD10B55F480078D0
:10598000012801D1FEF74CF8FDF7C7FF5749002069
:10599000087010BD10B55C4908705A488078FDF752
:1059A000F1FF10BD10B558490123886032220D2146
:1059B0005A4801F013FA0121017001F015FA10BDE7
:1059C00010B50122564B9102196056490B881402FA
:1059D00023430B800B881B0A1B0203430B80524995
:1059E000900388804F4904202031088002230B80D7
:1059F0003E498A70087010BD4A4900200880494914
:105A000020310880484A032191800121444A8902BB
:105A1000803A1160454A11603449887008707047B7
:105A200038B5394C00256580A3806B4618705970D5
:105A30009A70684601F036FC2C48022181700421DE
:105A4000017038BD38B5304C0023A3806B46187008
:105A500059709A70684601F025FC3548016AC213F6
:105A600011430162016A021491430162016A8214C6
:105A700091430162016A490A490201621B480221FD
:105A800081700421017038BD10B52A48406B01F0C7
:105A90000FFC2848343001F011FC1B4900204880DD
:105AA000888012498870087010BD08B56946087072
:105AB000684601F009FC0D48032181700421017042
:105AC00008BD10B5012332220E211B4801F086F9D2
:105AD0000521017001F088F910BD0000A02FAB7EF8
:105AE0007D269B8C3940EE0AE2A8DB1E54900020F4
:105AF0005E90002066900020CC760020527B002033
:105B0000C75700205E81002048900020013000002F
:105B1000F081002011111111808100200234000059
:105B200080E100E000200050002C005080E200E006
:105B3000C00000409003080005380000FEB51C4678
:105B4000089B09263C4D6F4668C713462246FEF760
:105B500030FEFEBD7CB5384C01AD241F2468009595
:105B6000A0477CBD35480021017041708170012142
:105B7000C1707047FF2203E0037853400370401C5C
:105B8000491EF9D2704710B510460C4601F0FCF8DA
:105B9000012809D1322201231146900201F01EF999
:105BA000A178017001F020F9002010BD10B500F0BF
:105BB0008CFE002803DD0021084600F0E7FD0020F0
:105BC00010BD10B508460988801C00F032F900208D
:105BD00010BD10B5002000F08BFD002010BD10B5E9
:105BE000087800F001F9002010BD10B513480C46EC
